{
  "_format": "hh-sol-artifact-1",
  "contractName": "SkimRouter",
  "sourceName": "contracts/SkimRouter.sol",
  "abi": [
    {
      "inputs": [
        {
          "internalType": "address",
          "name": "_treasury",
          "type": "address"
        }
      ],
      "stateMutability": "nonpayable",
      "type": "constructor"
    },
    {
      "inputs": [
        {
          "internalType": "address",
          "name": "owner",
          "type": "address"
        }
      ],
      "name": "OwnableInvalidOwner",
      "type": "error"
    },
    {
      "inputs": [
        {
          "internalType": "address",
          "name": "account",
          "type": "address"
        }
      ],
      "name": "OwnableUnauthorizedAccount",
      "type": "error"
    },
    {
      "inputs": [
        {
          "internalType": "address",
          "name": "token",
          "type": "address"
        }
      ],
      "name": "SafeERC20FailedOperation",
      "type": "error"
    },
    {
      "anonymous": false,
      "inputs": [
        {
          "indexed": true,
          "internalType": "address",
          "name": "previousOwner",
          "type": "address"
        },
        {
          "indexed": true,
          "internalType": "address",
          "name": "newOwner",
          "type": "address"
        }
      ],
      "name": "OwnershipTransferred",
      "type": "event"
    },
    {
      "inputs": [],
      "name": "OFFICIAL_ROUTER",
      "outputs": [
        {
          "internalType": "contract ISwapRouter",
          "name": "",
          "type": "address"
        }
      ],
      "stateMutability": "view",
      "type": "function"
    },
    {
      "inputs": [],
      "name": "devFeeBP",
      "outputs": [
        {
          "internalType": "uint256",
          "name": "",
          "type": "uint256"
        }
      ],
      "stateMutability": "view",
      "type": "function"
    },
    {
      "inputs": [],
      "name": "owner",
      "outputs": [
        {
          "internalType": "address",
          "name": "",
          "type": "address"
        }
      ],
      "stateMutability": "view",
      "type": "function"
    },
    {
      "inputs": [],
      "name": "renounceOwnership",
      "outputs": [],
      "stateMutability": "nonpayable",
      "type": "function"
    },
    {
      "inputs": [
        {
          "internalType": "address",
          "name": "token",
          "type": "address"
        }
      ],
      "name": "rescue",
      "outputs": [],
      "stateMutability": "nonpayable",
      "type": "function"
    },
    {
      "inputs": [
        {
          "internalType": "uint256",
          "name": "newFeeBP",
          "type": "uint256"
        }
      ],
      "name": "setDevFee",
      "outputs": [],
      "stateMutability": "nonpayable",
      "type": "function"
    },
    {
      "inputs": [
        {
          "internalType": "address",
          "name": "tokenIn",
          "type": "address"
        },
        {
          "internalType": "address",
          "name": "tokenOut",
          "type": "address"
        },
        {
          "internalType": "uint24",
          "name": "poolFee",
          "type": "uint24"
        },
        {
          "internalType": "uint256",
          "name": "amountIn",
          "type": "uint256"
        },
        {
          "internalType": "uint256",
          "name": "amountOutMinimum",
          "type": "uint256"
        },
        {
          "internalType": "address",
          "name": "recipient",
          "type": "address"
        }
      ],
      "name": "swapExactInputSingle",
      "outputs": [
        {
          "internalType": "uint256",
          "name": "amountOut",
          "type": "uint256"
        }
      ],
      "stateMutability": "nonpayable",
      "type": "function"
    },
    {
      "inputs": [
        {
          "internalType": "address",
          "name": "newOwner",
          "type": "address"
        }
      ],
      "name": "transferOwnership",
      "outputs": [],
      "stateMutability": "nonpayable",
      "type": "function"
    },
    {
      "inputs": [],
      "name": "treasury",
      "outputs": [
        {
          "internalType": "address",
          "name": "",
          "type": "address"
        }
      ],
      "stateMutability": "view",
      "type": "function"
    },
    {
      "stateMutability": "payable",
      "type": "receive"
    }
  ],
  "bytecode": "0x6080346100cb57601f61085738819003918201601f19168301916001600160401b038311848410176100d0578084926020946040528339810103126100cb57516001600160a01b0390818116908190036100cb5733156100b25760005460018060a01b0319903382821617600055604051933391167f8be0079c531659141344cd1fd0a4f28419497f9722a3daafe3b4186f6b6457e0600080a36005600255600154161760015561077090816100e78239f35b604051631e4fbdf760e01b815260006004820152602490fd5b600080fd5b634e487b7160e01b600052604160045260246000fdfe604060808152600436101561001d575b50361561001b57600080fd5b005b60003560e01c80631c75b6b2146105b45780632a30877f146105855780633175e0261461056657806361d027b31461053d5780636471a9eb14610241578063715018a6146101e8578063839006f2146101405780638da5cb5b146101175763f2fde38b0361000f57346101125760203660031901126101125761009e61060f565b6100a6610625565b6001600160a01b039081169182156100fb5750600054826bffffffffffffffffffffffff60a01b821617600055167f8be0079c531659141344cd1fd0a4f28419497f9722a3daafe3b4186f6b6457e0600080a3005b51631e4fbdf760e01b815260006004820152602490fd5b600080fd5b50346101125760003660031901126101125760005490516001600160a01b039091168152602090f35b50346101125760203660031901126101125761015a61060f565b90610163610625565b60005481516370a0823160e01b8152306004820152926001600160a01b039182169116602084602481845afa9283156101de57506000926101a9575b61001b9350610680565b91506020833d82116101d6575b816101c36020938361065e565b810103126101125761001b92519161019f565b3d91506101b6565b513d6000823e3d90fd5b3461011257600036600319011261011257610201610625565b600080546001600160a01b0319811682556001600160a01b03167f8be0079c531659141344cd1fd0a4f28419497f9722a3daafe3b4186f6b6457e08280a3005b50346101125760c03660031901126101125761025b61060f565b906024356001600160a01b038116908190036101125760443562ffffff81168091036101125760a4356001600160a01b03811681036101125783516323b872dd60e01b60208201523360248201523060448201526064803581830152815260a081019067ffffffffffffffff8211818310176104a9579085526102e7906001600160a01b0387166106d2565b600254606435808202939181159185041417156104bf576127108304610518575b6103186127108404606435610651565b855163095ea7b360e01b8152733fc91a3afd70395cd496e5b6f698ebf5e87d07946004820152602481019190915260208160448160006001600160a01b038c165af1801561050d576104d5575b5061012c4201928342116104bf576127106103839104606435610651565b93855196610100880188811067ffffffffffffffff8211176104a95787526001600160a01b0390811688526020808901928352888801938452938116606089019081526080890195865260a089019687526084803560c08b01908152600060e08c018181528b5163414bf38960e01b81529c51861660048e01529551851660248d0152955162ffffff1660448c01529151831660648b0152955195890195909552945160a4880152925160c4870152915190921660e48501528390610104908290733fc91a3afd70395cd496e5b6f698ebf5e87d07945af19081156101de57600091610474575b6020925051908152f35b90506020823d6020116104a1575b8161048f6020938361065e565b8101031261011257602091519061046a565b3d9150610482565b634e487b7160e01b600052604160045260246000fd5b634e487b7160e01b600052601160045260246000fd5b6020813d602011610505575b816104ee6020938361065e565b810103126101125751801515036101125738610365565b3d91506104e1565b86513d6000823e3d90fd5b600154610538906127108504906001600160a01b03908116908916610680565b610308565b50346101125760003660031901126101125760015490516001600160a01b039091168152602090f35b5034610112576000366003190112610112576020906002549051908152f35b50346101125760003660031901126101125760209051733fc91a3afd70395cd496e5b6f698ebf5e87d07948152f35b503461011257602036600319011261011257600435906105d2610625565b601482116105e05750600255005b5162461bcd60e51b81526020600482015260096024820152686d617820302e32302560b81b6044820152606490fd5b600435906001600160a01b038216820361011257565b6000546001600160a01b0316330361063957565b60405163118cdaa760e01b8152336004820152602490fd5b919082039182116104bf57565b90601f8019910116810190811067ffffffffffffffff8211176104a957604052565b60405163a9059cbb60e01b60208201526001600160a01b039092166024830152604480830193909352918152608081019167ffffffffffffffff8311828410176104a9576106d0926040526106d2565b565b906000602091828151910182855af11561072e576000513d61072557506001600160a01b0381163b155b6107035750565b604051635274afe760e01b81526001600160a01b039091166004820152602490fd5b600114156106fc565b6040513d6000823e3d90fdfea2646970667358221220a99709249e9e86f2391f100c4912dc4c58916492e1830a68cfb69e72ec7ae6ad64736f6c63430008140033",
  "linkReferences": {},
  "deployedLinkReferences": {}
}