{
  "_format": "hh-sol-artifact-1",
  "contractName": "SkimRouter",
  "sourceName": "contracts/SkimRouter.sol",
  "abi": [
    {
      "inputs": [
        {
          "internalType": "address",
          "name": "_treasury",
          "type": "address"
        }
      ],
      "stateMutability": "nonpayable",
      "type": "constructor"
    },
    {
      "inputs": [
        {
          "internalType": "address",
          "name": "owner",
          "type": "address"
        }
      ],
      "name": "OwnableInvalidOwner",
      "type": "error"
    },
    {
      "inputs": [
        {
          "internalType": "address",
          "name": "account",
          "type": "address"
        }
      ],
      "name": "OwnableUnauthorizedAccount",
      "type": "error"
    },
    {
      "inputs": [
        {
          "internalType": "address",
          "name": "token",
          "type": "address"
        }
      ],
      "name": "SafeERC20FailedOperation",
      "type": "error"
    },
    {
      "anonymous": false,
      "inputs": [
        {
          "indexed": true,
          "internalType": "address",
          "name": "previousOwner",
          "type": "address"
        },
        {
          "indexed": true,
          "internalType": "address",
          "name": "newOwner",
          "type": "address"
        }
      ],
      "name": "OwnershipTransferred",
      "type": "event"
    },
    {
      "inputs": [],
      "name": "OFFICIAL_ROUTER",
      "outputs": [
        {
          "internalType": "contract ISwapRouter",
          "name": "",
          "type": "address"
        }
      ],
      "stateMutability": "view",
      "type": "function"
    },
    {
      "inputs": [],
      "name": "devFeeBP",
      "outputs": [
        {
          "internalType": "uint256",
          "name": "",
          "type": "uint256"
        }
      ],
      "stateMutability": "view",
      "type": "function"
    },
    {
      "inputs": [],
      "name": "owner",
      "outputs": [
        {
          "internalType": "address",
          "name": "",
          "type": "address"
        }
      ],
      "stateMutability": "view",
      "type": "function"
    },
    {
      "inputs": [],
      "name": "renounceOwnership",
      "outputs": [],
      "stateMutability": "nonpayable",
      "type": "function"
    },
    {
      "inputs": [
        {
          "internalType": "address",
          "name": "token",
          "type": "address"
        }
      ],
      "name": "rescue",
      "outputs": [],
      "stateMutability": "nonpayable",
      "type": "function"
    },
    {
      "inputs": [
        {
          "internalType": "uint256",
          "name": "newFeeBP",
          "type": "uint256"
        }
      ],
      "name": "setDevFee",
      "outputs": [],
      "stateMutability": "nonpayable",
      "type": "function"
    },
    {
      "inputs": [
        {
          "internalType": "address",
          "name": "tokenIn",
          "type": "address"
        },
        {
          "internalType": "address",
          "name": "tokenOut",
          "type": "address"
        },
        {
          "internalType": "uint24",
          "name": "poolFee",
          "type": "uint24"
        },
        {
          "internalType": "uint256",
          "name": "amountIn",
          "type": "uint256"
        },
        {
          "internalType": "uint256",
          "name": "amountOutMinimum",
          "type": "uint256"
        },
        {
          "internalType": "address",
          "name": "recipient",
          "type": "address"
        }
      ],
      "name": "swapExactInputSingle",
      "outputs": [
        {
          "internalType": "uint256",
          "name": "amountOut",
          "type": "uint256"
        }
      ],
      "stateMutability": "nonpayable",
      "type": "function"
    },
    {
      "inputs": [
        {
          "internalType": "address",
          "name": "newOwner",
          "type": "address"
        }
      ],
      "name": "transferOwnership",
      "outputs": [],
      "stateMutability": "nonpayable",
      "type": "function"
    },
    {
      "inputs": [],
      "name": "treasury",
      "outputs": [
        {
          "internalType": "address",
          "name": "",
          "type": "address"
        }
      ],
      "stateMutability": "view",
      "type": "function"
    },
    {
      "stateMutability": "payable",
      "type": "receive"
    }
  ],
  "bytecode": "0x60803460d657601f61080138819003918201601f19168301916001600160401b0383118484101760db5780849260209460405283398101031260d657516001600160a01b0381169081900360d657331560c05760008054336001600160a01b0319821681178355604051939290916001600160a01b0316907f8be0079c531659141344cd1fd0a4f28419497f9722a3daafe3b4186f6b6457e09080a36005600255600180546001600160a01b03191691909117905561070f90816100f28239f35b631e4fbdf760e01b600052600060045260246000fd5b600080fd5b634e487b7160e01b600052604160045260246000fdfe6080604052600436101561001b575b361561001957600080fd5b005b60003560e01c80631c75b6b2146105745780632a30877f146105455780633175e0261461052757806361d027b3146104fe5780636471a9eb1461023c578063715018a6146101e3578063839006f21461013a5780638da5cb5b146101115763f2fde38b0361000e573461010c57602036600319011261010c5761009c6105ce565b6100a4610613565b6001600160a01b031680156100f657600080546001600160a01b03198116831782556001600160a01b0316907f8be0079c531659141344cd1fd0a4f28419497f9722a3daafe3b4186f6b6457e09080a3005b631e4fbdf760e01b600052600060045260246000fd5b600080fd5b3461010c57600036600319011261010c576000546040516001600160a01b039091168152602090f35b3461010c57602036600319011261010c576101536105ce565b61015b610613565b6000546040516370a0823160e01b8152306004820152916001600160a01b039081169116602083602481855afa9182156101d7576000926101a1575b610019935061063c565b91506020833d6020116101cf575b816101bc602093836105f1565b8101031261010c57610019925191610197565b3d91506101af565b6040513d6000823e3d90fd5b3461010c57600036600319011261010c576101fc610613565b600080546001600160a01b0319811682556001600160a01b03167f8be0079c531659141344cd1fd0a4f28419497f9722a3daafe3b4186f6b6457e08280a3005b3461010c5760c036600319011261010c576102556105ce565b6024356001600160a01b0381169081900361010c5760443562ffffff811680910361010c576064359260a4356001600160a01b038116919082900361010c5760018060a01b0316936102d76040516323b872dd60e01b6020820152336024820152306044820152826064820152606481526102d16084826105f1565b8661067e565b60025480820290828204148215171561049357612710900490816104e1575b61030082826105e4565b6040519063095ea7b360e01b8252733fc91a3afd70395cd496e5b6f698ebf5e87d07946004830152602482015260208160448160008b5af180156101d7576104a9575b5061012c4201918242116104935761035a916105e4565b9160405195610100870187811067ffffffffffffffff82111761047d5760409081529087526020808801968752878201958652606088019283526080880193845260a088019485526084803560c08a01908152600060e08b01818152945163414bf38960e01b81529a516001600160a01b0390811660048d015299518a1660248c0152975162ffffff1660448b01529351881660648a0152935193880193909352925160a48701525160c4860152905190921660e48401528290610104908290733fc91a3afd70395cd496e5b6f698ebf5e87d07945af180156101d75760009061044a575b602090604051908152f35b506020813d602011610475575b81610464602093836105f1565b8101031261010c576020905161043f565b3d9150610457565b634e487b7160e01b600052604160045260246000fd5b634e487b7160e01b600052601160045260246000fd5b6020813d6020116104d9575b816104c2602093836105f1565b8101031261010c5751801515811461034357600080fd5b3d91506104b5565b6001546104f99083906001600160a01b03168861063c565b6102f6565b3461010c57600036600319011261010c576001546040516001600160a01b039091168152602090f35b3461010c57600036600319011261010c576020600254604051908152f35b3461010c57600036600319011261010c576020604051733fc91a3afd70395cd496e5b6f698ebf5e87d07948152f35b3461010c57602036600319011261010c57600435610590610613565b6014811161059d57600255005b60405162461bcd60e51b81526020600482015260096024820152686d617820302e32302560b81b6044820152606490fd5b600435906001600160a01b038216820361010c57565b9190820391821161049357565b90601f8019910116810190811067ffffffffffffffff82111761047d57604052565b6000546001600160a01b0316330361062757565b63118cdaa760e01b6000523360045260246000fd5b60405163a9059cbb60e01b60208201526001600160a01b03909216602483015260448083019390935291815261067c916106776064836105f1565b61067e565b565b906000602091828151910182855af1156101d7576000513d6106d057506001600160a01b0381163b155b6106af5750565b635274afe760e01b60009081526001600160a01b0391909116600452602490fd5b600114156106a856fea26469706673582212205c863a467d4e656ab5edeac2336b15ca5abefb67ae535491ccc3e847018b847664736f6c634300081a0033",
  "linkReferences": {},
  "deployedLinkReferences": {}
}