{"contracts/GodModeEmpire.sol":{"GodModeEmpire":{"abi":[{"inputs":[{"internalType":"address","name":"_skimRouter","type":"address"},{"internalType":"address","name":"_treasury","type":"address"}],"stateMutability":"nonpayable","type":"constructor"},{"inputs":[],"name":"EnforcedPause","type":"error"},{"inputs":[],"name":"ExpectedPause","type":"error"},{"inputs":[{"internalType":"address","name":"owner","type":"address"}],"name":"OwnableInvalidOwner","type":"error"},{"inputs":[{"internalType":"address","name":"account","type":"address"}],"name":"OwnableUnauthorizedAccount","type":"error"},{"inputs":[],"name":"ReentrancyGuardReentrantCall","type":"error"},{"inputs":[{"internalType":"address","name":"token","type":"address"}],"name":"SafeERC20FailedOperation","type":"error"},{"anonymous":false,"inputs":[{"indexed":false,"internalType":"uint8","name":"mode","type":"uint8"},{"indexed":false,"internalType":"uint256","name":"amount","type":"uint256"},{"indexed":false,"internalType":"uint256","name":"profit","type":"uint256"}],"name":"ArbExecuted","type":"event"},{"anonymous":false,"inputs":[{"indexed":false,"internalType":"uint256","name":"amount","type":"uint256"}],"name":"Bootstrapped","type":"event"},{"anonymous":false,"inputs":[{"indexed":false,"internalType":"uint256","name":"newFeeBP","type":"uint256"}],"name":"FeeUpdated","type":"event"},{"anonymous":false,"inputs":[{"indexed":true,"internalType":"address","name":"previousOwner","type":"address"},{"indexed":true,"internalType":"address","name":"newOwner","type":"address"}],"name":"OwnershipTransferred","type":"event"},{"anonymous":false,"inputs":[{"indexed":false,"internalType":"address","name":"account","type":"address"}],"name":"Paused","type":"event"},{"anonymous":false,"inputs":[{"indexed":false,"internalType":"uint256","name":"newMaxTradeSize","type":"uint256"}],"name":"TradeSizeUpdated","type":"event"},{"anonymous":false,"inputs":[{"indexed":false,"internalType":"address","name":"account","type":"address"}],"name":"Unpaused","type":"event"},{"inputs":[],"name":"AAVE_POOL","outputs":[{"internalType":"address","name":"","type":"address"}],"stateMutability":"view","type":"function"},{"inputs":[],"name":"AAVE_TOKEN","outputs":[{"internalType":"address","name":"","type":"address"}],"stateMutability":"view","type":"function"},{"inputs":[],"name":"ARB","outputs":[{"internalType":"address","name":"","type":"address"}],"stateMutability":"view","type":"function"},{"inputs":[],"name":"BALANCER_VAULT","outputs":[{"internalType":"address","name":"","type":"address"}],"stateMutability":"view","type":"function"},{"inputs":[],"name":"BONK","outputs":[{"internalType":"address","name":"","type":"address"}],"stateMutability":"view","type":"function"},{"inputs":[],"name":"CRV","outputs":[{"internalType":"address","name":"","type":"address"}],"stateMutability":"view","type":"function"},{"inputs":[],"name":"GMX","outputs":[{"internalType":"address","name":"","type":"address"}],"stateMutability":"view","type":"function"},{"inputs":[],"name":"GRAIL","outputs":[{"internalType":"address","name":"","type":"address"}],"stateMutability":"view","type":"function"},{"inputs":[],"name":"LDO","outputs":[{"internalType":"address","name":"","type":"address"}],"stateMutability":"view","type":"function"},{"inputs":[],"name":"LINK","outputs":[{"internalType":"address","name":"","type":"address"}],"stateMutability":"view","type":"function"},{"inputs":[],"name":"MAGIC","outputs":[{"internalType":"address","name":"","type":"address"}],"stateMutability":"view","type":"function"},{"inputs":[],"name":"PENDLE","outputs":[{"internalType":"address","name":"","type":"address"}],"stateMutability":"view","type":"function"},{"inputs":[],"name":"PEPE","outputs":[{"internalType":"address","name":"","type":"address"}],"stateMutability":"view","type":"function"},{"inputs":[],"name":"POSITION_MANAGER","outputs":[{"internalType":"address","name":"","type":"address"}],"stateMutability":"view","type":"function"},{"inputs":[],"name":"RDNT","outputs":[{"internalType":"address","name":"","type":"address"}],"stateMutability":"view","type":"function"},{"inputs":[],"name":"SKIM_ROUTER","outputs":[{"internalType":"contract ISwapRouter","name":"","type":"address"}],"stateMutability":"view","type":"function"},{"inputs":[],"name":"UNI","outputs":[{"internalType":"address","name":"","type":"address"}],"stateMutability":"view","type":"function"},{"inputs":[],"name":"USDC","outputs":[{"internalType":"address","name":"","type":"address"}],"stateMutability":"view","type":"function"},{"inputs":[],"name":"USDT","outputs":[{"internalType":"address","name":"","type":"address"}],"stateMutability":"view","type":"function"},{"inputs":[],"name":"WBTC","outputs":[{"internalType":"address","name":"","type":"address"}],"stateMutability":"view","type":"function"},{"inputs":[],"name":"WETH","outputs":[{"internalType":"address","name":"","type":"address"}],"stateMutability":"view","type":"function"},{"inputs":[],"name":"aaveOracle","outputs":[{"internalType":"contract AggregatorV3Interface","name":"","type":"address"}],"stateMutability":"view","type":"function"},{"inputs":[{"internalType":"address","name":"pool","type":"address"},{"internalType":"uint256","name":"amount","type":"uint256"}],"name":"addGaugeBribe","outputs":[],"stateMutability":"nonpayable","type":"function"},{"inputs":[],"name":"arbOracle","outputs":[{"internalType":"contract AggregatorV3Interface","name":"","type":"address"}],"stateMutability":"view","type":"function"},{"inputs":[{"internalType":"address","name":"pool","type":"address"}],"name":"autoCompoundFarm","outputs":[],"stateMutability":"nonpayable","type":"function"},{"inputs":[{"internalType":"uint256","name":"amount","type":"uint256"}],"name":"basisTradeLoop","outputs":[],"stateMutability":"nonpayable","type":"function"},{"inputs":[],"name":"bonkOracle","outputs":[{"internalType":"contract AggregatorV3Interface","name":"","type":"address"}],"stateMutability":"view","type":"function"},{"inputs":[{"internalType":"uint256","name":"amount","type":"uint256"}],"name":"bootstrapBalancer","outputs":[],"stateMutability":"nonpayable","type":"function"},{"inputs":[{"internalType":"uint256","name":"amount","type":"uint256"}],"name":"bootstrapEmpire","outputs":[],"stateMutability":"nonpayable","type":"function"},{"inputs":[{"internalType":"address","name":"tokenA","type":"address"},{"internalType":"address","name":"tokenB","type":"address"},{"internalType":"uint256","name":"amount","type":"uint256"}],"name":"bootstrapPair","outputs":[],"stateMutability":"nonpayable","type":"function"},{"inputs":[{"internalType":"uint256","name":"amount","type":"uint256"}],"name":"btcLiquidArb","outputs":[],"stateMutability":"nonpayable","type":"function"},{"inputs":[{"internalType":"uint256","name":"amount","type":"uint256"}],"name":"cexDexPegArb","outputs":[],"stateMutability":"nonpayable","type":"function"},{"inputs":[],"name":"cooldownPeriod","outputs":[{"internalType":"uint256","name":"","type":"uint256"}],"stateMutability":"view","type":"function"},{"inputs":[{"internalType":"uint256","name":"amount","type":"uint256"}],"name":"crossDexCurveArb","outputs":[],"stateMutability":"nonpayable","type":"function"},{"inputs":[],"name":"crvOracle","outputs":[{"internalType":"contract AggregatorV3Interface","name":"","type":"address"}],"stateMutability":"view","type":"function"},{"inputs":[],"name":"devFeeBP","outputs":[{"internalType":"uint256","name":"","type":"uint256"}],"stateMutability":"view","type":"function"},{"inputs":[{"internalType":"address","name":"token","type":"address"}],"name":"emergencyWithdraw","outputs":[],"stateMutability":"nonpayable","type":"function"},{"inputs":[{"internalType":"address","name":"asset","type":"address"},{"internalType":"uint256","name":"amount","type":"uint256"},{"internalType":"bytes","name":"params","type":"bytes"}],"name":"executeFlashLoan","outputs":[],"stateMutability":"nonpayable","type":"function"},{"inputs":[],"name":"lastTradeTime","outputs":[{"internalType":"uint256","name":"","type":"uint256"}],"stateMutability":"view","type":"function"},{"inputs":[],"name":"ldoOracle","outputs":[{"internalType":"contract AggregatorV3Interface","name":"","type":"address"}],"stateMutability":"view","type":"function"},{"inputs":[],"name":"linkOracle","outputs":[{"internalType":"contract AggregatorV3Interface","name":"","type":"address"}],"stateMutability":"view","type":"function"},{"inputs":[],"name":"maxTradeSize","outputs":[{"internalType":"uint256","name":"","type":"uint256"}],"stateMutability":"view","type":"function"},{"inputs":[],"name":"owner","outputs":[{"internalType":"address","name":"","type":"address"}],"stateMutability":"view","type":"function"},{"inputs":[],"name":"paused","outputs":[{"internalType":"bool","name":"","type":"bool"}],"stateMutability":"view","type":"function"},{"inputs":[],"name":"pepeOracle","outputs":[{"internalType":"contract AggregatorV3Interface","name":"","type":"address"}],"stateMutability":"view","type":"function"},{"inputs":[{"internalType":"uint256","name":"amount","type":"uint256"}],"name":"quadArb","outputs":[],"stateMutability":"nonpayable","type":"function"},{"inputs":[{"internalType":"address[]","name":"tokens","type":"address[]"},{"internalType":"uint256[]","name":"amounts","type":"uint256[]"},{"internalType":"uint256[]","name":"feeAmounts","type":"uint256[]"},{"internalType":"bytes","name":"userData","type":"bytes"}],"name":"receiveFlashLoan","outputs":[],"stateMutability":"nonpayable","type":"function"},{"inputs":[],"name":"renounceOwnership","outputs":[],"stateMutability":"nonpayable","type":"function"},{"inputs":[{"internalType":"uint256","name":"amount","type":"uint256"}],"name":"rwaPegArb","outputs":[],"stateMutability":"nonpayable","type":"function"},{"inputs":[{"internalType":"uint256","name":"_cooldownPeriod","type":"uint256"}],"name":"setCooldownPeriod","outputs":[],"stateMutability":"nonpayable","type":"function"},{"inputs":[{"internalType":"uint256","name":"_devFeeBP","type":"uint256"}],"name":"setDevFee","outputs":[],"stateMutability":"nonpayable","type":"function"},{"inputs":[{"internalType":"uint256","name":"_maxTradeSize","type":"uint256"}],"name":"setMaxTradeSize","outputs":[],"stateMutability":"nonpayable","type":"function"},{"inputs":[{"internalType":"address","name":"_usdcOracle","type":"address"},{"internalType":"address","name":"_usdtOracle","type":"address"},{"internalType":"address","name":"_wbtcOracle","type":"address"},{"internalType":"address","name":"_wethOracle","type":"address"},{"internalType":"address","name":"_linkOracle","type":"address"},{"internalType":"address","name":"_uniOracle","type":"address"},{"internalType":"address","name":"_aaveOracle","type":"address"},{"internalType":"address","name":"_arbOracle","type":"address"},{"internalType":"address","name":"_ldoOracle","type":"address"},{"internalType":"address","name":"_crvOracle","type":"address"}],"name":"setOracles","outputs":[],"stateMutability":"nonpayable","type":"function"},{"inputs":[{"internalType":"address","name":"_aavePool","type":"address"},{"internalType":"address","name":"_balancerVault","type":"address"},{"internalType":"address","name":"_positionManager","type":"address"}],"name":"setProtocolAddresses","outputs":[],"stateMutability":"nonpayable","type":"function"},{"inputs":[{"internalType":"address","name":"_usdt","type":"address"},{"internalType":"address","name":"_usdc","type":"address"},{"internalType":"address","name":"_wbtc","type":"address"},{"internalType":"address","name":"_weth","type":"address"},{"internalType":"address","name":"_gmx","type":"address"},{"internalType":"address","name":"_magic","type":"address"},{"internalType":"address","name":"_grail","type":"address"},{"internalType":"address","name":"_rdnt","type":"address"},{"internalType":"address","name":"_pendle","type":"address"},{"internalType":"address","name":"_link","type":"address"},{"internalType":"address","name":"_uni","type":"address"},{"internalType":"address","name":"_aave","type":"address"},{"internalType":"address","name":"_arb","type":"address"},{"internalType":"address","name":"_ldo","type":"address"},{"internalType":"address","name":"_crv","type":"address"},{"internalType":"address","name":"_pepe","type":"address"},{"internalType":"address","name":"_bonk","type":"address"}],"name":"setTokenAddresses","outputs":[],"stateMutability":"nonpayable","type":"function"},{"inputs":[{"internalType":"uint256","name":"amount","type":"uint256"}],"name":"startInfinitePrint","outputs":[],"stateMutability":"nonpayable","type":"function"},{"inputs":[{"internalType":"address","name":"newOwner","type":"address"}],"name":"transferOwnership","outputs":[],"stateMutability":"nonpayable","type":"function"},{"inputs":[],"name":"treasury","outputs":[{"internalType":"address","name":"","type":"address"}],"stateMutability":"view","type":"function"},{"inputs":[{"internalType":"uint256","name":"amount","type":"uint256"}],"name":"triangularStableArb","outputs":[],"stateMutability":"nonpayable","type":"function"},{"inputs":[],"name":"uniOracle","outputs":[{"internalType":"contract AggregatorV3Interface","name":"","type":"address"}],"stateMutability":"view","type":"function"},{"inputs":[],"name":"usdtOracle","outputs":[{"internalType":"contract AggregatorV3Interface","name":"","type":"address"}],"stateMutability":"view","type":"function"},{"inputs":[],"name":"wbtcOracle","outputs":[{"internalType":"contract AggregatorV3Interface","name":"","type":"address"}],"stateMutability":"view","type":"function"},{"inputs":[],"name":"wethOracle","outputs":[{"internalType":"contract AggregatorV3Interface","name":"","type":"address"}],"stateMutability":"view","type":"function"},{"stateMutability":"payable","type":"receive"}],"evm":{"bytecode":{"linkReferences":{},"object":"60a034620004b057601f6200415f38819003918201601f19168301916001600160401b03831184841017620004b5578084926040948552833981010312620004b0576200005a60206200005283620004cb565b9201620004cb565b33156200049757600080546001600160a01b0319808216339081178455604051956001600160a01b039490938516907f8be0079c531659141344cd1fd0a4f28419497f9722a3daafe3b4186f6b6457e09080a360018055600560035564e8d4a5100060045560f060055573fd086bc7cd5c481dcc9c85ebe478a1c0b69fcbb981600754161760075573ff970a61a04b1ca14834a43f5de4533ebddb5cc8816008541617600855732f2a2543b76a4166549f7aab2e75bef0aefc5b0f8160095416176009557382af49447d8a07e3bd95bd0d56f35241523fbab181600a541617600a5573fc5a1a6eb076a2c7ad06ed22c90d7e710e35ad0a81600b541617600b5573539bde0d7dbd336b79148aa742883198bbf6034281600c541617600c55733d9907f9a368ad0a51be60f7da3b97cf940982d881600d541617600d55733082cc23568ea640225c2467653db90e9250aaa081600e541617600e55730c880f6761f1af8d9aa9c466984b80dab9a8c9e881600f541617600f5573f97f4df75117a78c1a5a0dbb814af92458539fb4816010541617601055806011541660115573ba5ddd1f9d7f570dc94a51479a000e3bce96719681601254161760125573912ce59144191c1204e64559fe8253a0e49e65488160135416176013557313ad51ed4f1b7e9dc168d8a00cb3f4ddd85efa608160145416176014557311cdb42b0eb46d95f990bedd4695a6e3fa0349788160155416176015557325d887ce7a35172c62febfd67a1856f20faebb008160165416176016557309199d9a5f4448d0848e4395d065e1a1c5a5263f81601754161760175573794a61358d6845594f94dc1db02a252b5b4814ad81601854161760185573ba12222222228d8ba445958a75a0704d566bf2c881601954161760195573c36442b4a4522e871399cd717abdd847ab11fe8881601a541617601a55733f3f5df88dc9f13eac63df89ec16ef6e7e25dde781601b541617601b55736ce185860a4963106506c203335a2910413708e981601c541617601c5573639fe6ab55c921f74e7fac1ee960c0b6293ba61281601d541617601d557386e53cf1b870786351165d955b07ed0f7f4c3d2b81601e541617601e55739c917083fdb403ab5adbec26ee294f6ecada272081601f541617601f5573ad1d5344aade45f43e596773bcc4c423eabdd03481602054161760205573b2a824043730fe05f3da2efafa1cbbe83fa548d681602154161760215573a43a34030088e6510eecf95376b516fce9b74b5781602254161760225573aebda2c976cfd1ee1977eac079b4382acb8493258160235416176023558060245416602455602554166025551660805260025490610100600160a81b039060081b1690610100600160a81b03191617600255613c7e9081620004e182396080518181816108b0015281816109bd01528181612083015281816132d1015281816133d6015281816134870152818161358b015281816135fb015261371e0152f35b604051631e4fbdf760e01b815260006004820152602490fd5b600080fd5b634e487b7160e01b600052604160045260246000fd5b51906001600160a01b0382168203620004b05756fe608080604052600436101561001d575b50361561001b57600080fd5b005b600090813560e01c90816304646a49146129b45750806307a79fc71461298b57806308a016751461296257806308a5d1fc1461288257806309eaed95146128595780631056305e146127eb57806310fa79e2146127cd57806313c89efe14612741578063193ef709146127185780631b6b6d23146126ef5780631bea83fe146126c65780631c75b6b21461266b57806320c0a630146125fd5780632b2d15341461258f5780632e56802c146125665780633175e0261461254857806332e0ebb21461251f5780633ad396b2146120db578063438dbd32146120b25780634b083bb61461206d5780634b3f33781461204a5780634d32133814611fdc5780634dede3de14611fb3578063541bcb7614611f8a578063552672b414611f61578063580cb3b414611ef35780635c975abb14611ed05780635e41813d14611ea757806361d027b314611e7a5780636372b28114611e5357806364a285fd14611e2a5780636ecd155114611dbc5780636ff1c9bc14611d21578063715018a614611cc75780637730022314611c59578063787739cf14611c305780637a26603814611c075780637cf738d214611bde5780637e26edb114611bb557806380ea3de114611b9257806389a3027114611b695780638da5cb5b14611b425780638e47518414611a7d57806391c63e121461196c578063945c9142146119435780639557bcea146119295780639da5596714611903578063a84e58501461173f578063ad5c464814611716578063b8165813146116ed578063bc163846146116c4578063bfbba3171461169b578063c54e44eb14611672578063d5eee8b614611654578063d88bba111461162b578063db9dc57814611602578063e4fbaecb146115d9578063e71e6bcb146115b0578063ebb92cba14611587578063f04f27071461119d578063f2fde38b1461110d578063f3df1253146105065763f7baa67d0361000f573461050357610220366003190112610503576102f56129d0565b6102fd6129e6565b6103056129fc565b61030d612a12565b610315612a28565b61031d612a3e565b610325612a54565b61032d612a6a565b610335612a80565b9061033e612a97565b61014435949093906001600160a01b03861686036104fe5761016435966001600160a01b03881688036104fe5761018435986001600160a01b038a168a036104fe576101a4359a6001600160a01b038c168c036104fe576101c4359c6001600160a01b038e168e90036104fe576101e4359e8f60018060a01b038116036104fe57610204356001600160a01b03811690036104fe576103db612be0565b600780546001600160a01b03199081166001600160a01b03938416179091556008805482169383169390931790925560098054831693821693909317909255600a8054821693831693909317909255600b8054831693821693909317909255600c8054821693831693909317909255600d8054831693821693909317909255600e8054821693831693909317909255600f805483169382169390931790925560108054821693831693909317909255601180548316938216939093179092556012805482169383169390931790925560138054831693821693909317909255601480548216938316939093179092556015805483169382169390931790925560168054821693831693909317909255601780549092166102043590911617905580f35b600080fd5b80fd5b5034610503576060366003190112610503576105206129d0565b906044356001600160401b0381116110d957366023820112156110d95780600401356001600160401b0381116110d55781013660248201116110d557610564612d2b565b6018546001600160a01b031633036110dd578160209103126110d957602481013560ff811691908290036110d5576040516370a0823160e01b8152306004820152916020836024816001600160a01b0389165afa9283156110ca578493611096575b506001810361083557509091926105de602435612fb3565b6040516370a0823160e01b8152306004820152926020846024816001600160a01b0386165afa93841561082a5785946107f4575b508061062361062992861015612eed565b84612da4565b90612710938461063b60035485612d71565b0490816107d0575b6024359560098702878104600914881517156107bc579161067761067e926106a595940493610672858b612c49565b612c49565b1115612f25565b6018546001600160a01b0316906106959087612c49565b906001600160a01b038416612f70565b6040516370a0823160e01b81523060048201526020816024816001600160a01b0386165afa9081156107b1578691610757575b50917fe353aaf2b0009460952086ead25cb12a74b4e9e1d8bc70b75ad07701d36c25319461072e928460249695610738575b505060405194859401358460409194939260ff606083019616825260208201520152565b0390a16001805580f35b8854610750926001600160a01b039182169116612f70565b388061070a565b91939290506020823d6020116107a9575b8161077560209383612b4a565b810103126104fe579051919290917fe353aaf2b0009460952086ead25cb12a74b4e9e1d8bc70b75ad07701d36c25316106d8565b3d9150610768565b6040513d88823e3d90fd5b634e487b7160e01b89526011600452602489fd5b6002546107ef90839060081c6001600160a01b03908116908616612f70565b610643565b9093506020813d602011610822575b8161081060209383612b4a565b810103126104fe575192610629610612565b3d9150610803565b6040513d87823e3d90fd5b60028103610aa05750825b62030d405a1180610a96575b15610a8c57600880546007805490916108789160243560011c916001600160a01b0391821691166132ad565b505490546001600160a01b03918216911661089960243560011c82846137ce565b60405163095ea7b360e01b81526001600160a01b037f00000000000000000000000000000000000000000000000000000000000000001660048201526024803560011c908201526020816044816000885af18015610a3b57610a5d575b5061012c42014211610a47576040519261090f84612b2e565b835260208084019283526101f4604080860191825230606087019081524261012c01608088019081526024803560011c60a08a0190815260c08a01978852600060e08b01818152955163414bf38960e01b81529a516001600160a01b0390811660048d015299518a16928b0192909252945162ffffff1660448a0152915187166064890152516084880152915160a4870152925160c48601529151831660e4850152918391610104918391907f0000000000000000000000000000000000000000000000000000000000000000165af18015610a3b57610a10575b5060001981146109fc57600101610840565b634e487b7160e01b84526011600452602484fd5b602090813d8311610a34575b610a268183612b4a565b810103126104fe57386109ea565b503d610a1c565b6040513d6000823e3d90fd5b634e487b7160e01b600052601160045260246000fd5b610a7e9060203d602011610a85575b610a768183612b4a565b810190612db1565b50386108f6565b503d610a6c565b509091925b6105de565b506064811061084c565b600381959293949514600014610af95750600854600754610af39160243560011c91610ada9183916001600160a01b0390811691166132ad565b506007546008546001600160a01b0390811691166132ad565b506105de565b60048103610e44575060405160c081018181106001600160401b03821117610e2e5780604052610b2881612add565b6008546001600160a01b03908116808352600754821660e085015260095490911661010084015261012083018190526040519091610b6582612af8565b60648252610bb89182602082015282604082015260405191610b8683612b13565b82526020820152835260405191610b9c83612add565b8083526010546001600160a01b039081166020850152600a541660408085018290526060850183905251909390610bd281612af8565b83815283602082015283604082015260405191610bee83612b13565b825260208201526020850152604051610c0681612add565b8181526011546001600160a01b0316602082015260408082018590526060820183905251610c3381612af8565b83815283602082015283604082015260405191610c4f83612b13565b825260208201526040850152604051610c6781612add565b8181526012546001600160a01b0316602082015260408082018590526060820183905251610c9481612af8565b83815283602082015283604082015260405191610cb083612b13565b825260208201526060850152604051610cc881612add565b8181526013546001600160a01b0316602082015260408082018590526060820183905251610cf581612af8565b83815283602082015283604082015260405191610d1183612b13565b82526020820152608085015260405192610d2a84612add565b81845260018060a01b036015541660208501526040840152606083015260405190610d5482612af8565b808252806020830152604082015260405191610d6f83612b13565b8252602082015260a0820152600642066006811015610e1a5760051b015180518051602091820151918301805151610af3949362ffffff93610df292610dc99260243592918716916001600160a01b0391821691166135df565b84516020808201516040909201518551909101518616916001600160a01b0391821691166135df565b925160408082015160609092015192510151909216916001600160a01b0391821691166135df565b634e487b7160e01b86526032600452602486fd5b634e487b7160e01b600052604160045260246000fd5b60058103610e585750610a91602435613273565b60068103610e815750600854600754610af391602435916001600160a01b0390811691166132ad565b60078103610e955750610a91602435613273565b60088103610ee05750600954600a54610af39160243560011c91610ec79183916001600160a01b039081169116613463565b50600a546009546001600160a01b039081169116613463565b600903610a9157600854600754610f0791602435916001600160a01b0390811691166132ad565b506007546040516370a0823160e01b8152306004820152906001600160a01b0316602082602481845afa9081156107b1578691611060575b600a54610f5693506001600160a01b031690613463565b50600a546040516370a0823160e01b8152306004820152906001600160a01b0316602082602481845afa9081156107b157869161102a575b600954610fa593506001600160a01b031690613463565b506009546040516370a0823160e01b8152306004820152906001600160a01b0316602082602481845afa9081156107b1578691610ff4575b600854610af393506001600160a01b031690613463565b90506020823d602011611022575b8161100f60209383612b4a565b810103126104fe57610af3915190610fdd565b3d9150611002565b90506020823d602011611058575b8161104560209383612b4a565b810103126104fe57610fa5915190610f8e565b3d9150611038565b90506020823d60201161108e575b8161107b60209383612b4a565b810103126104fe57610f56915190610f3f565b3d915061106e565b9092506020813d6020116110c2575b816110b260209383612b4a565b810103126104fe575191386105c6565b3d91506110a5565b6040513d86823e3d90fd5b8280fd5b5080fd5b60405162461bcd60e51b81526020600482015260086024820152674e6f74204161766560c01b6044820152606490fd5b5034610503576020366003190112610503576111276129d0565b61112f612be0565b6001600160a01b0390811690811561118457600054826bffffffffffffffffffffffff60a01b821617600055167f8be0079c531659141344cd1fd0a4f28419497f9722a3daafe3b4186f6b6457e0600080a380f35b604051631e4fbdf760e01b815260048101849052602490fd5b5034610503576080366003190112610503576001600160401b036004358181116110d557366023820112156110d55780600401356111da81612b6b565b916111e86040519384612b4a565b81835260209160248385019160051b8301019136831161151457602401905b8282106115685750505060243583811161156457611229903690600401612b82565b9260443581811161156057611242903690600401612b82565b9060643590808211611514573660238301121561151457816004013590811161154c57866040519261127d86601f19601f8601160185612b4a565b8284528584019236602482840101116110d5578060248893018537840101526112a4612d2b565b6019546001600160a01b0392908316330361151857808591518101031261151457519260ff84169485850361151057826112e06112e892612d4e565b511696612d4e565b5194604051936370a0823160e01b9182865230600487015283866024818c5afa9586156114c7578a966114e0575b506001146114d2575b6040519482865230600487015283866024818c5afa9586156114c7578a96611494575b50906113916113608361135a6113b0958a1015612eed565b88612da4565b966106776127106113736003548b612d71565b048c818061147b575b505061067261138a86612d4e565b518d612c49565b6113a96113a2866019541692612d4e565b5189612c49565b9089612f70565b60405190815230600482015281816024818a5afa91821561147057889261143a575b505090817fe353aaf2b0009460952086ead25cb12a74b4e9e1d8bc70b75ad07701d36c25319661072e9493611425575b5050506040519384938460409194939260ff606083019616825260208201520152565b6114329289541690612f70565b388080611402565b908094939250813d8311611469575b6114538183612b4a565b810103126104fe5791519091908561072e6113d2565b503d611449565b6040513d8a823e3d90fd5b61148d918b60025460081c1690612f70565b8c8161137c565b919095508382813d83116114c0575b6114ad8183612b4a565b810103126104fe57905194611391611342565b503d6114a3565b6040513d8c823e3d90fd5b6114db87612fb3565b61131f565b9095508381813d8311611509575b6114f88183612b4a565b810103126104fe5751946001611316565b503d6114ee565b8780fd5b8680fd5b60405162461bcd60e51b815260048101869052600c60248201526b2737ba102130b630b731b2b960a11b6044820152606490fd5b634e487b7160e01b87526041600452602487fd5b8580fd5b8480fd5b81356001600160a01b03811681036104fe578152908301908301611207565b50346105035780600319360112610503576025546040516001600160a01b039091168152602090f35b50346105035780600319360112610503576012546040516001600160a01b039091168152602090f35b50346105035780600319360112610503576016546040516001600160a01b039091168152602090f35b5034610503578060031936011261050357601f546040516001600160a01b039091168152602090f35b50346105035780600319360112610503576014546040516001600160a01b039091168152602090f35b50346105035780600319360112610503576020600654604051908152f35b50346105035780600319360112610503576007546040516001600160a01b039091168152602090f35b50346105035780600319360112610503576017546040516001600160a01b039091168152602090f35b50346105035780600319360112610503576019546040516001600160a01b039091168152602090f35b50346105035780600319360112610503576023546040516001600160a01b039091168152602090f35b5034610503578060031936011261050357600a546040516001600160a01b039091168152602090f35b503461050357602060031981813601126110d5576004359161175f612be0565b611767612d2b565b821515806118f7575b61177990612c0c565b61179361178b60065460055490612c49565b421015612c56565b42600655604051926117a484612b13565b60019384815282810193833686376008546001600160a01b03959086166117ca84612d4e565b52604051946117d886612b13565b87865280860194813687376117ec87612d4e565b5286601954169560405194898387015282865261180886612b13565b873b156118f3579695949392908a9860405198632e1c224f60e11b8a5260848a01903060048c0152608060248c01525180915260a48a0193918b905b8d8383106118d857505050505087820384016044890152518082529082019491885b8a8382106118c3575050505050858561188e8583979583979584809703016064850152612c94565b03925af180156118b8576118a4575b5050805580f35b6118ad90612aae565b6110d957813861189d565b6040513d84823e3d90fd5b845188528c9a50968201969382019301611866565b8451821687528f9d5095870195938701939190910190611844565b8a80fd5b50600454831115611770565b50346105035760203660031901126105035761191d6129d0565b50611926612be0565b80f35b50346105035760403660031901126105035761191d6129d0565b50346105035780600319360112610503576015546040516001600160a01b039091168152602090f35b503461050357610140366003190112610503576119876129d0565b506119906129e6565b6119986129fc565b6119a0612a12565b6119a8612a28565b6119b0612a3e565b6119b8612a54565b916119c1612a6a565b936119ca612a80565b956119d3612a97565b976119dc612be0565b601b80546001600160a01b03199081166001600160a01b0393841617909155601c8054821693831693909317909255601d8054831693821693909317909255601e8054821693831693909317909255601f805483169382169390931790925560208054821693831693909317909255602180548316938216939093179092556022805482169383169390931790925560238054909216921691909117905580f35b50346105035760203660031901126105035780600435611a9b612be0565b611aa3612d2b565b80151580611b36575b611ab590612c0c565b60018060a01b038060185416906008541690604051906003602083015260208252611adf82612b13565b803b1561156457611b0b93858094604051968795869485936310ac2ddf60e21b85523060048601612cd4565b03925af180156118b857611b22575b506001805580f35b611b2b90612aae565b610503578038611b1a565b50600454811115611aac565b5034610503578060031936011261050357546040516001600160a01b039091168152602090f35b50346105035780600319360112610503576008546040516001600160a01b039091168152602090f35b503461050357602036600319011261050357611bac612be0565b60043560055580f35b5034610503578060031936011261050357601e546040516001600160a01b039091168152602090f35b5034610503578060031936011261050357600f546040516001600160a01b039091168152602090f35b5034610503578060031936011261050357600d546040516001600160a01b039091168152602090f35b5034610503578060031936011261050357600e546040516001600160a01b039091168152602090f35b50346105035760203660031901126105035780600435611c77612be0565b611c7f612d2b565b80151580611cbb575b611c9190612c0c565b60018060a01b038060185416906008541690604051906006602083015260208252611adf82612b13565b50600454811115611c88565b5034610503578060031936011261050357611ce0612be0565b600080546001600160a01b0319811682556001600160a01b03167f8be0079c531659141344cd1fd0a4f28419497f9722a3daafe3b4186f6b6457e08280a380f35b503461050357602036600319011261050357611d3b6129d0565b611d43612be0565b81546040516370a0823160e01b8152306004820152916001600160a01b039081169116602083602481855afa9182156110ca578492611d87575b6119269350612f70565b91506020833d8211611db4575b81611da160209383612b4a565b810103126104fe57611926925191611d7d565b3d9150611d94565b50346105035760203660031901126105035780600435611dda612be0565b611de2612d2b565b80151580611e1e575b611df490612c0c565b60018060a01b038060185416906008541690604051906004602083015260208252611adf82612b13565b50600454811115611deb565b50346105035780600319360112610503576013546040516001600160a01b039091168152602090f35b5034610503578060031936011261050357602080546040516001600160a01b039091168152f35b503461050357806003193601126105035760025460405160089190911c6001600160a01b03168152602090f35b5034610503578060031936011261050357600c546040516001600160a01b039091168152602090f35b5034610503578060031936011261050357602060ff600254166040519015158152f35b50346105035760203660031901126105035780600435611f11612be0565b611f19612d2b565b80151580611f55575b611f2b90612c0c565b60018060a01b038060185416906008541690604051906007602083015260208252611adf82612b13565b50600454811115611f22565b5034610503578060031936011261050357601d546040516001600160a01b039091168152602090f35b50346105035780600319360112610503576011546040516001600160a01b039091168152602090f35b50346105035780600319360112610503576009546040516001600160a01b039091168152602090f35b50346105035760203660031901126105035780600435611ffa612be0565b612002612d2b565b8015158061203e575b61201490612c0c565b60018060a01b038060185416906008541690604051906005602083015260208252611adf82612b13565b5060045481111561200b565b503461050357602036600319011261050357612064612be0565b60043560045580f35b50346105035780600319360112610503576040517f00000000000000000000000000000000000000000000000000000000000000006001600160a01b03168152602090f35b5034610503578060031936011261050357600b546040516001600160a01b039091168152602090f35b5034610503576060366003190112610503576120f56129d0565b906120fe6129e6565b9160443561210a612be0565b612112612d2b565b61211a612d0d565b80151580612513575b61212c90612c0c565b61213e61178b60065460055490612c49565b426006556040516323b872dd60e01b60208083019190915233602483015230604483015260648083018490528252926001600160a01b038181169260a08101906001600160401b03821181831017610e2e5761219d9160405284612e91565b6121a88488846132ad565b506040516370a0823160e01b80825230600483015288831698909187816024818d5afa9081156124475789916124e6575b506101ef8082029082820414821517156124d257612206916103e86121ff920490612da4565b85836132ad565b5060405198828a523060048b0152878a602481895afa998a1561244757899a6124a3575b506040519283523060048401528783602481845afa92831561244757908492918a94612470575b5086109485156124695780955b156124615750935b1693841497881561245a5780985b156124525750905b601a5460405163095ea7b360e01b8082529183166001600160a01b03166004820152602481018a905290939087816044818c8a5af180156124475784928992859261242a575b50601a5460405197885285166001600160a01b0316600488015260248701939093529091169390816044818b885af180156114705761240d575b50601a54169661012c4201928342116123f9579287989260809592612389956040519461232886612ac1565b85528985015260646040850152620d89b3196060850152620d89b48785015260a084015260c08301528760e08301528761010083015261dead610120830152610140820152604051968780948193634418b22b60e11b835260048301612e04565b03925af19283156110ca577fbb878be59bbf318caf3828b994ee9bbdb2d9b03c63ee4f98c6eab2ac9dcdf05a936123ca575b50604051908152a16001805580f35b6123ea9060803d81116123f2575b6123e28183612b4a565b810190612dc9565b5050506123bb565b503d6123d8565b634e487b7160e01b88526011600452602488fd5b61242390873d8911610a8557610a768183612b4a565b50386122fc565b61244090843d8611610a8557610a768183612b4a565b50386122c2565b6040513d8b823e3d90fd5b90509061227c565b8198612274565b905093612266565b819561225e565b89809295508194503d831161249c575b61248a8183612b4a565b810103126104fe578391519238612251565b503d612480565b9099508781813d83116124cb575b6124bb8183612b4a565b810103126104fe5751983861222a565b503d6124b1565b634e487b7160e01b8a52601160045260248afd5b90508781813d831161250c575b6124fd8183612b4a565b810103126104fe5751386121d9565b503d6124f3565b50600454811115612123565b50346105035780600319360112610503576022546040516001600160a01b039091168152602090f35b50346105035780600319360112610503576020600354604051908152f35b50346105035780600319360112610503576021546040516001600160a01b039091168152602090f35b503461050357602036600319011261050357806004356125ad612be0565b6125b5612d2b565b801515806125f1575b6125c790612c0c565b60018060a01b038060185416906008541690604051906009602083015260208252611adf82612b13565b506004548111156125be565b5034610503576020366003190112610503578060043561261b612be0565b612623612d2b565b8015158061265f575b61263590612c0c565b60018060a01b038060185416906009541690604051906008602083015260208252611adf82612b13565b5060045481111561262c565b503461050357602036600319011261050357600435612688612be0565b603281116126965760035580f35b60405162461bcd60e51b81526020600482015260086024820152674d617820302e352560c01b6044820152606490fd5b5034610503578060031936011261050357601a546040516001600160a01b039091168152602090f35b50346105035780600319360112610503576010546040516001600160a01b039091168152602090f35b50346105035780600319360112610503576024546040516001600160a01b039091168152602090f35b5034610503576020366003190112610503578060043561275f612be0565b612767612d2b565b61276f612d0d565b801515806127c1575b61278190612c0c565b61279361178b60065460055490612c49565b4260065560018060a01b038060185416906008541690604051906001602083015260208252611adf82612b13565b50600454811115612778565b50346105035780600319360112610503576020600454604051908152f35b5034610503576060366003190112610503576128056129d0565b61280d6129e6565b6128156129fc565b61281d612be0565b60018060a01b038092816bffffffffffffffffffffffff60a01b9516856018541617601855168360195416176019551690601a541617601a5580f35b5034610503578060031936011261050357601c546040516001600160a01b039091168152602090f35b50346105035760203660031901126105035760043561289f612be0565b6128a7612d2b565b6128af612d0d565b80151580612956575b6128c190612c0c565b6128d361178b60065460055490612c49565b426006558160018060a01b0391826018541692600854169260405191600260208401526020835261290383612b13565b813b15612952578361292d95604051968795869485936310ac2ddf60e21b85523060048601612cd4565b03925af180156118b85761294357506001805580f35b61294c90612aae565b38611b1a565b8380fd5b506004548111156128b8565b50346105035780600319360112610503576018546040516001600160a01b039091168152602090f35b5034610503578060031936011261050357601b546040516001600160a01b039091168152602090f35b9050346110d957816003193601126110d9576020906005548152f35b600435906001600160a01b03821682036104fe57565b602435906001600160a01b03821682036104fe57565b604435906001600160a01b03821682036104fe57565b606435906001600160a01b03821682036104fe57565b608435906001600160a01b03821682036104fe57565b60a435906001600160a01b03821682036104fe57565b60c435906001600160a01b03821682036104fe57565b60e435906001600160a01b03821682036104fe57565b61010435906001600160a01b03821682036104fe57565b61012435906001600160a01b03821682036104fe57565b6001600160401b038111610e2e57604052565b61016081019081106001600160401b03821117610e2e57604052565b608081019081106001600160401b03821117610e2e57604052565b606081019081106001600160401b03821117610e2e57604052565b604081019081106001600160401b03821117610e2e57604052565b61010081019081106001600160401b03821117610e2e57604052565b90601f801991011681019081106001600160401b03821117610e2e57604052565b6001600160401b038111610e2e5760051b60200190565b81601f820112156104fe57803591612b9983612b6b565b92612ba76040519485612b4a565b808452602092838086019260051b8201019283116104fe578301905b828210612bd1575050505090565b81358152908301908301612bc3565b6000546001600160a01b03163303612bf457565b60405163118cdaa760e01b8152336004820152602490fd5b15612c1357565b60405162461bcd60e51b815260206004820152600e60248201526d125b9d985b1a5908185b5bdd5b9d60921b6044820152606490fd5b91908201809211610a4757565b15612c5d57565b60405162461bcd60e51b815260206004820152600f60248201526e436f6f6c646f776e2061637469766560881b6044820152606490fd5b919082519283825260005b848110612cc0575050826000602080949584010152601f8019910116010190565b602081830181015184830182015201612c9f565b9493600093612d089260809460018060a01b038092168952166020880152604087015260a0606087015260a0860190612c94565b930152565b60ff60025416612d1957565b60405163d93c066560e01b8152600490fd5b600260015414612d3c576002600155565b604051633ee5aeb560e01b8152600490fd5b805115612d5b5760200190565b634e487b7160e01b600052603260045260246000fd5b81810292918115918404141715610a4757565b8115612d8e570490565b634e487b7160e01b600052601260045260246000fd5b91908203918211610a4757565b908160209103126104fe575180151581036104fe5790565b91908260809103126104fe5781519160208101516fffffffffffffffffffffffffffffffff811681036104fe57916060604083015192015190565b91909161016081019260018060a01b0380825116835280602083015116602084015262ffffff6040830151166040840152606082015160020b6060840152608082015160020b608084015260a082015160a084015260c082015160c084015260e082015160e084015261010080830151908401526101209081830151169083015261014080910151910152565b906000602091828151910182855af115610a3b576000513d612ee457506001600160a01b0381163b155b612ec25750565b604051635274afe760e01b81526001600160a01b039091166004820152602490fd5b60011415612ebb565b15612ef457565b60405162461bcd60e51b8152602060048201526009602482015268139bc81c1c9bd99a5d60ba1b6044820152606490fd5b15612f2c57565b606460405162461bcd60e51b815260206004820152602060248201527f496e73756666696369656e742066756e647320666f722072657061796d656e746044820152fd5b60405163a9059cbb60e01b60208201526001600160a01b03929092166024830152604480830193909352918152612fb191612fac606483612b4a565b612e91565b565b9060018060a01b03612fcf8382600854168360075416906132ad565b5080600754169260408051926370a0823160e01b80855260049630888701526020958681602481855afa90811561322657600091613246575b506101ef8082029082820414821517156132315761303b92916103e861302f920490612da4565b908460085416906132ad565b5081600754169183519180835230898401528683602481875afa928315613226576000936131f7575b508160085416928551918252308a8301528782602481875afa9182156131ec576000926131bd575b5082601a54169380861095866000146131b65780965b156131ae5750925b61012c4201938442116131995791816080979695936131349d95938a51986130d18a612ac1565b168852168a870152606488870152620d89b3196060870152620d89b48787015260a086015260c0850152600060e0850152600061010085015261dead61012085015261014084015260008551809a81958294634418b22b60e11b84528301612e04565b03925af194851561318e577fbb878be59bbf318caf3828b994ee9bbdb2d9b03c63ee4f98c6eab2ac9dcdf05a949561316f575b5051908152a1565b6131869060803d81116123f2576123e28183612b4a565b505050613167565b50513d6000823e3d90fd5b60118c634e487b7160e01b6000525260246000fd5b9050926130aa565b81966130a2565b90918882813d83116131e5575b6131d48183612b4a565b81010312610503575051903861308c565b503d6131ca565b86513d6000823e3d90fd5b90928782813d831161321f575b61320e8183612b4a565b810103126105035750519138613064565b503d613204565b85513d6000823e3d90fd5b60118a634e487b7160e01b6000525260246000fd5b908782813d831161326c575b61325c8183612b4a565b8101031261050357505138613008565b503d613252565b600854600a546132aa9260011c916001600160a01b039161329a9184918416908416613463565b50600a5460085482169116613463565b50565b906132b98382846137ce565b6040805163095ea7b360e01b81526001600160a01b037f0000000000000000000000000000000000000000000000000000000000000000811660048301526024820187905291959490911693906020816044816000895af180156131ec57613444575b5061012c4201804211610a475785519461333586612b2e565b85526001600160a01b03938416602080870191825260648888018181523060608a0190815260808a0195865260a08a0196875260c08a01978852600060e08b018181528c5163414bf38960e01b81529b518b1660048d015295518a1660248c0152915162ffffff1660448b01525188169189019190915292516084880152925160a4870152925160c48601529151831660e4850152918391610104918391907f0000000000000000000000000000000000000000000000000000000000000000165af191821561343a575060009161340b575090565b90506020813d602011613432575b8161342660209383612b4a565b810103126104fe575190565b3d9150613419565b513d6000823e3d90fd5b61345c9060203d602011610a8557610a768183612b4a565b503861331c565b9061346f8382846137ce565b6040805163095ea7b360e01b81526001600160a01b037f0000000000000000000000000000000000000000000000000000000000000000811660048301526024820187905291959490911693906020816044816000895af180156131ec576135c0575b5061012c4201804211610a47578551946134eb86612b2e565b85526001600160a01b039384166020808701918252610bb888880190815230606089019081526080890194855260a0890195865260c08901968752600060e08a018181528b5163414bf38960e01b81529a518a1660048c01529451891660248b0152915162ffffff1660448a0152518716606489015292516084880152925160a4870152925160c48601529151831660e4850152918391610104918391907f0000000000000000000000000000000000000000000000000000000000000000165af191821561343a575060009161340b575090565b6135d89060203d602011610a8557610a768183612b4a565b50386134d2565b92906135ec8282866137ce565b60405163095ea7b360e01b81527f00000000000000000000000000000000000000000000000000000000000000006001600160a01b03166004820152602481018490529093906020818060448101038160006001600160a01b038b165af18015610a3b57613752575b5061012c42014211610a475762ffffff916040519561367387612b2e565b6001600160a01b039081168752908116602080880191825293909216604080880191825230606089019081524261012c0160808a0190815260a08a0197885260c08a01988952600060e08b01818152935163414bf38960e01b81529a51861660048c01529551851660248b0152925162ffffff1660448a0152518316606489015290516084880152935160a4870152935160c48601529151831660e4850152918391610104918391907f0000000000000000000000000000000000000000000000000000000000000000165af1908115610a3b5760009161340b575090565b61376a9060203d602011610a8557610a768183612b4a565b5038613655565b519069ffffffffffffffffffff821682036104fe57565b908160a09103126104fe5761379c81613771565b916020820151916040810151916137ba608060608401519301613771565b90565b60ff16604d8111610a4757600a0a90565b6137d781613a0a565b926137e183613a0a565b6001600160a01b039485169290919083158015613a00575b6139f557604080519687958695633fabe5a360e21b9182885260a098899160049c8d915afa9182156139ea57908a89926000998a956139c2575b50865195869384928352165afa9182156139b757600097889361397e575b50506000861380613974575b1561393957610e0f1942019042821161323157811115918261392e575b5050156138f657506138c594936138b46138bf946138af6138a4956138a96138a46138b997613b1e565b6137bd565b90612d71565b612d71565b612d84565b92613b1e565b90612d84565b906063820291808304606314901517156138e157506064900490565b601190634e487b7160e01b6000525260246000fd5b5162461bcd60e51b815260208188015260136024820152725374616c65206f7261636c652070726963657360681b6044820152606490fd5b10159050388061387a565b825162461bcd60e51b81526020818b01526015602482015274496e76616c6964206f7261636c652070726963657360581b6044820152606490fd5b506000871361385d565b80919298506139a29350903d106139b0575b61399a8183612b4a565b810190613788565b509792505095903880613851565b503d613990565b83513d6000823e3d90fd5b9094506139dd919950833d85116139b05761399a8183612b4a565b509a925050989338613833565b84513d6000823e3d90fd5b505050505050600090565b50858316156137f9565b6007546001600160a01b039182169082168114613b165781600954168114613b0e5781600a54168114613b065781601054168114613afe5781601154168114613af65781601254168114613aee5781601354168114613ae65781601454168114613ade5781601554168114613ad65781601654168114613ace57816017541614613ac75760405162461bcd60e51b81526020600482015260116024820152702ab739bab83837b93a32b2103a37b5b2b760791b6044820152606490fd5b6025541690565b506024541690565b506023541690565b506022541690565b506021541690565b506020541690565b50601f541690565b50601e541690565b50601d541690565b50601c541690565b50601b541690565b6008546001600160a01b039182169190811682148015613c3b575b613c345780600954168214613c2d5780600a541682148015613c20575b8015613c13575b8015613c06575b8015613bf9575b8015613bec575b8015613bdf575b8015613bd2575b613bcb576017541614613bc65760405162461bcd60e51b81526020600482015260116024820152702ab739bab83837b93a32b2103a37b5b2b760791b6044820152606490fd5b600590565b5050601290565b5080601654168214613b80565b5080601554168214613b79565b5080601454168214613b72565b5080601354168214613b6b565b5080601254168214613b64565b5080601154168214613b5d565b5080601054168214613b56565b5050600890565b5050600690565b5080600754168214613b3956fea2646970667358221220d52c772bc330228d66e380396cbb1bfbfba8d6014c83c3307c09bd399ab702a064736f6c63430008140033","opcodes":"PUSH1 0xA0 CALLVALUE PUSH3 0x4B0 JUMPI PUSH1 0x1F PUSH3 0x415F CODESIZE DUP2 SWAP1 SUB SWAP2 DUP3 ADD PUSH1 0x1F NOT AND DUP4 ADD SWAP2 PUSH1 0x1 PUSH1 0x1 PUSH1 0x40 SHL SUB DUP4 GT DUP5 DUP5 LT OR PUSH3 0x4B5 JUMPI DUP1 DUP5 SWAP3 PUSH1 0x40 SWAP5 DUP6 MSTORE DUP4 CODECOPY DUP2 ADD SUB SLT PUSH3 0x4B0 JUMPI PUSH3 0x5A PUSH1 0x20 PUSH3 0x52 DUP4 PUSH3 0x4CB JUMP JUMPDEST SWAP3 ADD PUSH3 0x4CB JUMP JUMPDEST CALLER ISZERO PUSH3 0x497 JUMPI PUSH1 0x0 DUP1 SLOAD PUSH1 0x1 PUSH1 0x1 PUSH1 0xA0 SHL SUB NOT DUP1 DUP3 AND CALLER SWAP1 DUP2 OR DUP5 SSTORE PUSH1 0x40 MLOAD SWAP6 PUSH1 0x1 PUSH1 0x1 PUSH1 0xA0 SHL SUB SWAP5 SWAP1 SWAP4 DUP6 AND SWAP1 PUSH32 0x8BE0079C531659141344CD1FD0A4F28419497F9722A3DAAFE3B4186F6B6457E0 SWAP1 DUP1 LOG3 PUSH1 0x1 DUP1 SSTORE PUSH1 0x5 PUSH1 0x3 SSTORE PUSH5 0xE8D4A51000 PUSH1 0x4 SSTORE PUSH1 0xF0 PUSH1 0x5 SSTORE PUSH20 0xFD086BC7CD5C481DCC9C85EBE478A1C0B69FCBB9 DUP2 PUSH1 0x7 SLOAD AND OR PUSH1 0x7 SSTORE PUSH20 0xFF970A61A04B1CA14834A43F5DE4533EBDDB5CC8 DUP2 PUSH1 0x8 SLOAD AND OR PUSH1 0x8 SSTORE PUSH20 0x2F2A2543B76A4166549F7AAB2E75BEF0AEFC5B0F DUP2 PUSH1 0x9 SLOAD AND OR PUSH1 0x9 SSTORE PUSH20 0x82AF49447D8A07E3BD95BD0D56F35241523FBAB1 DUP2 PUSH1 0xA SLOAD AND OR PUSH1 0xA SSTORE PUSH20 0xFC5A1A6EB076A2C7AD06ED22C90D7E710E35AD0A DUP2 PUSH1 0xB SLOAD AND OR PUSH1 0xB SSTORE PUSH20 0x539BDE0D7DBD336B79148AA742883198BBF60342 DUP2 PUSH1 0xC SLOAD AND OR PUSH1 0xC SSTORE PUSH20 0x3D9907F9A368AD0A51BE60F7DA3B97CF940982D8 DUP2 PUSH1 0xD SLOAD AND OR PUSH1 0xD SSTORE PUSH20 0x3082CC23568EA640225C2467653DB90E9250AAA0 DUP2 PUSH1 0xE SLOAD AND OR PUSH1 0xE SSTORE PUSH20 0xC880F6761F1AF8D9AA9C466984B80DAB9A8C9E8 DUP2 PUSH1 0xF SLOAD AND OR PUSH1 0xF SSTORE PUSH20 0xF97F4DF75117A78C1A5A0DBB814AF92458539FB4 DUP2 PUSH1 0x10 SLOAD AND OR PUSH1 0x10 SSTORE DUP1 PUSH1 0x11 SLOAD AND PUSH1 0x11 SSTORE PUSH20 0xBA5DDD1F9D7F570DC94A51479A000E3BCE967196 DUP2 PUSH1 0x12 SLOAD AND OR PUSH1 0x12 SSTORE PUSH20 0x912CE59144191C1204E64559FE8253A0E49E6548 DUP2 PUSH1 0x13 SLOAD AND OR PUSH1 0x13 SSTORE PUSH20 0x13AD51ED4F1B7E9DC168D8A00CB3F4DDD85EFA60 DUP2 PUSH1 0x14 SLOAD AND OR PUSH1 0x14 SSTORE PUSH20 0x11CDB42B0EB46D95F990BEDD4695A6E3FA034978 DUP2 PUSH1 0x15 SLOAD AND OR PUSH1 0x15 SSTORE PUSH20 0x25D887CE7A35172C62FEBFD67A1856F20FAEBB00 DUP2 PUSH1 0x16 SLOAD AND OR PUSH1 0x16 SSTORE PUSH20 0x9199D9A5F4448D0848E4395D065E1A1C5A5263F DUP2 PUSH1 0x17 SLOAD AND OR PUSH1 0x17 SSTORE PUSH20 0x794A61358D6845594F94DC1DB02A252B5B4814AD DUP2 PUSH1 0x18 SLOAD AND OR PUSH1 0x18 SSTORE PUSH20 0xBA12222222228D8BA445958A75A0704D566BF2C8 DUP2 PUSH1 0x19 SLOAD AND OR PUSH1 0x19 SSTORE PUSH20 0xC36442B4A4522E871399CD717ABDD847AB11FE88 DUP2 PUSH1 0x1A SLOAD AND OR PUSH1 0x1A SSTORE PUSH20 0x3F3F5DF88DC9F13EAC63DF89EC16EF6E7E25DDE7 DUP2 PUSH1 0x1B SLOAD AND OR PUSH1 0x1B SSTORE PUSH20 0x6CE185860A4963106506C203335A2910413708E9 DUP2 PUSH1 0x1C SLOAD AND OR PUSH1 0x1C SSTORE PUSH20 0x639FE6AB55C921F74E7FAC1EE960C0B6293BA612 DUP2 PUSH1 0x1D SLOAD AND OR PUSH1 0x1D SSTORE PUSH20 0x86E53CF1B870786351165D955B07ED0F7F4C3D2B DUP2 PUSH1 0x1E SLOAD AND OR PUSH1 0x1E SSTORE PUSH20 0x9C917083FDB403AB5ADBEC26EE294F6ECADA2720 DUP2 PUSH1 0x1F SLOAD AND OR PUSH1 0x1F SSTORE PUSH20 0xAD1D5344AADE45F43E596773BCC4C423EABDD034 DUP2 PUSH1 0x20 SLOAD AND OR PUSH1 0x20 SSTORE PUSH20 0xB2A824043730FE05F3DA2EFAFA1CBBE83FA548D6 DUP2 PUSH1 0x21 SLOAD AND OR PUSH1 0x21 SSTORE PUSH20 0xA43A34030088E6510EECF95376B516FCE9B74B57 DUP2 PUSH1 0x22 SLOAD AND OR PUSH1 0x22 SSTORE PUSH20 0xAEBDA2C976CFD1EE1977EAC079B4382ACB849325 DUP2 PUSH1 0x23 SLOAD AND OR PUSH1 0x23 SSTORE DUP1 PUSH1 0x24 SLOAD AND PUSH1 0x24 SSTORE PUSH1 0x25 SLOAD AND PUSH1 0x25 SSTORE AND PUSH1 0x80 MSTORE PUSH1 0x2 SLOAD SWAP1 PUSH2 0x100 PUSH1 0x1 PUSH1 0xA8 SHL SUB SWAP1 PUSH1 0x8 SHL AND SWAP1 PUSH2 0x100 PUSH1 0x1 PUSH1 0xA8 SHL SUB NOT AND OR PUSH1 0x2 SSTORE PUSH2 0x3C7E SWAP1 DUP2 PUSH3 0x4E1 DUP3 CODECOPY PUSH1 0x80 MLOAD DUP2 DUP2 DUP2 PUSH2 0x8B0 ADD MSTORE DUP2 DUP2 PUSH2 0x9BD ADD MSTORE DUP2 DUP2 PUSH2 0x2083 ADD MSTORE DUP2 DUP2 PUSH2 0x32D1 ADD MSTORE DUP2 DUP2 PUSH2 0x33D6 ADD MSTORE DUP2 DUP2 PUSH2 0x3487 ADD MSTORE DUP2 DUP2 PUSH2 0x358B ADD MSTORE DUP2 DUP2 PUSH2 0x35FB ADD MSTORE PUSH2 0x371E ADD MSTORE RETURN JUMPDEST PUSH1 0x40 MLOAD PUSH4 0x1E4FBDF7 PUSH1 0xE0 SHL DUP2 MSTORE PUSH1 0x0 PUSH1 0x4 DUP3 ADD MSTORE PUSH1 0x24 SWAP1 REVERT JUMPDEST PUSH1 0x0 DUP1 REVERT JUMPDEST PUSH4 0x4E487B71 PUSH1 0xE0 SHL PUSH1 0x0 MSTORE PUSH1 0x41 PUSH1 0x4 MSTORE PUSH1 0x24 PUSH1 0x0 REVERT JUMPDEST MLOAD SWAP1 PUSH1 0x1 PUSH1 0x1 PUSH1 0xA0 SHL SUB DUP3 AND DUP3 SUB PUSH3 0x4B0 JUMPI JUMP INVALID PUSH1 0x80 DUP1 PUSH1 0x40 MSTORE PUSH1 0x4 CALLDATASIZE LT ISZERO PUSH2 0x1D JUMPI JUMPDEST POP CALLDATASIZE ISZERO PUSH2 0x1B JUMPI PUSH1 0x0 DUP1 REVERT JUMPDEST STOP JUMPDEST PUSH1 0x0 SWAP1 DUP2 CALLDATALOAD PUSH1 0xE0 SHR SWAP1 DUP2 PUSH4 0x4646A49 EQ PUSH2 0x29B4 JUMPI POP DUP1 PUSH4 0x7A79FC7 EQ PUSH2 0x298B JUMPI DUP1 PUSH4 0x8A01675 EQ PUSH2 0x2962 JUMPI DUP1 PUSH4 0x8A5D1FC EQ PUSH2 0x2882 JUMPI DUP1 PUSH4 0x9EAED95 EQ PUSH2 0x2859 JUMPI DUP1 PUSH4 0x1056305E EQ PUSH2 0x27EB JUMPI DUP1 PUSH4 0x10FA79E2 EQ PUSH2 0x27CD JUMPI DUP1 PUSH4 0x13C89EFE EQ PUSH2 0x2741 JUMPI DUP1 PUSH4 0x193EF709 EQ PUSH2 0x2718 JUMPI DUP1 PUSH4 0x1B6B6D23 EQ PUSH2 0x26EF JUMPI DUP1 PUSH4 0x1BEA83FE EQ PUSH2 0x26C6 JUMPI DUP1 PUSH4 0x1C75B6B2 EQ PUSH2 0x266B JUMPI DUP1 PUSH4 0x20C0A630 EQ PUSH2 0x25FD JUMPI DUP1 PUSH4 0x2B2D1534 EQ PUSH2 0x258F JUMPI DUP1 PUSH4 0x2E56802C EQ PUSH2 0x2566 JUMPI DUP1 PUSH4 0x3175E026 EQ PUSH2 0x2548 JUMPI DUP1 PUSH4 0x32E0EBB2 EQ PUSH2 0x251F JUMPI DUP1 PUSH4 0x3AD396B2 EQ PUSH2 0x20DB JUMPI DUP1 PUSH4 0x438DBD32 EQ PUSH2 0x20B2 JUMPI DUP1 PUSH4 0x4B083BB6 EQ PUSH2 0x206D JUMPI DUP1 PUSH4 0x4B3F3378 EQ PUSH2 0x204A JUMPI DUP1 PUSH4 0x4D321338 EQ PUSH2 0x1FDC JUMPI DUP1 PUSH4 0x4DEDE3DE EQ PUSH2 0x1FB3 JUMPI DUP1 PUSH4 0x541BCB76 EQ PUSH2 0x1F8A JUMPI DUP1 PUSH4 0x552672B4 EQ PUSH2 0x1F61 JUMPI DUP1 PUSH4 0x580CB3B4 EQ PUSH2 0x1EF3 JUMPI DUP1 PUSH4 0x5C975ABB EQ PUSH2 0x1ED0 JUMPI DUP1 PUSH4 0x5E41813D EQ PUSH2 0x1EA7 JUMPI DUP1 PUSH4 0x61D027B3 EQ PUSH2 0x1E7A JUMPI DUP1 PUSH4 0x6372B281 EQ PUSH2 0x1E53 JUMPI DUP1 PUSH4 0x64A285FD EQ PUSH2 0x1E2A JUMPI DUP1 PUSH4 0x6ECD1551 EQ PUSH2 0x1DBC JUMPI DUP1 PUSH4 0x6FF1C9BC EQ PUSH2 0x1D21 JUMPI DUP1 PUSH4 0x715018A6 EQ PUSH2 0x1CC7 JUMPI DUP1 PUSH4 0x77300223 EQ PUSH2 0x1C59 JUMPI DUP1 PUSH4 0x787739CF EQ PUSH2 0x1C30 JUMPI DUP1 PUSH4 0x7A266038 EQ PUSH2 0x1C07 JUMPI DUP1 PUSH4 0x7CF738D2 EQ PUSH2 0x1BDE JUMPI DUP1 PUSH4 0x7E26EDB1 EQ PUSH2 0x1BB5 JUMPI DUP1 PUSH4 0x80EA3DE1 EQ PUSH2 0x1B92 JUMPI DUP1 PUSH4 0x89A30271 EQ PUSH2 0x1B69 JUMPI DUP1 PUSH4 0x8DA5CB5B EQ PUSH2 0x1B42 JUMPI DUP1 PUSH4 0x8E475184 EQ PUSH2 0x1A7D JUMPI DUP1 PUSH4 0x91C63E12 EQ PUSH2 0x196C JUMPI DUP1 PUSH4 0x945C9142 EQ PUSH2 0x1943 JUMPI DUP1 PUSH4 0x9557BCEA EQ PUSH2 0x1929 JUMPI DUP1 PUSH4 0x9DA55967 EQ PUSH2 0x1903 JUMPI DUP1 PUSH4 0xA84E5850 EQ PUSH2 0x173F JUMPI DUP1 PUSH4 0xAD5C4648 EQ PUSH2 0x1716 JUMPI DUP1 PUSH4 0xB8165813 EQ PUSH2 0x16ED JUMPI DUP1 PUSH4 0xBC163846 EQ PUSH2 0x16C4 JUMPI DUP1 PUSH4 0xBFBBA317 EQ PUSH2 0x169B JUMPI DUP1 PUSH4 0xC54E44EB EQ PUSH2 0x1672 JUMPI DUP1 PUSH4 0xD5EEE8B6 EQ PUSH2 0x1654 JUMPI DUP1 PUSH4 0xD88BBA11 EQ PUSH2 0x162B JUMPI DUP1 PUSH4 0xDB9DC578 EQ PUSH2 0x1602 JUMPI DUP1 PUSH4 0xE4FBAECB EQ PUSH2 0x15D9 JUMPI DUP1 PUSH4 0xE71E6BCB EQ PUSH2 0x15B0 JUMPI DUP1 PUSH4 0xEBB92CBA EQ PUSH2 0x1587 JUMPI DUP1 PUSH4 0xF04F2707 EQ PUSH2 0x119D JUMPI DUP1 PUSH4 0xF2FDE38B EQ PUSH2 0x110D JUMPI DUP1 PUSH4 0xF3DF1253 EQ PUSH2 0x506 JUMPI PUSH4 0xF7BAA67D SUB PUSH2 0xF JUMPI CALLVALUE PUSH2 0x503 JUMPI PUSH2 0x220 CALLDATASIZE PUSH1 0x3 NOT ADD SLT PUSH2 0x503 JUMPI PUSH2 0x2F5 PUSH2 0x29D0 JUMP JUMPDEST PUSH2 0x2FD PUSH2 0x29E6 JUMP JUMPDEST PUSH2 0x305 PUSH2 0x29FC JUMP JUMPDEST PUSH2 0x30D PUSH2 0x2A12 JUMP JUMPDEST PUSH2 0x315 PUSH2 0x2A28 JUMP JUMPDEST PUSH2 0x31D PUSH2 0x2A3E JUMP JUMPDEST PUSH2 0x325 PUSH2 0x2A54 JUMP JUMPDEST PUSH2 0x32D PUSH2 0x2A6A JUMP JUMPDEST PUSH2 0x335 PUSH2 0x2A80 JUMP JUMPDEST SWAP1 PUSH2 0x33E PUSH2 0x2A97 JUMP JUMPDEST PUSH2 0x144 CALLDATALOAD SWAP5 SWAP1 SWAP4 SWAP1 PUSH1 0x1 PUSH1 0x1 PUSH1 0xA0 SHL SUB DUP7 AND DUP7 SUB PUSH2 0x4FE JUMPI PUSH2 0x164 CALLDATALOAD SWAP7 PUSH1 0x1 PUSH1 0x1 PUSH1 0xA0 SHL SUB DUP9 AND DUP9 SUB PUSH2 0x4FE JUMPI PUSH2 0x184 CALLDATALOAD SWAP9 PUSH1 0x1 PUSH1 0x1 PUSH1 0xA0 SHL SUB DUP11 AND DUP11 SUB PUSH2 0x4FE JUMPI PUSH2 0x1A4 CALLDATALOAD SWAP11 PUSH1 0x1 PUSH1 0x1 PUSH1 0xA0 SHL SUB DUP13 AND DUP13 SUB PUSH2 0x4FE JUMPI PUSH2 0x1C4 CALLDATALOAD SWAP13 PUSH1 0x1 PUSH1 0x1 PUSH1 0xA0 SHL SUB DUP15 AND DUP15 SWAP1 SUB PUSH2 0x4FE JUMPI PUSH2 0x1E4 CALLDATALOAD SWAP15 DUP16 PUSH1 0x1 DUP1 PUSH1 0xA0 SHL SUB DUP2 AND SUB PUSH2 0x4FE JUMPI PUSH2 0x204 CALLDATALOAD PUSH1 0x1 PUSH1 0x1 PUSH1 0xA0 SHL SUB DUP2 AND SWAP1 SUB PUSH2 0x4FE JUMPI PUSH2 0x3DB PUSH2 0x2BE0 JUMP JUMPDEST PUSH1 0x7 DUP1 SLOAD PUSH1 0x1 PUSH1 0x1 PUSH1 0xA0 SHL SUB NOT SWAP1 DUP2 AND PUSH1 0x1 PUSH1 0x1 PUSH1 0xA0 SHL SUB SWAP4 DUP5 AND OR SWAP1 SWAP2 SSTORE PUSH1 0x8 DUP1 SLOAD DUP3 AND SWAP4 DUP4 AND SWAP4 SWAP1 SWAP4 OR SWAP1 SWAP3 SSTORE PUSH1 0x9 DUP1 SLOAD DUP4 AND SWAP4 DUP3 AND SWAP4 SWAP1 SWAP4 OR SWAP1 SWAP3 SSTORE PUSH1 0xA DUP1 SLOAD DUP3 AND SWAP4 DUP4 AND SWAP4 SWAP1 SWAP4 OR SWAP1 SWAP3 SSTORE PUSH1 0xB DUP1 SLOAD DUP4 AND SWAP4 DUP3 AND SWAP4 SWAP1 SWAP4 OR SWAP1 SWAP3 SSTORE PUSH1 0xC DUP1 SLOAD DUP3 AND SWAP4 DUP4 AND SWAP4 SWAP1 SWAP4 OR SWAP1 SWAP3 SSTORE PUSH1 0xD DUP1 SLOAD DUP4 AND SWAP4 DUP3 AND SWAP4 SWAP1 SWAP4 OR SWAP1 SWAP3 SSTORE PUSH1 0xE DUP1 SLOAD DUP3 AND SWAP4 DUP4 AND SWAP4 SWAP1 SWAP4 OR SWAP1 SWAP3 SSTORE PUSH1 0xF DUP1 SLOAD DUP4 AND SWAP4 DUP3 AND SWAP4 SWAP1 SWAP4 OR SWAP1 SWAP3 SSTORE PUSH1 0x10 DUP1 SLOAD DUP3 AND SWAP4 DUP4 AND SWAP4 SWAP1 SWAP4 OR SWAP1 SWAP3 SSTORE PUSH1 0x11 DUP1 SLOAD DUP4 AND SWAP4 DUP3 AND SWAP4 SWAP1 SWAP4 OR SWAP1 SWAP3 SSTORE PUSH1 0x12 DUP1 SLOAD DUP3 AND SWAP4 DUP4 AND SWAP4 SWAP1 SWAP4 OR SWAP1 SWAP3 SSTORE PUSH1 0x13 DUP1 SLOAD DUP4 AND SWAP4 DUP3 AND SWAP4 SWAP1 SWAP4 OR SWAP1 SWAP3 SSTORE PUSH1 0x14 DUP1 SLOAD DUP3 AND SWAP4 DUP4 AND SWAP4 SWAP1 SWAP4 OR SWAP1 SWAP3 SSTORE PUSH1 0x15 DUP1 SLOAD DUP4 AND SWAP4 DUP3 AND SWAP4 SWAP1 SWAP4 OR SWAP1 SWAP3 SSTORE PUSH1 0x16 DUP1 SLOAD DUP3 AND SWAP4 DUP4 AND SWAP4 SWAP1 SWAP4 OR SWAP1 SWAP3 SSTORE PUSH1 0x17 DUP1 SLOAD SWAP1 SWAP3 AND PUSH2 0x204 CALLDATALOAD SWAP1 SWAP2 AND OR SWAP1 SSTORE DUP1 RETURN JUMPDEST PUSH1 0x0 DUP1 REVERT JUMPDEST DUP1 REVERT JUMPDEST POP CALLVALUE PUSH2 0x503 JUMPI PUSH1 0x60 CALLDATASIZE PUSH1 0x3 NOT ADD SLT PUSH2 0x503 JUMPI PUSH2 0x520 PUSH2 0x29D0 JUMP JUMPDEST SWAP1 PUSH1 0x44 CALLDATALOAD PUSH1 0x1 PUSH1 0x1 PUSH1 0x40 SHL SUB DUP2 GT PUSH2 0x10D9 JUMPI CALLDATASIZE PUSH1 0x23 DUP3 ADD SLT ISZERO PUSH2 0x10D9 JUMPI DUP1 PUSH1 0x4 ADD CALLDATALOAD PUSH1 0x1 PUSH1 0x1 PUSH1 0x40 SHL SUB DUP2 GT PUSH2 0x10D5 JUMPI DUP2 ADD CALLDATASIZE PUSH1 0x24 DUP3 ADD GT PUSH2 0x10D5 JUMPI PUSH2 0x564 PUSH2 0x2D2B JUMP JUMPDEST PUSH1 0x18 SLOAD PUSH1 0x1 PUSH1 0x1 PUSH1 0xA0 SHL SUB AND CALLER SUB PUSH2 0x10DD JUMPI DUP2 PUSH1 0x20 SWAP2 SUB SLT PUSH2 0x10D9 JUMPI PUSH1 0x24 DUP2 ADD CALLDATALOAD PUSH1 0xFF DUP2 AND SWAP2 SWAP1 DUP3 SWAP1 SUB PUSH2 0x10D5 JUMPI PUSH1 0x40 MLOAD PUSH4 0x70A08231 PUSH1 0xE0 SHL DUP2 MSTORE ADDRESS PUSH1 0x4 DUP3 ADD MSTORE SWAP2 PUSH1 0x20 DUP4 PUSH1 0x24 DUP2 PUSH1 0x1 PUSH1 0x1 PUSH1 0xA0 SHL SUB DUP10 AND GAS STATICCALL SWAP3 DUP4 ISZERO PUSH2 0x10CA JUMPI DUP5 SWAP4 PUSH2 0x1096 JUMPI JUMPDEST POP PUSH1 0x1 DUP2 SUB PUSH2 0x835 JUMPI POP SWAP1 SWAP2 SWAP3 PUSH2 0x5DE PUSH1 0x24 CALLDATALOAD PUSH2 0x2FB3 JUMP JUMPDEST PUSH1 0x40 MLOAD PUSH4 0x70A08231 PUSH1 0xE0 SHL DUP2 MSTORE ADDRESS PUSH1 0x4 DUP3 ADD MSTORE SWAP3 PUSH1 0x20 DUP5 PUSH1 0x24 DUP2 PUSH1 0x1 PUSH1 0x1 PUSH1 0xA0 SHL SUB DUP7 AND GAS STATICCALL SWAP4 DUP5 ISZERO PUSH2 0x82A JUMPI DUP6 SWAP5 PUSH2 0x7F4 JUMPI JUMPDEST POP DUP1 PUSH2 0x623 PUSH2 0x629 SWAP3 DUP7 LT ISZERO PUSH2 0x2EED JUMP JUMPDEST DUP5 PUSH2 0x2DA4 JUMP JUMPDEST SWAP1 PUSH2 0x2710 SWAP4 DUP5 PUSH2 0x63B PUSH1 0x3 SLOAD DUP6 PUSH2 0x2D71 JUMP JUMPDEST DIV SWAP1 DUP2 PUSH2 0x7D0 JUMPI JUMPDEST PUSH1 0x24 CALLDATALOAD SWAP6 PUSH1 0x9 DUP8 MUL DUP8 DUP2 DIV PUSH1 0x9 EQ DUP9 ISZERO OR ISZERO PUSH2 0x7BC JUMPI SWAP2 PUSH2 0x677 PUSH2 0x67E SWAP3 PUSH2 0x6A5 SWAP6 SWAP5 DIV SWAP4 PUSH2 0x672 DUP6 DUP12 PUSH2 0x2C49 JUMP JUMPDEST PUSH2 0x2C49 JUMP JUMPDEST GT ISZERO PUSH2 0x2F25 JUMP JUMPDEST PUSH1 0x18 SLOAD PUSH1 0x1 PUSH1 0x1 PUSH1 0xA0 SHL SUB AND SWAP1 PUSH2 0x695 SWAP1 DUP8 PUSH2 0x2C49 JUMP JUMPDEST SWAP1 PUSH1 0x1 PUSH1 0x1 PUSH1 0xA0 SHL SUB DUP5 AND PUSH2 0x2F70 JUMP JUMPDEST PUSH1 0x40 MLOAD PUSH4 0x70A08231 PUSH1 0xE0 SHL DUP2 MSTORE ADDRESS PUSH1 0x4 DUP3 ADD MSTORE PUSH1 0x20 DUP2 PUSH1 0x24 DUP2 PUSH1 0x1 PUSH1 0x1 PUSH1 0xA0 SHL SUB DUP7 AND GAS STATICCALL SWAP1 DUP2 ISZERO PUSH2 0x7B1 JUMPI DUP7 SWAP2 PUSH2 0x757 JUMPI JUMPDEST POP SWAP2 PUSH32 0xE353AAF2B0009460952086EAD25CB12A74B4E9E1D8BC70B75AD07701D36C2531 SWAP5 PUSH2 0x72E SWAP3 DUP5 PUSH1 0x24 SWAP7 SWAP6 PUSH2 0x738 JUMPI JUMPDEST POP POP PUSH1 0x40 MLOAD SWAP5 DUP6 SWAP5 ADD CALLDATALOAD DUP5 PUSH1 0x40 SWAP2 SWAP5 SWAP4 SWAP3 PUSH1 0xFF PUSH1 0x60 DUP4 ADD SWAP7 AND DUP3 MSTORE PUSH1 0x20 DUP3 ADD MSTORE ADD MSTORE JUMP JUMPDEST SUB SWAP1 LOG1 PUSH1 0x1 DUP1 SSTORE DUP1 RETURN JUMPDEST DUP9 SLOAD PUSH2 0x750 SWAP3 PUSH1 0x1 PUSH1 0x1 PUSH1 0xA0 SHL SUB SWAP2 DUP3 AND SWAP2 AND PUSH2 0x2F70 JUMP JUMPDEST CODESIZE DUP1 PUSH2 0x70A JUMP JUMPDEST SWAP2 SWAP4 SWAP3 SWAP1 POP PUSH1 0x20 DUP3 RETURNDATASIZE PUSH1 0x20 GT PUSH2 0x7A9 JUMPI JUMPDEST DUP2 PUSH2 0x775 PUSH1 0x20 SWAP4 DUP4 PUSH2 0x2B4A JUMP JUMPDEST DUP2 ADD SUB SLT PUSH2 0x4FE JUMPI SWAP1 MLOAD SWAP2 SWAP3 SWAP1 SWAP2 PUSH32 0xE353AAF2B0009460952086EAD25CB12A74B4E9E1D8BC70B75AD07701D36C2531 PUSH2 0x6D8 JUMP JUMPDEST RETURNDATASIZE SWAP2 POP PUSH2 0x768 JUMP JUMPDEST PUSH1 0x40 MLOAD RETURNDATASIZE DUP9 DUP3 RETURNDATACOPY RETURNDATASIZE SWAP1 REVERT JUMPDEST PUSH4 0x4E487B71 PUSH1 0xE0 SHL DUP10 MSTORE PUSH1 0x11 PUSH1 0x4 MSTORE PUSH1 0x24 DUP10 REVERT JUMPDEST PUSH1 0x2 SLOAD PUSH2 0x7EF SWAP1 DUP4 SWAP1 PUSH1 0x8 SHR PUSH1 0x1 PUSH1 0x1 PUSH1 0xA0 SHL SUB SWAP1 DUP2 AND SWAP1 DUP7 AND PUSH2 0x2F70 JUMP JUMPDEST PUSH2 0x643 JUMP JUMPDEST SWAP1 SWAP4 POP PUSH1 0x20 DUP2 RETURNDATASIZE PUSH1 0x20 GT PUSH2 0x822 JUMPI JUMPDEST DUP2 PUSH2 0x810 PUSH1 0x20 SWAP4 DUP4 PUSH2 0x2B4A JUMP JUMPDEST DUP2 ADD SUB SLT PUSH2 0x4FE JUMPI MLOAD SWAP3 PUSH2 0x629 PUSH2 0x612 JUMP JUMPDEST RETURNDATASIZE SWAP2 POP PUSH2 0x803 JUMP JUMPDEST PUSH1 0x40 MLOAD RETURNDATASIZE DUP8 DUP3 RETURNDATACOPY RETURNDATASIZE SWAP1 REVERT JUMPDEST PUSH1 0x2 DUP2 SUB PUSH2 0xAA0 JUMPI POP DUP3 JUMPDEST PUSH3 0x30D40 GAS GT DUP1 PUSH2 0xA96 JUMPI JUMPDEST ISZERO PUSH2 0xA8C JUMPI PUSH1 0x8 DUP1 SLOAD PUSH1 0x7 DUP1 SLOAD SWAP1 SWAP2 PUSH2 0x878 SWAP2 PUSH1 0x24 CALLDATALOAD PUSH1 0x1 SHR SWAP2 PUSH1 0x1 PUSH1 0x1 PUSH1 0xA0 SHL SUB SWAP2 DUP3 AND SWAP2 AND PUSH2 0x32AD JUMP JUMPDEST POP SLOAD SWAP1 SLOAD PUSH1 0x1 PUSH1 0x1 PUSH1 0xA0 SHL SUB SWAP2 DUP3 AND SWAP2 AND PUSH2 0x899 PUSH1 0x24 CALLDATALOAD PUSH1 0x1 SHR DUP3 DUP5 PUSH2 0x37CE JUMP JUMPDEST PUSH1 0x40 MLOAD PUSH4 0x95EA7B3 PUSH1 0xE0 SHL DUP2 MSTORE PUSH1 0x1 PUSH1 0x1 PUSH1 0xA0 SHL SUB PUSH32 0x0 AND PUSH1 0x4 DUP3 ADD MSTORE PUSH1 0x24 DUP1 CALLDATALOAD PUSH1 0x1 SHR SWAP1 DUP3 ADD MSTORE PUSH1 0x20 DUP2 PUSH1 0x44 DUP2 PUSH1 0x0 DUP9 GAS CALL DUP1 ISZERO PUSH2 0xA3B JUMPI PUSH2 0xA5D JUMPI JUMPDEST POP PUSH2 0x12C TIMESTAMP ADD TIMESTAMP GT PUSH2 0xA47 JUMPI PUSH1 0x40 MLOAD SWAP3 PUSH2 0x90F DUP5 PUSH2 0x2B2E JUMP JUMPDEST DUP4 MSTORE PUSH1 0x20 DUP1 DUP5 ADD SWAP3 DUP4 MSTORE PUSH2 0x1F4 PUSH1 0x40 DUP1 DUP7 ADD SWAP2 DUP3 MSTORE ADDRESS PUSH1 0x60 DUP8 ADD SWAP1 DUP2 MSTORE TIMESTAMP PUSH2 0x12C ADD PUSH1 0x80 DUP9 ADD SWAP1 DUP2 MSTORE PUSH1 0x24 DUP1 CALLDATALOAD PUSH1 0x1 SHR PUSH1 0xA0 DUP11 ADD SWAP1 DUP2 MSTORE PUSH1 0xC0 DUP11 ADD SWAP8 DUP9 MSTORE PUSH1 0x0 PUSH1 0xE0 DUP12 ADD DUP2 DUP2 MSTORE SWAP6 MLOAD PUSH4 0x414BF389 PUSH1 0xE0 SHL DUP2 MSTORE SWAP11 MLOAD PUSH1 0x1 PUSH1 0x1 PUSH1 0xA0 SHL SUB SWAP1 DUP2 AND PUSH1 0x4 DUP14 ADD MSTORE SWAP10 MLOAD DUP11 AND SWAP3 DUP12 ADD SWAP3 SWAP1 SWAP3 MSTORE SWAP5 MLOAD PUSH3 0xFFFFFF AND PUSH1 0x44 DUP11 ADD MSTORE SWAP2 MLOAD DUP8 AND PUSH1 0x64 DUP10 ADD MSTORE MLOAD PUSH1 0x84 DUP9 ADD MSTORE SWAP2 MLOAD PUSH1 0xA4 DUP8 ADD MSTORE SWAP3 MLOAD PUSH1 0xC4 DUP7 ADD MSTORE SWAP2 MLOAD DUP4 AND PUSH1 0xE4 DUP6 ADD MSTORE SWAP2 DUP4 SWAP2 PUSH2 0x104 SWAP2 DUP4 SWAP2 SWAP1 PUSH32 0x0 AND GAS CALL DUP1 ISZERO PUSH2 0xA3B JUMPI PUSH2 0xA10 JUMPI JUMPDEST POP PUSH1 0x0 NOT DUP2 EQ PUSH2 0x9FC JUMPI PUSH1 0x1 ADD PUSH2 0x840 JUMP JUMPDEST PUSH4 0x4E487B71 PUSH1 0xE0 SHL DUP5 MSTORE PUSH1 0x11 PUSH1 0x4 MSTORE PUSH1 0x24 DUP5 REVERT JUMPDEST PUSH1 0x20 SWAP1 DUP2 RETURNDATASIZE DUP4 GT PUSH2 0xA34 JUMPI JUMPDEST PUSH2 0xA26 DUP2 DUP4 PUSH2 0x2B4A JUMP JUMPDEST DUP2 ADD SUB SLT PUSH2 0x4FE JUMPI CODESIZE PUSH2 0x9EA JUMP JUMPDEST POP RETURNDATASIZE PUSH2 0xA1C JUMP JUMPDEST PUSH1 0x40 MLOAD RETURNDATASIZE PUSH1 0x0 DUP3 RETURNDATACOPY RETURNDATASIZE SWAP1 REVERT JUMPDEST PUSH4 0x4E487B71 PUSH1 0xE0 SHL PUSH1 0x0 MSTORE PUSH1 0x11 PUSH1 0x4 MSTORE PUSH1 0x24 PUSH1 0x0 REVERT JUMPDEST PUSH2 0xA7E SWAP1 PUSH1 0x20 RETURNDATASIZE PUSH1 0x20 GT PUSH2 0xA85 JUMPI JUMPDEST PUSH2 0xA76 DUP2 DUP4 PUSH2 0x2B4A JUMP JUMPDEST DUP2 ADD SWAP1 PUSH2 0x2DB1 JUMP JUMPDEST POP CODESIZE PUSH2 0x8F6 JUMP JUMPDEST POP RETURNDATASIZE PUSH2 0xA6C JUMP JUMPDEST POP SWAP1 SWAP2 SWAP3 JUMPDEST PUSH2 0x5DE JUMP JUMPDEST POP PUSH1 0x64 DUP2 LT PUSH2 0x84C JUMP JUMPDEST PUSH1 0x3 DUP2 SWAP6 SWAP3 SWAP4 SWAP5 SWAP6 EQ PUSH1 0x0 EQ PUSH2 0xAF9 JUMPI POP PUSH1 0x8 SLOAD PUSH1 0x7 SLOAD PUSH2 0xAF3 SWAP2 PUSH1 0x24 CALLDATALOAD PUSH1 0x1 SHR SWAP2 PUSH2 0xADA SWAP2 DUP4 SWAP2 PUSH1 0x1 PUSH1 0x1 PUSH1 0xA0 SHL SUB SWAP1 DUP2 AND SWAP2 AND PUSH2 0x32AD JUMP JUMPDEST POP PUSH1 0x7 SLOAD PUSH1 0x8 SLOAD PUSH1 0x1 PUSH1 0x1 PUSH1 0xA0 SHL SUB SWAP1 DUP2 AND SWAP2 AND PUSH2 0x32AD JUMP JUMPDEST POP PUSH2 0x5DE JUMP JUMPDEST PUSH1 0x4 DUP2 SUB PUSH2 0xE44 JUMPI POP PUSH1 0x40 MLOAD PUSH1 0xC0 DUP2 ADD DUP2 DUP2 LT PUSH1 0x1 PUSH1 0x1 PUSH1 0x40 SHL SUB DUP3 GT OR PUSH2 0xE2E JUMPI DUP1 PUSH1 0x40 MSTORE PUSH2 0xB28 DUP2 PUSH2 0x2ADD JUMP JUMPDEST PUSH1 0x8 SLOAD PUSH1 0x1 PUSH1 0x1 PUSH1 0xA0 SHL SUB SWAP1 DUP2 AND DUP1 DUP4 MSTORE PUSH1 0x7 SLOAD DUP3 AND PUSH1 0xE0 DUP6 ADD MSTORE PUSH1 0x9 SLOAD SWAP1 SWAP2 AND PUSH2 0x100 DUP5 ADD MSTORE PUSH2 0x120 DUP4 ADD DUP2 SWAP1 MSTORE PUSH1 0x40 MLOAD SWAP1 SWAP2 PUSH2 0xB65 DUP3 PUSH2 0x2AF8 JUMP JUMPDEST PUSH1 0x64 DUP3 MSTORE PUSH2 0xBB8 SWAP2 DUP3 PUSH1 0x20 DUP3 ADD MSTORE DUP3 PUSH1 0x40 DUP3 ADD MSTORE PUSH1 0x40 MLOAD SWAP2 PUSH2 0xB86 DUP4 PUSH2 0x2B13 JUMP JUMPDEST DUP3 MSTORE PUSH1 0x20 DUP3 ADD MSTORE DUP4 MSTORE PUSH1 0x40 MLOAD SWAP2 PUSH2 0xB9C DUP4 PUSH2 0x2ADD JUMP JUMPDEST DUP1 DUP4 MSTORE PUSH1 0x10 SLOAD PUSH1 0x1 PUSH1 0x1 PUSH1 0xA0 SHL SUB SWAP1 DUP2 AND PUSH1 0x20 DUP6 ADD MSTORE PUSH1 0xA SLOAD AND PUSH1 0x40 DUP1 DUP6 ADD DUP3 SWAP1 MSTORE PUSH1 0x60 DUP6 ADD DUP4 SWAP1 MSTORE MLOAD SWAP1 SWAP4 SWAP1 PUSH2 0xBD2 DUP2 PUSH2 0x2AF8 JUMP JUMPDEST DUP4 DUP2 MSTORE DUP4 PUSH1 0x20 DUP3 ADD MSTORE DUP4 PUSH1 0x40 DUP3 ADD MSTORE PUSH1 0x40 MLOAD SWAP2 PUSH2 0xBEE DUP4 PUSH2 0x2B13 JUMP JUMPDEST DUP3 MSTORE PUSH1 0x20 DUP3 ADD MSTORE PUSH1 0x20 DUP6 ADD MSTORE PUSH1 0x40 MLOAD PUSH2 0xC06 DUP2 PUSH2 0x2ADD JUMP JUMPDEST DUP2 DUP2 MSTORE PUSH1 0x11 SLOAD PUSH1 0x1 PUSH1 0x1 PUSH1 0xA0 SHL SUB AND PUSH1 0x20 DUP3 ADD MSTORE PUSH1 0x40 DUP1 DUP3 ADD DUP6 SWAP1 MSTORE PUSH1 0x60 DUP3 ADD DUP4 SWAP1 MSTORE MLOAD PUSH2 0xC33 DUP2 PUSH2 0x2AF8 JUMP JUMPDEST DUP4 DUP2 MSTORE DUP4 PUSH1 0x20 DUP3 ADD MSTORE DUP4 PUSH1 0x40 DUP3 ADD MSTORE PUSH1 0x40 MLOAD SWAP2 PUSH2 0xC4F DUP4 PUSH2 0x2B13 JUMP JUMPDEST DUP3 MSTORE PUSH1 0x20 DUP3 ADD MSTORE PUSH1 0x40 DUP6 ADD MSTORE PUSH1 0x40 MLOAD PUSH2 0xC67 DUP2 PUSH2 0x2ADD JUMP JUMPDEST DUP2 DUP2 MSTORE PUSH1 0x12 SLOAD PUSH1 0x1 PUSH1 0x1 PUSH1 0xA0 SHL SUB AND PUSH1 0x20 DUP3 ADD MSTORE PUSH1 0x40 DUP1 DUP3 ADD DUP6 SWAP1 MSTORE PUSH1 0x60 DUP3 ADD DUP4 SWAP1 MSTORE MLOAD PUSH2 0xC94 DUP2 PUSH2 0x2AF8 JUMP JUMPDEST DUP4 DUP2 MSTORE DUP4 PUSH1 0x20 DUP3 ADD MSTORE DUP4 PUSH1 0x40 DUP3 ADD MSTORE PUSH1 0x40 MLOAD SWAP2 PUSH2 0xCB0 DUP4 PUSH2 0x2B13 JUMP JUMPDEST DUP3 MSTORE PUSH1 0x20 DUP3 ADD MSTORE PUSH1 0x60 DUP6 ADD MSTORE PUSH1 0x40 MLOAD PUSH2 0xCC8 DUP2 PUSH2 0x2ADD JUMP JUMPDEST DUP2 DUP2 MSTORE PUSH1 0x13 SLOAD PUSH1 0x1 PUSH1 0x1 PUSH1 0xA0 SHL SUB AND PUSH1 0x20 DUP3 ADD MSTORE PUSH1 0x40 DUP1 DUP3 ADD DUP6 SWAP1 MSTORE PUSH1 0x60 DUP3 ADD DUP4 SWAP1 MSTORE MLOAD PUSH2 0xCF5 DUP2 PUSH2 0x2AF8 JUMP JUMPDEST DUP4 DUP2 MSTORE DUP4 PUSH1 0x20 DUP3 ADD MSTORE DUP4 PUSH1 0x40 DUP3 ADD MSTORE PUSH1 0x40 MLOAD SWAP2 PUSH2 0xD11 DUP4 PUSH2 0x2B13 JUMP JUMPDEST DUP3 MSTORE PUSH1 0x20 DUP3 ADD MSTORE PUSH1 0x80 DUP6 ADD MSTORE PUSH1 0x40 MLOAD SWAP3 PUSH2 0xD2A DUP5 PUSH2 0x2ADD JUMP JUMPDEST DUP2 DUP5 MSTORE PUSH1 0x1 DUP1 PUSH1 0xA0 SHL SUB PUSH1 0x15 SLOAD AND PUSH1 0x20 DUP6 ADD MSTORE PUSH1 0x40 DUP5 ADD MSTORE PUSH1 0x60 DUP4 ADD MSTORE PUSH1 0x40 MLOAD SWAP1 PUSH2 0xD54 DUP3 PUSH2 0x2AF8 JUMP JUMPDEST DUP1 DUP3 MSTORE DUP1 PUSH1 0x20 DUP4 ADD MSTORE PUSH1 0x40 DUP3 ADD MSTORE PUSH1 0x40 MLOAD SWAP2 PUSH2 0xD6F DUP4 PUSH2 0x2B13 JUMP JUMPDEST DUP3 MSTORE PUSH1 0x20 DUP3 ADD MSTORE PUSH1 0xA0 DUP3 ADD MSTORE PUSH1 0x6 TIMESTAMP MOD PUSH1 0x6 DUP2 LT ISZERO PUSH2 0xE1A JUMPI PUSH1 0x5 SHL ADD MLOAD DUP1 MLOAD DUP1 MLOAD PUSH1 0x20 SWAP2 DUP3 ADD MLOAD SWAP2 DUP4 ADD DUP1 MLOAD MLOAD PUSH2 0xAF3 SWAP5 SWAP4 PUSH3 0xFFFFFF SWAP4 PUSH2 0xDF2 SWAP3 PUSH2 0xDC9 SWAP3 PUSH1 0x24 CALLDATALOAD SWAP3 SWAP2 DUP8 AND SWAP2 PUSH1 0x1 PUSH1 0x1 PUSH1 0xA0 SHL SUB SWAP2 DUP3 AND SWAP2 AND PUSH2 0x35DF JUMP JUMPDEST DUP5 MLOAD PUSH1 0x20 DUP1 DUP3 ADD MLOAD PUSH1 0x40 SWAP1 SWAP3 ADD MLOAD DUP6 MLOAD SWAP1 SWAP2 ADD MLOAD DUP7 AND SWAP2 PUSH1 0x1 PUSH1 0x1 PUSH1 0xA0 SHL SUB SWAP2 DUP3 AND SWAP2 AND PUSH2 0x35DF JUMP JUMPDEST SWAP3 MLOAD PUSH1 0x40 DUP1 DUP3 ADD MLOAD PUSH1 0x60 SWAP1 SWAP3 ADD MLOAD SWAP3 MLOAD ADD MLOAD SWAP1 SWAP3 AND SWAP2 PUSH1 0x1 PUSH1 0x1 PUSH1 0xA0 SHL SUB SWAP2 DUP3 AND SWAP2 AND PUSH2 0x35DF JUMP JUMPDEST PUSH4 0x4E487B71 PUSH1 0xE0 SHL DUP7 MSTORE PUSH1 0x32 PUSH1 0x4 MSTORE PUSH1 0x24 DUP7 REVERT JUMPDEST PUSH4 0x4E487B71 PUSH1 0xE0 SHL PUSH1 0x0 MSTORE PUSH1 0x41 PUSH1 0x4 MSTORE PUSH1 0x24 PUSH1 0x0 REVERT JUMPDEST PUSH1 0x5 DUP2 SUB PUSH2 0xE58 JUMPI POP PUSH2 0xA91 PUSH1 0x24 CALLDATALOAD PUSH2 0x3273 JUMP JUMPDEST PUSH1 0x6 DUP2 SUB PUSH2 0xE81 JUMPI POP PUSH1 0x8 SLOAD PUSH1 0x7 SLOAD PUSH2 0xAF3 SWAP2 PUSH1 0x24 CALLDATALOAD SWAP2 PUSH1 0x1 PUSH1 0x1 PUSH1 0xA0 SHL SUB SWAP1 DUP2 AND SWAP2 AND PUSH2 0x32AD JUMP JUMPDEST PUSH1 0x7 DUP2 SUB PUSH2 0xE95 JUMPI POP PUSH2 0xA91 PUSH1 0x24 CALLDATALOAD PUSH2 0x3273 JUMP JUMPDEST PUSH1 0x8 DUP2 SUB PUSH2 0xEE0 JUMPI POP PUSH1 0x9 SLOAD PUSH1 0xA SLOAD PUSH2 0xAF3 SWAP2 PUSH1 0x24 CALLDATALOAD PUSH1 0x1 SHR SWAP2 PUSH2 0xEC7 SWAP2 DUP4 SWAP2 PUSH1 0x1 PUSH1 0x1 PUSH1 0xA0 SHL SUB SWAP1 DUP2 AND SWAP2 AND PUSH2 0x3463 JUMP JUMPDEST POP PUSH1 0xA SLOAD PUSH1 0x9 SLOAD PUSH1 0x1 PUSH1 0x1 PUSH1 0xA0 SHL SUB SWAP1 DUP2 AND SWAP2 AND PUSH2 0x3463 JUMP JUMPDEST PUSH1 0x9 SUB PUSH2 0xA91 JUMPI PUSH1 0x8 SLOAD PUSH1 0x7 SLOAD PUSH2 0xF07 SWAP2 PUSH1 0x24 CALLDATALOAD SWAP2 PUSH1 0x1 PUSH1 0x1 PUSH1 0xA0 SHL SUB SWAP1 DUP2 AND SWAP2 AND PUSH2 0x32AD JUMP JUMPDEST POP PUSH1 0x7 SLOAD PUSH1 0x40 MLOAD PUSH4 0x70A08231 PUSH1 0xE0 SHL DUP2 MSTORE ADDRESS PUSH1 0x4 DUP3 ADD MSTORE SWAP1 PUSH1 0x1 PUSH1 0x1 PUSH1 0xA0 SHL SUB AND PUSH1 0x20 DUP3 PUSH1 0x24 DUP2 DUP5 GAS STATICCALL SWAP1 DUP2 ISZERO PUSH2 0x7B1 JUMPI DUP7 SWAP2 PUSH2 0x1060 JUMPI JUMPDEST PUSH1 0xA SLOAD PUSH2 0xF56 SWAP4 POP PUSH1 0x1 PUSH1 0x1 PUSH1 0xA0 SHL SUB AND SWAP1 PUSH2 0x3463 JUMP JUMPDEST POP PUSH1 0xA SLOAD PUSH1 0x40 MLOAD PUSH4 0x70A08231 PUSH1 0xE0 SHL DUP2 MSTORE ADDRESS PUSH1 0x4 DUP3 ADD MSTORE SWAP1 PUSH1 0x1 PUSH1 0x1 PUSH1 0xA0 SHL SUB AND PUSH1 0x20 DUP3 PUSH1 0x24 DUP2 DUP5 GAS STATICCALL SWAP1 DUP2 ISZERO PUSH2 0x7B1 JUMPI DUP7 SWAP2 PUSH2 0x102A JUMPI JUMPDEST PUSH1 0x9 SLOAD PUSH2 0xFA5 SWAP4 POP PUSH1 0x1 PUSH1 0x1 PUSH1 0xA0 SHL SUB AND SWAP1 PUSH2 0x3463 JUMP JUMPDEST POP PUSH1 0x9 SLOAD PUSH1 0x40 MLOAD PUSH4 0x70A08231 PUSH1 0xE0 SHL DUP2 MSTORE ADDRESS PUSH1 0x4 DUP3 ADD MSTORE SWAP1 PUSH1 0x1 PUSH1 0x1 PUSH1 0xA0 SHL SUB AND PUSH1 0x20 DUP3 PUSH1 0x24 DUP2 DUP5 GAS STATICCALL SWAP1 DUP2 ISZERO PUSH2 0x7B1 JUMPI DUP7 SWAP2 PUSH2 0xFF4 JUMPI JUMPDEST PUSH1 0x8 SLOAD PUSH2 0xAF3 SWAP4 POP PUSH1 0x1 PUSH1 0x1 PUSH1 0xA0 SHL SUB AND SWAP1 PUSH2 0x3463 JUMP JUMPDEST SWAP1 POP PUSH1 0x20 DUP3 RETURNDATASIZE PUSH1 0x20 GT PUSH2 0x1022 JUMPI JUMPDEST DUP2 PUSH2 0x100F PUSH1 0x20 SWAP4 DUP4 PUSH2 0x2B4A JUMP JUMPDEST DUP2 ADD SUB SLT PUSH2 0x4FE JUMPI PUSH2 0xAF3 SWAP2 MLOAD SWAP1 PUSH2 0xFDD JUMP JUMPDEST RETURNDATASIZE SWAP2 POP PUSH2 0x1002 JUMP JUMPDEST SWAP1 POP PUSH1 0x20 DUP3 RETURNDATASIZE PUSH1 0x20 GT PUSH2 0x1058 JUMPI JUMPDEST DUP2 PUSH2 0x1045 PUSH1 0x20 SWAP4 DUP4 PUSH2 0x2B4A JUMP JUMPDEST DUP2 ADD SUB SLT PUSH2 0x4FE JUMPI PUSH2 0xFA5 SWAP2 MLOAD SWAP1 PUSH2 0xF8E JUMP JUMPDEST RETURNDATASIZE SWAP2 POP PUSH2 0x1038 JUMP JUMPDEST SWAP1 POP PUSH1 0x20 DUP3 RETURNDATASIZE PUSH1 0x20 GT PUSH2 0x108E JUMPI JUMPDEST DUP2 PUSH2 0x107B PUSH1 0x20 SWAP4 DUP4 PUSH2 0x2B4A JUMP JUMPDEST DUP2 ADD SUB SLT PUSH2 0x4FE JUMPI PUSH2 0xF56 SWAP2 MLOAD SWAP1 PUSH2 0xF3F JUMP JUMPDEST RETURNDATASIZE SWAP2 POP PUSH2 0x106E JUMP JUMPDEST SWAP1 SWAP3 POP PUSH1 0x20 DUP2 RETURNDATASIZE PUSH1 0x20 GT PUSH2 0x10C2 JUMPI JUMPDEST DUP2 PUSH2 0x10B2 PUSH1 0x20 SWAP4 DUP4 PUSH2 0x2B4A JUMP JUMPDEST DUP2 ADD SUB SLT PUSH2 0x4FE JUMPI MLOAD SWAP2 CODESIZE PUSH2 0x5C6 JUMP JUMPDEST RETURNDATASIZE SWAP2 POP PUSH2 0x10A5 JUMP JUMPDEST PUSH1 0x40 MLOAD RETURNDATASIZE DUP7 DUP3 RETURNDATACOPY RETURNDATASIZE SWAP1 REVERT JUMPDEST DUP3 DUP1 REVERT JUMPDEST POP DUP1 REVERT JUMPDEST PUSH1 0x40 MLOAD PUSH3 0x461BCD PUSH1 0xE5 SHL DUP2 MSTORE PUSH1 0x20 PUSH1 0x4 DUP3 ADD MSTORE PUSH1 0x8 PUSH1 0x24 DUP3 ADD MSTORE PUSH8 0x4E6F742041617665 PUSH1 0xC0 SHL PUSH1 0x44 DUP3 ADD MSTORE PUSH1 0x64 SWAP1 REVERT JUMPDEST POP CALLVALUE PUSH2 0x503 JUMPI PUSH1 0x20 CALLDATASIZE PUSH1 0x3 NOT ADD SLT PUSH2 0x503 JUMPI PUSH2 0x1127 PUSH2 0x29D0 JUMP JUMPDEST PUSH2 0x112F PUSH2 0x2BE0 JUMP JUMPDEST PUSH1 0x1 PUSH1 0x1 PUSH1 0xA0 SHL SUB SWAP1 DUP2 AND SWAP1 DUP2 ISZERO PUSH2 0x1184 JUMPI PUSH1 0x0 SLOAD DUP3 PUSH12 0xFFFFFFFFFFFFFFFFFFFFFFFF PUSH1 0xA0 SHL DUP3 AND OR PUSH1 0x0 SSTORE AND PUSH32 0x8BE0079C531659141344CD1FD0A4F28419497F9722A3DAAFE3B4186F6B6457E0 PUSH1 0x0 DUP1 LOG3 DUP1 RETURN JUMPDEST PUSH1 0x40 MLOAD PUSH4 0x1E4FBDF7 PUSH1 0xE0 SHL DUP2 MSTORE PUSH1 0x4 DUP2 ADD DUP5 SWAP1 MSTORE PUSH1 0x24 SWAP1 REVERT JUMPDEST POP CALLVALUE PUSH2 0x503 JUMPI PUSH1 0x80 CALLDATASIZE PUSH1 0x3 NOT ADD SLT PUSH2 0x503 JUMPI PUSH1 0x1 PUSH1 0x1 PUSH1 0x40 SHL SUB PUSH1 0x4 CALLDATALOAD DUP2 DUP2 GT PUSH2 0x10D5 JUMPI CALLDATASIZE PUSH1 0x23 DUP3 ADD SLT ISZERO PUSH2 0x10D5 JUMPI DUP1 PUSH1 0x4 ADD CALLDATALOAD PUSH2 0x11DA DUP2 PUSH2 0x2B6B JUMP JUMPDEST SWAP2 PUSH2 0x11E8 PUSH1 0x40 MLOAD SWAP4 DUP5 PUSH2 0x2B4A JUMP JUMPDEST DUP2 DUP4 MSTORE PUSH1 0x20 SWAP2 PUSH1 0x24 DUP4 DUP6 ADD SWAP2 PUSH1 0x5 SHL DUP4 ADD ADD SWAP2 CALLDATASIZE DUP4 GT PUSH2 0x1514 JUMPI PUSH1 0x24 ADD SWAP1 JUMPDEST DUP3 DUP3 LT PUSH2 0x1568 JUMPI POP POP POP PUSH1 0x24 CALLDATALOAD DUP4 DUP2 GT PUSH2 0x1564 JUMPI PUSH2 0x1229 SWAP1 CALLDATASIZE SWAP1 PUSH1 0x4 ADD PUSH2 0x2B82 JUMP JUMPDEST SWAP3 PUSH1 0x44 CALLDATALOAD DUP2 DUP2 GT PUSH2 0x1560 JUMPI PUSH2 0x1242 SWAP1 CALLDATASIZE SWAP1 PUSH1 0x4 ADD PUSH2 0x2B82 JUMP JUMPDEST SWAP1 PUSH1 0x64 CALLDATALOAD SWAP1 DUP1 DUP3 GT PUSH2 0x1514 JUMPI CALLDATASIZE PUSH1 0x23 DUP4 ADD SLT ISZERO PUSH2 0x1514 JUMPI DUP2 PUSH1 0x4 ADD CALLDATALOAD SWAP1 DUP2 GT PUSH2 0x154C JUMPI DUP7 PUSH1 0x40 MLOAD SWAP3 PUSH2 0x127D DUP7 PUSH1 0x1F NOT PUSH1 0x1F DUP7 ADD AND ADD DUP6 PUSH2 0x2B4A JUMP JUMPDEST DUP3 DUP5 MSTORE DUP6 DUP5 ADD SWAP3 CALLDATASIZE PUSH1 0x24 DUP3 DUP5 ADD ADD GT PUSH2 0x10D5 JUMPI DUP1 PUSH1 0x24 DUP9 SWAP4 ADD DUP6 CALLDATACOPY DUP5 ADD ADD MSTORE PUSH2 0x12A4 PUSH2 0x2D2B JUMP JUMPDEST PUSH1 0x19 SLOAD PUSH1 0x1 PUSH1 0x1 PUSH1 0xA0 SHL SUB SWAP3 SWAP1 DUP4 AND CALLER SUB PUSH2 0x1518 JUMPI DUP1 DUP6 SWAP2 MLOAD DUP2 ADD SUB SLT PUSH2 0x1514 JUMPI MLOAD SWAP3 PUSH1 0xFF DUP5 AND SWAP5 DUP6 DUP6 SUB PUSH2 0x1510 JUMPI DUP3 PUSH2 0x12E0 PUSH2 0x12E8 SWAP3 PUSH2 0x2D4E JUMP JUMPDEST MLOAD AND SWAP7 PUSH2 0x2D4E JUMP JUMPDEST MLOAD SWAP5 PUSH1 0x40 MLOAD SWAP4 PUSH4 0x70A08231 PUSH1 0xE0 SHL SWAP2 DUP3 DUP7 MSTORE ADDRESS PUSH1 0x4 DUP8 ADD MSTORE DUP4 DUP7 PUSH1 0x24 DUP2 DUP13 GAS STATICCALL SWAP6 DUP7 ISZERO PUSH2 0x14C7 JUMPI DUP11 SWAP7 PUSH2 0x14E0 JUMPI JUMPDEST POP PUSH1 0x1 EQ PUSH2 0x14D2 JUMPI JUMPDEST PUSH1 0x40 MLOAD SWAP5 DUP3 DUP7 MSTORE ADDRESS PUSH1 0x4 DUP8 ADD MSTORE DUP4 DUP7 PUSH1 0x24 DUP2 DUP13 GAS STATICCALL SWAP6 DUP7 ISZERO PUSH2 0x14C7 JUMPI DUP11 SWAP7 PUSH2 0x1494 JUMPI JUMPDEST POP SWAP1 PUSH2 0x1391 PUSH2 0x1360 DUP4 PUSH2 0x135A PUSH2 0x13B0 SWAP6 DUP11 LT ISZERO PUSH2 0x2EED JUMP JUMPDEST DUP9 PUSH2 0x2DA4 JUMP JUMPDEST SWAP7 PUSH2 0x677 PUSH2 0x2710 PUSH2 0x1373 PUSH1 0x3 SLOAD DUP12 PUSH2 0x2D71 JUMP JUMPDEST DIV DUP13 DUP2 DUP1 PUSH2 0x147B JUMPI JUMPDEST POP POP PUSH2 0x672 PUSH2 0x138A DUP7 PUSH2 0x2D4E JUMP JUMPDEST MLOAD DUP14 PUSH2 0x2C49 JUMP JUMPDEST PUSH2 0x13A9 PUSH2 0x13A2 DUP7 PUSH1 0x19 SLOAD AND SWAP3 PUSH2 0x2D4E JUMP JUMPDEST MLOAD DUP10 PUSH2 0x2C49 JUMP JUMPDEST SWAP1 DUP10 PUSH2 0x2F70 JUMP JUMPDEST PUSH1 0x40 MLOAD SWAP1 DUP2 MSTORE ADDRESS PUSH1 0x4 DUP3 ADD MSTORE DUP2 DUP2 PUSH1 0x24 DUP2 DUP11 GAS STATICCALL SWAP2 DUP3 ISZERO PUSH2 0x1470 JUMPI DUP9 SWAP3 PUSH2 0x143A JUMPI JUMPDEST POP POP SWAP1 DUP2 PUSH32 0xE353AAF2B0009460952086EAD25CB12A74B4E9E1D8BC70B75AD07701D36C2531 SWAP7 PUSH2 0x72E SWAP5 SWAP4 PUSH2 0x1425 JUMPI JUMPDEST POP POP POP PUSH1 0x40 MLOAD SWAP4 DUP5 SWAP4 DUP5 PUSH1 0x40 SWAP2 SWAP5 SWAP4 SWAP3 PUSH1 0xFF PUSH1 0x60 DUP4 ADD SWAP7 AND DUP3 MSTORE PUSH1 0x20 DUP3 ADD MSTORE ADD MSTORE JUMP JUMPDEST PUSH2 0x1432 SWAP3 DUP10 SLOAD AND SWAP1 PUSH2 0x2F70 JUMP JUMPDEST CODESIZE DUP1 DUP1 PUSH2 0x1402 JUMP JUMPDEST SWAP1 DUP1 SWAP5 SWAP4 SWAP3 POP DUP2 RETURNDATASIZE DUP4 GT PUSH2 0x1469 JUMPI JUMPDEST PUSH2 0x1453 DUP2 DUP4 PUSH2 0x2B4A JUMP JUMPDEST DUP2 ADD SUB SLT PUSH2 0x4FE JUMPI SWAP2 MLOAD SWAP1 SWAP2 SWAP1 DUP6 PUSH2 0x72E PUSH2 0x13D2 JUMP JUMPDEST POP RETURNDATASIZE PUSH2 0x1449 JUMP JUMPDEST PUSH1 0x40 MLOAD RETURNDATASIZE DUP11 DUP3 RETURNDATACOPY RETURNDATASIZE SWAP1 REVERT JUMPDEST PUSH2 0x148D SWAP2 DUP12 PUSH1 0x2 SLOAD PUSH1 0x8 SHR AND SWAP1 PUSH2 0x2F70 JUMP JUMPDEST DUP13 DUP2 PUSH2 0x137C JUMP JUMPDEST SWAP2 SWAP1 SWAP6 POP DUP4 DUP3 DUP2 RETURNDATASIZE DUP4 GT PUSH2 0x14C0 JUMPI JUMPDEST PUSH2 0x14AD DUP2 DUP4 PUSH2 0x2B4A JUMP JUMPDEST DUP2 ADD SUB SLT PUSH2 0x4FE JUMPI SWAP1 MLOAD SWAP5 PUSH2 0x1391 PUSH2 0x1342 JUMP JUMPDEST POP RETURNDATASIZE PUSH2 0x14A3 JUMP JUMPDEST PUSH1 0x40 MLOAD RETURNDATASIZE DUP13 DUP3 RETURNDATACOPY RETURNDATASIZE SWAP1 REVERT JUMPDEST PUSH2 0x14DB DUP8 PUSH2 0x2FB3 JUMP JUMPDEST PUSH2 0x131F JUMP JUMPDEST SWAP1 SWAP6 POP DUP4 DUP2 DUP2 RETURNDATASIZE DUP4 GT PUSH2 0x1509 JUMPI JUMPDEST PUSH2 0x14F8 DUP2 DUP4 PUSH2 0x2B4A JUMP JUMPDEST DUP2 ADD SUB SLT PUSH2 0x4FE JUMPI MLOAD SWAP5 PUSH1 0x1 PUSH2 0x1316 JUMP JUMPDEST POP RETURNDATASIZE PUSH2 0x14EE JUMP JUMPDEST DUP8 DUP1 REVERT JUMPDEST DUP7 DUP1 REVERT JUMPDEST PUSH1 0x40 MLOAD PUSH3 0x461BCD PUSH1 0xE5 SHL DUP2 MSTORE PUSH1 0x4 DUP2 ADD DUP7 SWAP1 MSTORE PUSH1 0xC PUSH1 0x24 DUP3 ADD MSTORE PUSH12 0x2737BA102130B630B731B2B9 PUSH1 0xA1 SHL PUSH1 0x44 DUP3 ADD MSTORE PUSH1 0x64 SWAP1 REVERT JUMPDEST PUSH4 0x4E487B71 PUSH1 0xE0 SHL DUP8 MSTORE PUSH1 0x41 PUSH1 0x4 MSTORE PUSH1 0x24 DUP8 REVERT JUMPDEST DUP6 DUP1 REVERT JUMPDEST DUP5 DUP1 REVERT JUMPDEST DUP2 CALLDATALOAD PUSH1 0x1 PUSH1 0x1 PUSH1 0xA0 SHL SUB DUP2 AND DUP2 SUB PUSH2 0x4FE JUMPI DUP2 MSTORE SWAP1 DUP4 ADD SWAP1 DUP4 ADD PUSH2 0x1207 JUMP JUMPDEST POP CALLVALUE PUSH2 0x503 JUMPI DUP1 PUSH1 0x3 NOT CALLDATASIZE ADD SLT PUSH2 0x503 JUMPI PUSH1 0x25 SLOAD PUSH1 0x40 MLOAD PUSH1 0x1 PUSH1 0x1 PUSH1 0xA0 SHL SUB SWAP1 SWAP2 AND DUP2 MSTORE PUSH1 0x20 SWAP1 RETURN JUMPDEST POP CALLVALUE PUSH2 0x503 JUMPI DUP1 PUSH1 0x3 NOT CALLDATASIZE ADD SLT PUSH2 0x503 JUMPI PUSH1 0x12 SLOAD PUSH1 0x40 MLOAD PUSH1 0x1 PUSH1 0x1 PUSH1 0xA0 SHL SUB SWAP1 SWAP2 AND DUP2 MSTORE PUSH1 0x20 SWAP1 RETURN JUMPDEST POP CALLVALUE PUSH2 0x503 JUMPI DUP1 PUSH1 0x3 NOT CALLDATASIZE ADD SLT PUSH2 0x503 JUMPI PUSH1 0x16 SLOAD PUSH1 0x40 MLOAD PUSH1 0x1 PUSH1 0x1 PUSH1 0xA0 SHL SUB SWAP1 SWAP2 AND DUP2 MSTORE PUSH1 0x20 SWAP1 RETURN JUMPDEST POP CALLVALUE PUSH2 0x503 JUMPI DUP1 PUSH1 0x3 NOT CALLDATASIZE ADD SLT PUSH2 0x503 JUMPI PUSH1 0x1F SLOAD PUSH1 0x40 MLOAD PUSH1 0x1 PUSH1 0x1 PUSH1 0xA0 SHL SUB SWAP1 SWAP2 AND DUP2 MSTORE PUSH1 0x20 SWAP1 RETURN JUMPDEST POP CALLVALUE PUSH2 0x503 JUMPI DUP1 PUSH1 0x3 NOT CALLDATASIZE ADD SLT PUSH2 0x503 JUMPI PUSH1 0x14 SLOAD PUSH1 0x40 MLOAD PUSH1 0x1 PUSH1 0x1 PUSH1 0xA0 SHL SUB SWAP1 SWAP2 AND DUP2 MSTORE PUSH1 0x20 SWAP1 RETURN JUMPDEST POP CALLVALUE PUSH2 0x503 JUMPI DUP1 PUSH1 0x3 NOT CALLDATASIZE ADD SLT PUSH2 0x503 JUMPI PUSH1 0x20 PUSH1 0x6 SLOAD PUSH1 0x40 MLOAD SWAP1 DUP2 MSTORE RETURN JUMPDEST POP CALLVALUE PUSH2 0x503 JUMPI DUP1 PUSH1 0x3 NOT CALLDATASIZE ADD SLT PUSH2 0x503 JUMPI PUSH1 0x7 SLOAD PUSH1 0x40 MLOAD PUSH1 0x1 PUSH1 0x1 PUSH1 0xA0 SHL SUB SWAP1 SWAP2 AND DUP2 MSTORE PUSH1 0x20 SWAP1 RETURN JUMPDEST POP CALLVALUE PUSH2 0x503 JUMPI DUP1 PUSH1 0x3 NOT CALLDATASIZE ADD SLT PUSH2 0x503 JUMPI PUSH1 0x17 SLOAD PUSH1 0x40 MLOAD PUSH1 0x1 PUSH1 0x1 PUSH1 0xA0 SHL SUB SWAP1 SWAP2 AND DUP2 MSTORE PUSH1 0x20 SWAP1 RETURN JUMPDEST POP CALLVALUE PUSH2 0x503 JUMPI DUP1 PUSH1 0x3 NOT CALLDATASIZE ADD SLT PUSH2 0x503 JUMPI PUSH1 0x19 SLOAD PUSH1 0x40 MLOAD PUSH1 0x1 PUSH1 0x1 PUSH1 0xA0 SHL SUB SWAP1 SWAP2 AND DUP2 MSTORE PUSH1 0x20 SWAP1 RETURN JUMPDEST POP CALLVALUE PUSH2 0x503 JUMPI DUP1 PUSH1 0x3 NOT CALLDATASIZE ADD SLT PUSH2 0x503 JUMPI PUSH1 0x23 SLOAD PUSH1 0x40 MLOAD PUSH1 0x1 PUSH1 0x1 PUSH1 0xA0 SHL SUB SWAP1 SWAP2 AND DUP2 MSTORE PUSH1 0x20 SWAP1 RETURN JUMPDEST POP CALLVALUE PUSH2 0x503 JUMPI DUP1 PUSH1 0x3 NOT CALLDATASIZE ADD SLT PUSH2 0x503 JUMPI PUSH1 0xA SLOAD PUSH1 0x40 MLOAD PUSH1 0x1 PUSH1 0x1 PUSH1 0xA0 SHL SUB SWAP1 SWAP2 AND DUP2 MSTORE PUSH1 0x20 SWAP1 RETURN JUMPDEST POP CALLVALUE PUSH2 0x503 JUMPI PUSH1 0x20 PUSH1 0x3 NOT DUP2 DUP2 CALLDATASIZE ADD SLT PUSH2 0x10D5 JUMPI PUSH1 0x4 CALLDATALOAD SWAP2 PUSH2 0x175F PUSH2 0x2BE0 JUMP JUMPDEST PUSH2 0x1767 PUSH2 0x2D2B JUMP JUMPDEST DUP3 ISZERO ISZERO DUP1 PUSH2 0x18F7 JUMPI JUMPDEST PUSH2 0x1779 SWAP1 PUSH2 0x2C0C JUMP JUMPDEST PUSH2 0x1793 PUSH2 0x178B PUSH1 0x6 SLOAD PUSH1 0x5 SLOAD SWAP1 PUSH2 0x2C49 JUMP JUMPDEST TIMESTAMP LT ISZERO PUSH2 0x2C56 JUMP JUMPDEST TIMESTAMP PUSH1 0x6 SSTORE PUSH1 0x40 MLOAD SWAP3 PUSH2 0x17A4 DUP5 PUSH2 0x2B13 JUMP JUMPDEST PUSH1 0x1 SWAP4 DUP5 DUP2 MSTORE DUP3 DUP2 ADD SWAP4 DUP4 CALLDATASIZE DUP7 CALLDATACOPY PUSH1 0x8 SLOAD PUSH1 0x1 PUSH1 0x1 PUSH1 0xA0 SHL SUB SWAP6 SWAP1 DUP7 AND PUSH2 0x17CA DUP5 PUSH2 0x2D4E JUMP JUMPDEST MSTORE PUSH1 0x40 MLOAD SWAP5 PUSH2 0x17D8 DUP7 PUSH2 0x2B13 JUMP JUMPDEST DUP8 DUP7 MSTORE DUP1 DUP7 ADD SWAP5 DUP2 CALLDATASIZE DUP8 CALLDATACOPY PUSH2 0x17EC DUP8 PUSH2 0x2D4E JUMP JUMPDEST MSTORE DUP7 PUSH1 0x19 SLOAD AND SWAP6 PUSH1 0x40 MLOAD SWAP5 DUP10 DUP4 DUP8 ADD MSTORE DUP3 DUP7 MSTORE PUSH2 0x1808 DUP7 PUSH2 0x2B13 JUMP JUMPDEST DUP8 EXTCODESIZE ISZERO PUSH2 0x18F3 JUMPI SWAP7 SWAP6 SWAP5 SWAP4 SWAP3 SWAP1 DUP11 SWAP9 PUSH1 0x40 MLOAD SWAP9 PUSH4 0x2E1C224F PUSH1 0xE1 SHL DUP11 MSTORE PUSH1 0x84 DUP11 ADD SWAP1 ADDRESS PUSH1 0x4 DUP13 ADD MSTORE PUSH1 0x80 PUSH1 0x24 DUP13 ADD MSTORE MLOAD DUP1 SWAP2 MSTORE PUSH1 0xA4 DUP11 ADD SWAP4 SWAP2 DUP12 SWAP1 JUMPDEST DUP14 DUP4 DUP4 LT PUSH2 0x18D8 JUMPI POP POP POP POP POP DUP8 DUP3 SUB DUP5 ADD PUSH1 0x44 DUP10 ADD MSTORE MLOAD DUP1 DUP3 MSTORE SWAP1 DUP3 ADD SWAP5 SWAP2 DUP9 JUMPDEST DUP11 DUP4 DUP3 LT PUSH2 0x18C3 JUMPI POP POP POP POP POP DUP6 DUP6 PUSH2 0x188E DUP6 DUP4 SWAP8 SWAP6 DUP4 SWAP8 SWAP6 DUP5 DUP1 SWAP8 SUB ADD PUSH1 0x64 DUP6 ADD MSTORE PUSH2 0x2C94 JUMP JUMPDEST SUB SWAP3 GAS CALL DUP1 ISZERO PUSH2 0x18B8 JUMPI PUSH2 0x18A4 JUMPI JUMPDEST POP POP DUP1 SSTORE DUP1 RETURN JUMPDEST PUSH2 0x18AD SWAP1 PUSH2 0x2AAE JUMP JUMPDEST PUSH2 0x10D9 JUMPI DUP2 CODESIZE PUSH2 0x189D JUMP JUMPDEST PUSH1 0x40 MLOAD RETURNDATASIZE DUP5 DUP3 RETURNDATACOPY RETURNDATASIZE SWAP1 REVERT JUMPDEST DUP5 MLOAD DUP9 MSTORE DUP13 SWAP11 POP SWAP7 DUP3 ADD SWAP7 SWAP4 DUP3 ADD SWAP4 ADD PUSH2 0x1866 JUMP JUMPDEST DUP5 MLOAD DUP3 AND DUP8 MSTORE DUP16 SWAP14 POP SWAP6 DUP8 ADD SWAP6 SWAP4 DUP8 ADD SWAP4 SWAP2 SWAP1 SWAP2 ADD SWAP1 PUSH2 0x1844 JUMP JUMPDEST DUP11 DUP1 REVERT JUMPDEST POP PUSH1 0x4 SLOAD DUP4 GT ISZERO PUSH2 0x1770 JUMP JUMPDEST POP CALLVALUE PUSH2 0x503 JUMPI PUSH1 0x20 CALLDATASIZE PUSH1 0x3 NOT ADD SLT PUSH2 0x503 JUMPI PUSH2 0x191D PUSH2 0x29D0 JUMP JUMPDEST POP PUSH2 0x1926 PUSH2 0x2BE0 JUMP JUMPDEST DUP1 RETURN JUMPDEST POP CALLVALUE PUSH2 0x503 JUMPI PUSH1 0x40 CALLDATASIZE PUSH1 0x3 NOT ADD SLT PUSH2 0x503 JUMPI PUSH2 0x191D PUSH2 0x29D0 JUMP JUMPDEST POP CALLVALUE PUSH2 0x503 JUMPI DUP1 PUSH1 0x3 NOT CALLDATASIZE ADD SLT PUSH2 0x503 JUMPI PUSH1 0x15 SLOAD PUSH1 0x40 MLOAD PUSH1 0x1 PUSH1 0x1 PUSH1 0xA0 SHL SUB SWAP1 SWAP2 AND DUP2 MSTORE PUSH1 0x20 SWAP1 RETURN JUMPDEST POP CALLVALUE PUSH2 0x503 JUMPI PUSH2 0x140 CALLDATASIZE PUSH1 0x3 NOT ADD SLT PUSH2 0x503 JUMPI PUSH2 0x1987 PUSH2 0x29D0 JUMP JUMPDEST POP PUSH2 0x1990 PUSH2 0x29E6 JUMP JUMPDEST PUSH2 0x1998 PUSH2 0x29FC JUMP JUMPDEST PUSH2 0x19A0 PUSH2 0x2A12 JUMP JUMPDEST PUSH2 0x19A8 PUSH2 0x2A28 JUMP JUMPDEST PUSH2 0x19B0 PUSH2 0x2A3E JUMP JUMPDEST PUSH2 0x19B8 PUSH2 0x2A54 JUMP JUMPDEST SWAP2 PUSH2 0x19C1 PUSH2 0x2A6A JUMP JUMPDEST SWAP4 PUSH2 0x19CA PUSH2 0x2A80 JUMP JUMPDEST SWAP6 PUSH2 0x19D3 PUSH2 0x2A97 JUMP JUMPDEST SWAP8 PUSH2 0x19DC PUSH2 0x2BE0 JUMP JUMPDEST PUSH1 0x1B DUP1 SLOAD PUSH1 0x1 PUSH1 0x1 PUSH1 0xA0 SHL SUB NOT SWAP1 DUP2 AND PUSH1 0x1 PUSH1 0x1 PUSH1 0xA0 SHL SUB SWAP4 DUP5 AND OR SWAP1 SWAP2 SSTORE PUSH1 0x1C DUP1 SLOAD DUP3 AND SWAP4 DUP4 AND SWAP4 SWAP1 SWAP4 OR SWAP1 SWAP3 SSTORE PUSH1 0x1D DUP1 SLOAD DUP4 AND SWAP4 DUP3 AND SWAP4 SWAP1 SWAP4 OR SWAP1 SWAP3 SSTORE PUSH1 0x1E DUP1 SLOAD DUP3 AND SWAP4 DUP4 AND SWAP4 SWAP1 SWAP4 OR SWAP1 SWAP3 SSTORE PUSH1 0x1F DUP1 SLOAD DUP4 AND SWAP4 DUP3 AND SWAP4 SWAP1 SWAP4 OR SWAP1 SWAP3 SSTORE PUSH1 0x20 DUP1 SLOAD DUP3 AND SWAP4 DUP4 AND SWAP4 SWAP1 SWAP4 OR SWAP1 SWAP3 SSTORE PUSH1 0x21 DUP1 SLOAD DUP4 AND SWAP4 DUP3 AND SWAP4 SWAP1 SWAP4 OR SWAP1 SWAP3 SSTORE PUSH1 0x22 DUP1 SLOAD DUP3 AND SWAP4 DUP4 AND SWAP4 SWAP1 SWAP4 OR SWAP1 SWAP3 SSTORE PUSH1 0x23 DUP1 SLOAD SWAP1 SWAP3 AND SWAP3 AND SWAP2 SWAP1 SWAP2 OR SWAP1 SSTORE DUP1 RETURN JUMPDEST POP CALLVALUE PUSH2 0x503 JUMPI PUSH1 0x20 CALLDATASIZE PUSH1 0x3 NOT ADD SLT PUSH2 0x503 JUMPI DUP1 PUSH1 0x4 CALLDATALOAD PUSH2 0x1A9B PUSH2 0x2BE0 JUMP JUMPDEST PUSH2 0x1AA3 PUSH2 0x2D2B JUMP JUMPDEST DUP1 ISZERO ISZERO DUP1 PUSH2 0x1B36 JUMPI JUMPDEST PUSH2 0x1AB5 SWAP1 PUSH2 0x2C0C JUMP JUMPDEST PUSH1 0x1 DUP1 PUSH1 0xA0 SHL SUB DUP1 PUSH1 0x18 SLOAD AND SWAP1 PUSH1 0x8 SLOAD AND SWAP1 PUSH1 0x40 MLOAD SWAP1 PUSH1 0x3 PUSH1 0x20 DUP4 ADD MSTORE PUSH1 0x20 DUP3 MSTORE PUSH2 0x1ADF DUP3 PUSH2 0x2B13 JUMP JUMPDEST DUP1 EXTCODESIZE ISZERO PUSH2 0x1564 JUMPI PUSH2 0x1B0B SWAP4 DUP6 DUP1 SWAP5 PUSH1 0x40 MLOAD SWAP7 DUP8 SWAP6 DUP7 SWAP5 DUP6 SWAP4 PUSH4 0x10AC2DDF PUSH1 0xE2 SHL DUP6 MSTORE ADDRESS PUSH1 0x4 DUP7 ADD PUSH2 0x2CD4 JUMP JUMPDEST SUB SWAP3 GAS CALL DUP1 ISZERO PUSH2 0x18B8 JUMPI PUSH2 0x1B22 JUMPI JUMPDEST POP PUSH1 0x1 DUP1 SSTORE DUP1 RETURN JUMPDEST PUSH2 0x1B2B SWAP1 PUSH2 0x2AAE JUMP JUMPDEST PUSH2 0x503 JUMPI DUP1 CODESIZE PUSH2 0x1B1A JUMP JUMPDEST POP PUSH1 0x4 SLOAD DUP2 GT ISZERO PUSH2 0x1AAC JUMP JUMPDEST POP CALLVALUE PUSH2 0x503 JUMPI DUP1 PUSH1 0x3 NOT CALLDATASIZE ADD SLT PUSH2 0x503 JUMPI SLOAD PUSH1 0x40 MLOAD PUSH1 0x1 PUSH1 0x1 PUSH1 0xA0 SHL SUB SWAP1 SWAP2 AND DUP2 MSTORE PUSH1 0x20 SWAP1 RETURN JUMPDEST POP CALLVALUE PUSH2 0x503 JUMPI DUP1 PUSH1 0x3 NOT CALLDATASIZE ADD SLT PUSH2 0x503 JUMPI PUSH1 0x8 SLOAD PUSH1 0x40 MLOAD PUSH1 0x1 PUSH1 0x1 PUSH1 0xA0 SHL SUB SWAP1 SWAP2 AND DUP2 MSTORE PUSH1 0x20 SWAP1 RETURN JUMPDEST POP CALLVALUE PUSH2 0x503 JUMPI PUSH1 0x20 CALLDATASIZE PUSH1 0x3 NOT ADD SLT PUSH2 0x503 JUMPI PUSH2 0x1BAC PUSH2 0x2BE0 JUMP JUMPDEST PUSH1 0x4 CALLDATALOAD PUSH1 0x5 SSTORE DUP1 RETURN JUMPDEST POP CALLVALUE PUSH2 0x503 JUMPI DUP1 PUSH1 0x3 NOT CALLDATASIZE ADD SLT PUSH2 0x503 JUMPI PUSH1 0x1E SLOAD PUSH1 0x40 MLOAD PUSH1 0x1 PUSH1 0x1 PUSH1 0xA0 SHL SUB SWAP1 SWAP2 AND DUP2 MSTORE PUSH1 0x20 SWAP1 RETURN JUMPDEST POP CALLVALUE PUSH2 0x503 JUMPI DUP1 PUSH1 0x3 NOT CALLDATASIZE ADD SLT PUSH2 0x503 JUMPI PUSH1 0xF SLOAD PUSH1 0x40 MLOAD PUSH1 0x1 PUSH1 0x1 PUSH1 0xA0 SHL SUB SWAP1 SWAP2 AND DUP2 MSTORE PUSH1 0x20 SWAP1 RETURN JUMPDEST POP CALLVALUE PUSH2 0x503 JUMPI DUP1 PUSH1 0x3 NOT CALLDATASIZE ADD SLT PUSH2 0x503 JUMPI PUSH1 0xD SLOAD PUSH1 0x40 MLOAD PUSH1 0x1 PUSH1 0x1 PUSH1 0xA0 SHL SUB SWAP1 SWAP2 AND DUP2 MSTORE PUSH1 0x20 SWAP1 RETURN JUMPDEST POP CALLVALUE PUSH2 0x503 JUMPI DUP1 PUSH1 0x3 NOT CALLDATASIZE ADD SLT PUSH2 0x503 JUMPI PUSH1 0xE SLOAD PUSH1 0x40 MLOAD PUSH1 0x1 PUSH1 0x1 PUSH1 0xA0 SHL SUB SWAP1 SWAP2 AND DUP2 MSTORE PUSH1 0x20 SWAP1 RETURN JUMPDEST POP CALLVALUE PUSH2 0x503 JUMPI PUSH1 0x20 CALLDATASIZE PUSH1 0x3 NOT ADD SLT PUSH2 0x503 JUMPI DUP1 PUSH1 0x4 CALLDATALOAD PUSH2 0x1C77 PUSH2 0x2BE0 JUMP JUMPDEST PUSH2 0x1C7F PUSH2 0x2D2B JUMP JUMPDEST DUP1 ISZERO ISZERO DUP1 PUSH2 0x1CBB JUMPI JUMPDEST PUSH2 0x1C91 SWAP1 PUSH2 0x2C0C JUMP JUMPDEST PUSH1 0x1 DUP1 PUSH1 0xA0 SHL SUB DUP1 PUSH1 0x18 SLOAD AND SWAP1 PUSH1 0x8 SLOAD AND SWAP1 PUSH1 0x40 MLOAD SWAP1 PUSH1 0x6 PUSH1 0x20 DUP4 ADD MSTORE PUSH1 0x20 DUP3 MSTORE PUSH2 0x1ADF DUP3 PUSH2 0x2B13 JUMP JUMPDEST POP PUSH1 0x4 SLOAD DUP2 GT ISZERO PUSH2 0x1C88 JUMP JUMPDEST POP CALLVALUE PUSH2 0x503 JUMPI DUP1 PUSH1 0x3 NOT CALLDATASIZE ADD SLT PUSH2 0x503 JUMPI PUSH2 0x1CE0 PUSH2 0x2BE0 JUMP JUMPDEST PUSH1 0x0 DUP1 SLOAD PUSH1 0x1 PUSH1 0x1 PUSH1 0xA0 SHL SUB NOT DUP2 AND DUP3 SSTORE PUSH1 0x1 PUSH1 0x1 PUSH1 0xA0 SHL SUB AND PUSH32 0x8BE0079C531659141344CD1FD0A4F28419497F9722A3DAAFE3B4186F6B6457E0 DUP3 DUP1 LOG3 DUP1 RETURN JUMPDEST POP CALLVALUE PUSH2 0x503 JUMPI PUSH1 0x20 CALLDATASIZE PUSH1 0x3 NOT ADD SLT PUSH2 0x503 JUMPI PUSH2 0x1D3B PUSH2 0x29D0 JUMP JUMPDEST PUSH2 0x1D43 PUSH2 0x2BE0 JUMP JUMPDEST DUP2 SLOAD PUSH1 0x40 MLOAD PUSH4 0x70A08231 PUSH1 0xE0 SHL DUP2 MSTORE ADDRESS PUSH1 0x4 DUP3 ADD MSTORE SWAP2 PUSH1 0x1 PUSH1 0x1 PUSH1 0xA0 SHL SUB SWAP1 DUP2 AND SWAP2 AND PUSH1 0x20 DUP4 PUSH1 0x24 DUP2 DUP6 GAS STATICCALL SWAP2 DUP3 ISZERO PUSH2 0x10CA JUMPI DUP5 SWAP3 PUSH2 0x1D87 JUMPI JUMPDEST PUSH2 0x1926 SWAP4 POP PUSH2 0x2F70 JUMP JUMPDEST SWAP2 POP PUSH1 0x20 DUP4 RETURNDATASIZE DUP3 GT PUSH2 0x1DB4 JUMPI JUMPDEST DUP2 PUSH2 0x1DA1 PUSH1 0x20 SWAP4 DUP4 PUSH2 0x2B4A JUMP JUMPDEST DUP2 ADD SUB SLT PUSH2 0x4FE JUMPI PUSH2 0x1926 SWAP3 MLOAD SWAP2 PUSH2 0x1D7D JUMP JUMPDEST RETURNDATASIZE SWAP2 POP PUSH2 0x1D94 JUMP JUMPDEST POP CALLVALUE PUSH2 0x503 JUMPI PUSH1 0x20 CALLDATASIZE PUSH1 0x3 NOT ADD SLT PUSH2 0x503 JUMPI DUP1 PUSH1 0x4 CALLDATALOAD PUSH2 0x1DDA PUSH2 0x2BE0 JUMP JUMPDEST PUSH2 0x1DE2 PUSH2 0x2D2B JUMP JUMPDEST DUP1 ISZERO ISZERO DUP1 PUSH2 0x1E1E JUMPI JUMPDEST PUSH2 0x1DF4 SWAP1 PUSH2 0x2C0C JUMP JUMPDEST PUSH1 0x1 DUP1 PUSH1 0xA0 SHL SUB DUP1 PUSH1 0x18 SLOAD AND SWAP1 PUSH1 0x8 SLOAD AND SWAP1 PUSH1 0x40 MLOAD SWAP1 PUSH1 0x4 PUSH1 0x20 DUP4 ADD MSTORE PUSH1 0x20 DUP3 MSTORE PUSH2 0x1ADF DUP3 PUSH2 0x2B13 JUMP JUMPDEST POP PUSH1 0x4 SLOAD DUP2 GT ISZERO PUSH2 0x1DEB JUMP JUMPDEST POP CALLVALUE PUSH2 0x503 JUMPI DUP1 PUSH1 0x3 NOT CALLDATASIZE ADD SLT PUSH2 0x503 JUMPI PUSH1 0x13 SLOAD PUSH1 0x40 MLOAD PUSH1 0x1 PUSH1 0x1 PUSH1 0xA0 SHL SUB SWAP1 SWAP2 AND DUP2 MSTORE PUSH1 0x20 SWAP1 RETURN JUMPDEST POP CALLVALUE PUSH2 0x503 JUMPI DUP1 PUSH1 0x3 NOT CALLDATASIZE ADD SLT PUSH2 0x503 JUMPI PUSH1 0x20 DUP1 SLOAD PUSH1 0x40 MLOAD PUSH1 0x1 PUSH1 0x1 PUSH1 0xA0 SHL SUB SWAP1 SWAP2 AND DUP2 MSTORE RETURN JUMPDEST POP CALLVALUE PUSH2 0x503 JUMPI DUP1 PUSH1 0x3 NOT CALLDATASIZE ADD SLT PUSH2 0x503 JUMPI PUSH1 0x2 SLOAD PUSH1 0x40 MLOAD PUSH1 0x8 SWAP2 SWAP1 SWAP2 SHR PUSH1 0x1 PUSH1 0x1 PUSH1 0xA0 SHL SUB AND DUP2 MSTORE PUSH1 0x20 SWAP1 RETURN JUMPDEST POP CALLVALUE PUSH2 0x503 JUMPI DUP1 PUSH1 0x3 NOT CALLDATASIZE ADD SLT PUSH2 0x503 JUMPI PUSH1 0xC SLOAD PUSH1 0x40 MLOAD PUSH1 0x1 PUSH1 0x1 PUSH1 0xA0 SHL SUB SWAP1 SWAP2 AND DUP2 MSTORE PUSH1 0x20 SWAP1 RETURN JUMPDEST POP CALLVALUE PUSH2 0x503 JUMPI DUP1 PUSH1 0x3 NOT CALLDATASIZE ADD SLT PUSH2 0x503 JUMPI PUSH1 0x20 PUSH1 0xFF PUSH1 0x2 SLOAD AND PUSH1 0x40 MLOAD SWAP1 ISZERO ISZERO DUP2 MSTORE RETURN JUMPDEST POP CALLVALUE PUSH2 0x503 JUMPI PUSH1 0x20 CALLDATASIZE PUSH1 0x3 NOT ADD SLT PUSH2 0x503 JUMPI DUP1 PUSH1 0x4 CALLDATALOAD PUSH2 0x1F11 PUSH2 0x2BE0 JUMP JUMPDEST PUSH2 0x1F19 PUSH2 0x2D2B JUMP JUMPDEST DUP1 ISZERO ISZERO DUP1 PUSH2 0x1F55 JUMPI JUMPDEST PUSH2 0x1F2B SWAP1 PUSH2 0x2C0C JUMP JUMPDEST PUSH1 0x1 DUP1 PUSH1 0xA0 SHL SUB DUP1 PUSH1 0x18 SLOAD AND SWAP1 PUSH1 0x8 SLOAD AND SWAP1 PUSH1 0x40 MLOAD SWAP1 PUSH1 0x7 PUSH1 0x20 DUP4 ADD MSTORE PUSH1 0x20 DUP3 MSTORE PUSH2 0x1ADF DUP3 PUSH2 0x2B13 JUMP JUMPDEST POP PUSH1 0x4 SLOAD DUP2 GT ISZERO PUSH2 0x1F22 JUMP JUMPDEST POP CALLVALUE PUSH2 0x503 JUMPI DUP1 PUSH1 0x3 NOT CALLDATASIZE ADD SLT PUSH2 0x503 JUMPI PUSH1 0x1D SLOAD PUSH1 0x40 MLOAD PUSH1 0x1 PUSH1 0x1 PUSH1 0xA0 SHL SUB SWAP1 SWAP2 AND DUP2 MSTORE PUSH1 0x20 SWAP1 RETURN JUMPDEST POP CALLVALUE PUSH2 0x503 JUMPI DUP1 PUSH1 0x3 NOT CALLDATASIZE ADD SLT PUSH2 0x503 JUMPI PUSH1 0x11 SLOAD PUSH1 0x40 MLOAD PUSH1 0x1 PUSH1 0x1 PUSH1 0xA0 SHL SUB SWAP1 SWAP2 AND DUP2 MSTORE PUSH1 0x20 SWAP1 RETURN JUMPDEST POP CALLVALUE PUSH2 0x503 JUMPI DUP1 PUSH1 0x3 NOT CALLDATASIZE ADD SLT PUSH2 0x503 JUMPI PUSH1 0x9 SLOAD PUSH1 0x40 MLOAD PUSH1 0x1 PUSH1 0x1 PUSH1 0xA0 SHL SUB SWAP1 SWAP2 AND DUP2 MSTORE PUSH1 0x20 SWAP1 RETURN JUMPDEST POP CALLVALUE PUSH2 0x503 JUMPI PUSH1 0x20 CALLDATASIZE PUSH1 0x3 NOT ADD SLT PUSH2 0x503 JUMPI DUP1 PUSH1 0x4 CALLDATALOAD PUSH2 0x1FFA PUSH2 0x2BE0 JUMP JUMPDEST PUSH2 0x2002 PUSH2 0x2D2B JUMP JUMPDEST DUP1 ISZERO ISZERO DUP1 PUSH2 0x203E JUMPI JUMPDEST PUSH2 0x2014 SWAP1 PUSH2 0x2C0C JUMP JUMPDEST PUSH1 0x1 DUP1 PUSH1 0xA0 SHL SUB DUP1 PUSH1 0x18 SLOAD AND SWAP1 PUSH1 0x8 SLOAD AND SWAP1 PUSH1 0x40 MLOAD SWAP1 PUSH1 0x5 PUSH1 0x20 DUP4 ADD MSTORE PUSH1 0x20 DUP3 MSTORE PUSH2 0x1ADF DUP3 PUSH2 0x2B13 JUMP JUMPDEST POP PUSH1 0x4 SLOAD DUP2 GT ISZERO PUSH2 0x200B JUMP JUMPDEST POP CALLVALUE PUSH2 0x503 JUMPI PUSH1 0x20 CALLDATASIZE PUSH1 0x3 NOT ADD SLT PUSH2 0x503 JUMPI PUSH2 0x2064 PUSH2 0x2BE0 JUMP JUMPDEST PUSH1 0x4 CALLDATALOAD PUSH1 0x4 SSTORE DUP1 RETURN JUMPDEST POP CALLVALUE PUSH2 0x503 JUMPI DUP1 PUSH1 0x3 NOT CALLDATASIZE ADD SLT PUSH2 0x503 JUMPI PUSH1 0x40 MLOAD PUSH32 0x0 PUSH1 0x1 PUSH1 0x1 PUSH1 0xA0 SHL SUB AND DUP2 MSTORE PUSH1 0x20 SWAP1 RETURN JUMPDEST POP CALLVALUE PUSH2 0x503 JUMPI DUP1 PUSH1 0x3 NOT CALLDATASIZE ADD SLT PUSH2 0x503 JUMPI PUSH1 0xB SLOAD PUSH1 0x40 MLOAD PUSH1 0x1 PUSH1 0x1 PUSH1 0xA0 SHL SUB SWAP1 SWAP2 AND DUP2 MSTORE PUSH1 0x20 SWAP1 RETURN JUMPDEST POP CALLVALUE PUSH2 0x503 JUMPI PUSH1 0x60 CALLDATASIZE PUSH1 0x3 NOT ADD SLT PUSH2 0x503 JUMPI PUSH2 0x20F5 PUSH2 0x29D0 JUMP JUMPDEST SWAP1 PUSH2 0x20FE PUSH2 0x29E6 JUMP JUMPDEST SWAP2 PUSH1 0x44 CALLDATALOAD PUSH2 0x210A PUSH2 0x2BE0 JUMP JUMPDEST PUSH2 0x2112 PUSH2 0x2D2B JUMP JUMPDEST PUSH2 0x211A PUSH2 0x2D0D JUMP JUMPDEST DUP1 ISZERO ISZERO DUP1 PUSH2 0x2513 JUMPI JUMPDEST PUSH2 0x212C SWAP1 PUSH2 0x2C0C JUMP JUMPDEST PUSH2 0x213E PUSH2 0x178B PUSH1 0x6 SLOAD PUSH1 0x5 SLOAD SWAP1 PUSH2 0x2C49 JUMP JUMPDEST TIMESTAMP PUSH1 0x6 SSTORE PUSH1 0x40 MLOAD PUSH4 0x23B872DD PUSH1 0xE0 SHL PUSH1 0x20 DUP1 DUP4 ADD SWAP2 SWAP1 SWAP2 MSTORE CALLER PUSH1 0x24 DUP4 ADD MSTORE ADDRESS PUSH1 0x44 DUP4 ADD MSTORE PUSH1 0x64 DUP1 DUP4 ADD DUP5 SWAP1 MSTORE DUP3 MSTORE SWAP3 PUSH1 0x1 PUSH1 0x1 PUSH1 0xA0 SHL SUB DUP2 DUP2 AND SWAP3 PUSH1 0xA0 DUP2 ADD SWAP1 PUSH1 0x1 PUSH1 0x1 PUSH1 0x40 SHL SUB DUP3 GT DUP2 DUP4 LT OR PUSH2 0xE2E JUMPI PUSH2 0x219D SWAP2 PUSH1 0x40 MSTORE DUP5 PUSH2 0x2E91 JUMP JUMPDEST PUSH2 0x21A8 DUP5 DUP9 DUP5 PUSH2 0x32AD JUMP JUMPDEST POP PUSH1 0x40 MLOAD PUSH4 0x70A08231 PUSH1 0xE0 SHL DUP1 DUP3 MSTORE ADDRESS PUSH1 0x4 DUP4 ADD MSTORE DUP9 DUP4 AND SWAP9 SWAP1 SWAP2 DUP8 DUP2 PUSH1 0x24 DUP2 DUP14 GAS STATICCALL SWAP1 DUP2 ISZERO PUSH2 0x2447 JUMPI DUP10 SWAP2 PUSH2 0x24E6 JUMPI JUMPDEST POP PUSH2 0x1EF DUP1 DUP3 MUL SWAP1 DUP3 DUP3 DIV EQ DUP3 ISZERO OR ISZERO PUSH2 0x24D2 JUMPI PUSH2 0x2206 SWAP2 PUSH2 0x3E8 PUSH2 0x21FF SWAP3 DIV SWAP1 PUSH2 0x2DA4 JUMP JUMPDEST DUP6 DUP4 PUSH2 0x32AD JUMP JUMPDEST POP PUSH1 0x40 MLOAD SWAP9 DUP3 DUP11 MSTORE ADDRESS PUSH1 0x4 DUP12 ADD MSTORE DUP8 DUP11 PUSH1 0x24 DUP2 DUP10 GAS STATICCALL SWAP10 DUP11 ISZERO PUSH2 0x2447 JUMPI DUP10 SWAP11 PUSH2 0x24A3 JUMPI JUMPDEST POP PUSH1 0x40 MLOAD SWAP3 DUP4 MSTORE ADDRESS PUSH1 0x4 DUP5 ADD MSTORE DUP8 DUP4 PUSH1 0x24 DUP2 DUP5 GAS STATICCALL SWAP3 DUP4 ISZERO PUSH2 0x2447 JUMPI SWAP1 DUP5 SWAP3 SWAP2 DUP11 SWAP5 PUSH2 0x2470 JUMPI JUMPDEST POP DUP7 LT SWAP5 DUP6 ISZERO PUSH2 0x2469 JUMPI DUP1 SWAP6 JUMPDEST ISZERO PUSH2 0x2461 JUMPI POP SWAP4 JUMPDEST AND SWAP4 DUP5 EQ SWAP8 DUP9 ISZERO PUSH2 0x245A JUMPI DUP1 SWAP9 JUMPDEST ISZERO PUSH2 0x2452 JUMPI POP SWAP1 JUMPDEST PUSH1 0x1A SLOAD PUSH1 0x40 MLOAD PUSH4 0x95EA7B3 PUSH1 0xE0 SHL DUP1 DUP3 MSTORE SWAP2 DUP4 AND PUSH1 0x1 PUSH1 0x1 PUSH1 0xA0 SHL SUB AND PUSH1 0x4 DUP3 ADD MSTORE PUSH1 0x24 DUP2 ADD DUP11 SWAP1 MSTORE SWAP1 SWAP4 SWAP1 DUP8 DUP2 PUSH1 0x44 DUP2 DUP13 DUP11 GAS CALL DUP1 ISZERO PUSH2 0x2447 JUMPI DUP5 SWAP3 DUP10 SWAP3 DUP6 SWAP3 PUSH2 0x242A JUMPI JUMPDEST POP PUSH1 0x1A SLOAD PUSH1 0x40 MLOAD SWAP8 DUP9 MSTORE DUP6 AND PUSH1 0x1 PUSH1 0x1 PUSH1 0xA0 SHL SUB AND PUSH1 0x4 DUP9 ADD MSTORE PUSH1 0x24 DUP8 ADD SWAP4 SWAP1 SWAP4 MSTORE SWAP1 SWAP2 AND SWAP4 SWAP1 DUP2 PUSH1 0x44 DUP2 DUP12 DUP9 GAS CALL DUP1 ISZERO PUSH2 0x1470 JUMPI PUSH2 0x240D JUMPI JUMPDEST POP PUSH1 0x1A SLOAD AND SWAP7 PUSH2 0x12C TIMESTAMP ADD SWAP3 DUP4 TIMESTAMP GT PUSH2 0x23F9 JUMPI SWAP3 DUP8 SWAP9 SWAP3 PUSH1 0x80 SWAP6 SWAP3 PUSH2 0x2389 SWAP6 PUSH1 0x40 MLOAD SWAP5 PUSH2 0x2328 DUP7 PUSH2 0x2AC1 JUMP JUMPDEST DUP6 MSTORE DUP10 DUP6 ADD MSTORE PUSH1 0x64 PUSH1 0x40 DUP6 ADD MSTORE PUSH3 0xD89B3 NOT PUSH1 0x60 DUP6 ADD MSTORE PUSH3 0xD89B4 DUP8 DUP6 ADD MSTORE PUSH1 0xA0 DUP5 ADD MSTORE PUSH1 0xC0 DUP4 ADD MSTORE DUP8 PUSH1 0xE0 DUP4 ADD MSTORE DUP8 PUSH2 0x100 DUP4 ADD MSTORE PUSH2 0xDEAD PUSH2 0x120 DUP4 ADD MSTORE PUSH2 0x140 DUP3 ADD MSTORE PUSH1 0x40 MLOAD SWAP7 DUP8 DUP1 SWAP5 DUP2 SWAP4 PUSH4 0x4418B22B PUSH1 0xE1 SHL DUP4 MSTORE PUSH1 0x4 DUP4 ADD PUSH2 0x2E04 JUMP JUMPDEST SUB SWAP3 GAS CALL SWAP3 DUP4 ISZERO PUSH2 0x10CA JUMPI PUSH32 0xBB878BE59BBF318CAF3828B994EE9BBDB2D9B03C63EE4F98C6EAB2AC9DCDF05A SWAP4 PUSH2 0x23CA JUMPI JUMPDEST POP PUSH1 0x40 MLOAD SWAP1 DUP2 MSTORE LOG1 PUSH1 0x1 DUP1 SSTORE DUP1 RETURN JUMPDEST PUSH2 0x23EA SWAP1 PUSH1 0x80 RETURNDATASIZE DUP2 GT PUSH2 0x23F2 JUMPI JUMPDEST PUSH2 0x23E2 DUP2 DUP4 PUSH2 0x2B4A JUMP JUMPDEST DUP2 ADD SWAP1 PUSH2 0x2DC9 JUMP JUMPDEST POP POP POP PUSH2 0x23BB JUMP JUMPDEST POP RETURNDATASIZE PUSH2 0x23D8 JUMP JUMPDEST PUSH4 0x4E487B71 PUSH1 0xE0 SHL DUP9 MSTORE PUSH1 0x11 PUSH1 0x4 MSTORE PUSH1 0x24 DUP9 REVERT JUMPDEST PUSH2 0x2423 SWAP1 DUP8 RETURNDATASIZE DUP10 GT PUSH2 0xA85 JUMPI PUSH2 0xA76 DUP2 DUP4 PUSH2 0x2B4A JUMP JUMPDEST POP CODESIZE PUSH2 0x22FC JUMP JUMPDEST PUSH2 0x2440 SWAP1 DUP5 RETURNDATASIZE DUP7 GT PUSH2 0xA85 JUMPI PUSH2 0xA76 DUP2 DUP4 PUSH2 0x2B4A JUMP JUMPDEST POP CODESIZE PUSH2 0x22C2 JUMP JUMPDEST PUSH1 0x40 MLOAD RETURNDATASIZE DUP12 DUP3 RETURNDATACOPY RETURNDATASIZE SWAP1 REVERT JUMPDEST SWAP1 POP SWAP1 PUSH2 0x227C JUMP JUMPDEST DUP2 SWAP9 PUSH2 0x2274 JUMP JUMPDEST SWAP1 POP SWAP4 PUSH2 0x2266 JUMP JUMPDEST DUP2 SWAP6 PUSH2 0x225E JUMP JUMPDEST DUP10 DUP1 SWAP3 SWAP6 POP DUP2 SWAP5 POP RETURNDATASIZE DUP4 GT PUSH2 0x249C JUMPI JUMPDEST PUSH2 0x248A DUP2 DUP4 PUSH2 0x2B4A JUMP JUMPDEST DUP2 ADD SUB SLT PUSH2 0x4FE JUMPI DUP4 SWAP2 MLOAD SWAP3 CODESIZE PUSH2 0x2251 JUMP JUMPDEST POP RETURNDATASIZE PUSH2 0x2480 JUMP JUMPDEST SWAP1 SWAP10 POP DUP8 DUP2 DUP2 RETURNDATASIZE DUP4 GT PUSH2 0x24CB JUMPI JUMPDEST PUSH2 0x24BB DUP2 DUP4 PUSH2 0x2B4A JUMP JUMPDEST DUP2 ADD SUB SLT PUSH2 0x4FE JUMPI MLOAD SWAP9 CODESIZE PUSH2 0x222A JUMP JUMPDEST POP RETURNDATASIZE PUSH2 0x24B1 JUMP JUMPDEST PUSH4 0x4E487B71 PUSH1 0xE0 SHL DUP11 MSTORE PUSH1 0x11 PUSH1 0x4 MSTORE PUSH1 0x24 DUP11 REVERT JUMPDEST SWAP1 POP DUP8 DUP2 DUP2 RETURNDATASIZE DUP4 GT PUSH2 0x250C JUMPI JUMPDEST PUSH2 0x24FD DUP2 DUP4 PUSH2 0x2B4A JUMP JUMPDEST DUP2 ADD SUB SLT PUSH2 0x4FE JUMPI MLOAD CODESIZE PUSH2 0x21D9 JUMP JUMPDEST POP RETURNDATASIZE PUSH2 0x24F3 JUMP JUMPDEST POP PUSH1 0x4 SLOAD DUP2 GT ISZERO PUSH2 0x2123 JUMP JUMPDEST POP CALLVALUE PUSH2 0x503 JUMPI DUP1 PUSH1 0x3 NOT CALLDATASIZE ADD SLT PUSH2 0x503 JUMPI PUSH1 0x22 SLOAD PUSH1 0x40 MLOAD PUSH1 0x1 PUSH1 0x1 PUSH1 0xA0 SHL SUB SWAP1 SWAP2 AND DUP2 MSTORE PUSH1 0x20 SWAP1 RETURN JUMPDEST POP CALLVALUE PUSH2 0x503 JUMPI DUP1 PUSH1 0x3 NOT CALLDATASIZE ADD SLT PUSH2 0x503 JUMPI PUSH1 0x20 PUSH1 0x3 SLOAD PUSH1 0x40 MLOAD SWAP1 DUP2 MSTORE RETURN JUMPDEST POP CALLVALUE PUSH2 0x503 JUMPI DUP1 PUSH1 0x3 NOT CALLDATASIZE ADD SLT PUSH2 0x503 JUMPI PUSH1 0x21 SLOAD PUSH1 0x40 MLOAD PUSH1 0x1 PUSH1 0x1 PUSH1 0xA0 SHL SUB SWAP1 SWAP2 AND DUP2 MSTORE PUSH1 0x20 SWAP1 RETURN JUMPDEST POP CALLVALUE PUSH2 0x503 JUMPI PUSH1 0x20 CALLDATASIZE PUSH1 0x3 NOT ADD SLT PUSH2 0x503 JUMPI DUP1 PUSH1 0x4 CALLDATALOAD PUSH2 0x25AD PUSH2 0x2BE0 JUMP JUMPDEST PUSH2 0x25B5 PUSH2 0x2D2B JUMP JUMPDEST DUP1 ISZERO ISZERO DUP1 PUSH2 0x25F1 JUMPI JUMPDEST PUSH2 0x25C7 SWAP1 PUSH2 0x2C0C JUMP JUMPDEST PUSH1 0x1 DUP1 PUSH1 0xA0 SHL SUB DUP1 PUSH1 0x18 SLOAD AND SWAP1 PUSH1 0x8 SLOAD AND SWAP1 PUSH1 0x40 MLOAD SWAP1 PUSH1 0x9 PUSH1 0x20 DUP4 ADD MSTORE PUSH1 0x20 DUP3 MSTORE PUSH2 0x1ADF DUP3 PUSH2 0x2B13 JUMP JUMPDEST POP PUSH1 0x4 SLOAD DUP2 GT ISZERO PUSH2 0x25BE JUMP JUMPDEST POP CALLVALUE PUSH2 0x503 JUMPI PUSH1 0x20 CALLDATASIZE PUSH1 0x3 NOT ADD SLT PUSH2 0x503 JUMPI DUP1 PUSH1 0x4 CALLDATALOAD PUSH2 0x261B PUSH2 0x2BE0 JUMP JUMPDEST PUSH2 0x2623 PUSH2 0x2D2B JUMP JUMPDEST DUP1 ISZERO ISZERO DUP1 PUSH2 0x265F JUMPI JUMPDEST PUSH2 0x2635 SWAP1 PUSH2 0x2C0C JUMP JUMPDEST PUSH1 0x1 DUP1 PUSH1 0xA0 SHL SUB DUP1 PUSH1 0x18 SLOAD AND SWAP1 PUSH1 0x9 SLOAD AND SWAP1 PUSH1 0x40 MLOAD SWAP1 PUSH1 0x8 PUSH1 0x20 DUP4 ADD MSTORE PUSH1 0x20 DUP3 MSTORE PUSH2 0x1ADF DUP3 PUSH2 0x2B13 JUMP JUMPDEST POP PUSH1 0x4 SLOAD DUP2 GT ISZERO PUSH2 0x262C JUMP JUMPDEST POP CALLVALUE PUSH2 0x503 JUMPI PUSH1 0x20 CALLDATASIZE PUSH1 0x3 NOT ADD SLT PUSH2 0x503 JUMPI PUSH1 0x4 CALLDATALOAD PUSH2 0x2688 PUSH2 0x2BE0 JUMP JUMPDEST PUSH1 0x32 DUP2 GT PUSH2 0x2696 JUMPI PUSH1 0x3 SSTORE DUP1 RETURN JUMPDEST PUSH1 0x40 MLOAD PUSH3 0x461BCD PUSH1 0xE5 SHL DUP2 MSTORE PUSH1 0x20 PUSH1 0x4 DUP3 ADD MSTORE PUSH1 0x8 PUSH1 0x24 DUP3 ADD MSTORE PUSH8 0x4D617820302E3525 PUSH1 0xC0 SHL PUSH1 0x44 DUP3 ADD MSTORE PUSH1 0x64 SWAP1 REVERT JUMPDEST POP CALLVALUE PUSH2 0x503 JUMPI DUP1 PUSH1 0x3 NOT CALLDATASIZE ADD SLT PUSH2 0x503 JUMPI PUSH1 0x1A SLOAD PUSH1 0x40 MLOAD PUSH1 0x1 PUSH1 0x1 PUSH1 0xA0 SHL SUB SWAP1 SWAP2 AND DUP2 MSTORE PUSH1 0x20 SWAP1 RETURN JUMPDEST POP CALLVALUE PUSH2 0x503 JUMPI DUP1 PUSH1 0x3 NOT CALLDATASIZE ADD SLT PUSH2 0x503 JUMPI PUSH1 0x10 SLOAD PUSH1 0x40 MLOAD PUSH1 0x1 PUSH1 0x1 PUSH1 0xA0 SHL SUB SWAP1 SWAP2 AND DUP2 MSTORE PUSH1 0x20 SWAP1 RETURN JUMPDEST POP CALLVALUE PUSH2 0x503 JUMPI DUP1 PUSH1 0x3 NOT CALLDATASIZE ADD SLT PUSH2 0x503 JUMPI PUSH1 0x24 SLOAD PUSH1 0x40 MLOAD PUSH1 0x1 PUSH1 0x1 PUSH1 0xA0 SHL SUB SWAP1 SWAP2 AND DUP2 MSTORE PUSH1 0x20 SWAP1 RETURN JUMPDEST POP CALLVALUE PUSH2 0x503 JUMPI PUSH1 0x20 CALLDATASIZE PUSH1 0x3 NOT ADD SLT PUSH2 0x503 JUMPI DUP1 PUSH1 0x4 CALLDATALOAD PUSH2 0x275F PUSH2 0x2BE0 JUMP JUMPDEST PUSH2 0x2767 PUSH2 0x2D2B JUMP JUMPDEST PUSH2 0x276F PUSH2 0x2D0D JUMP JUMPDEST DUP1 ISZERO ISZERO DUP1 PUSH2 0x27C1 JUMPI JUMPDEST PUSH2 0x2781 SWAP1 PUSH2 0x2C0C JUMP JUMPDEST PUSH2 0x2793 PUSH2 0x178B PUSH1 0x6 SLOAD PUSH1 0x5 SLOAD SWAP1 PUSH2 0x2C49 JUMP JUMPDEST TIMESTAMP PUSH1 0x6 SSTORE PUSH1 0x1 DUP1 PUSH1 0xA0 SHL SUB DUP1 PUSH1 0x18 SLOAD AND SWAP1 PUSH1 0x8 SLOAD AND SWAP1 PUSH1 0x40 MLOAD SWAP1 PUSH1 0x1 PUSH1 0x20 DUP4 ADD MSTORE PUSH1 0x20 DUP3 MSTORE PUSH2 0x1ADF DUP3 PUSH2 0x2B13 JUMP JUMPDEST POP PUSH1 0x4 SLOAD DUP2 GT ISZERO PUSH2 0x2778 JUMP JUMPDEST POP CALLVALUE PUSH2 0x503 JUMPI DUP1 PUSH1 0x3 NOT CALLDATASIZE ADD SLT PUSH2 0x503 JUMPI PUSH1 0x20 PUSH1 0x4 SLOAD PUSH1 0x40 MLOAD SWAP1 DUP2 MSTORE RETURN JUMPDEST POP CALLVALUE PUSH2 0x503 JUMPI PUSH1 0x60 CALLDATASIZE PUSH1 0x3 NOT ADD SLT PUSH2 0x503 JUMPI PUSH2 0x2805 PUSH2 0x29D0 JUMP JUMPDEST PUSH2 0x280D PUSH2 0x29E6 JUMP JUMPDEST PUSH2 0x2815 PUSH2 0x29FC JUMP JUMPDEST PUSH2 0x281D PUSH2 0x2BE0 JUMP JUMPDEST PUSH1 0x1 DUP1 PUSH1 0xA0 SHL SUB DUP1 SWAP3 DUP2 PUSH12 0xFFFFFFFFFFFFFFFFFFFFFFFF PUSH1 0xA0 SHL SWAP6 AND DUP6 PUSH1 0x18 SLOAD AND OR PUSH1 0x18 SSTORE AND DUP4 PUSH1 0x19 SLOAD AND OR PUSH1 0x19 SSTORE AND SWAP1 PUSH1 0x1A SLOAD AND OR PUSH1 0x1A SSTORE DUP1 RETURN JUMPDEST POP CALLVALUE PUSH2 0x503 JUMPI DUP1 PUSH1 0x3 NOT CALLDATASIZE ADD SLT PUSH2 0x503 JUMPI PUSH1 0x1C SLOAD PUSH1 0x40 MLOAD PUSH1 0x1 PUSH1 0x1 PUSH1 0xA0 SHL SUB SWAP1 SWAP2 AND DUP2 MSTORE PUSH1 0x20 SWAP1 RETURN JUMPDEST POP CALLVALUE PUSH2 0x503 JUMPI PUSH1 0x20 CALLDATASIZE PUSH1 0x3 NOT ADD SLT PUSH2 0x503 JUMPI PUSH1 0x4 CALLDATALOAD PUSH2 0x289F PUSH2 0x2BE0 JUMP JUMPDEST PUSH2 0x28A7 PUSH2 0x2D2B JUMP JUMPDEST PUSH2 0x28AF PUSH2 0x2D0D JUMP JUMPDEST DUP1 ISZERO ISZERO DUP1 PUSH2 0x2956 JUMPI JUMPDEST PUSH2 0x28C1 SWAP1 PUSH2 0x2C0C JUMP JUMPDEST PUSH2 0x28D3 PUSH2 0x178B PUSH1 0x6 SLOAD PUSH1 0x5 SLOAD SWAP1 PUSH2 0x2C49 JUMP JUMPDEST TIMESTAMP PUSH1 0x6 SSTORE DUP2 PUSH1 0x1 DUP1 PUSH1 0xA0 SHL SUB SWAP2 DUP3 PUSH1 0x18 SLOAD AND SWAP3 PUSH1 0x8 SLOAD AND SWAP3 PUSH1 0x40 MLOAD SWAP2 PUSH1 0x2 PUSH1 0x20 DUP5 ADD MSTORE PUSH1 0x20 DUP4 MSTORE PUSH2 0x2903 DUP4 PUSH2 0x2B13 JUMP JUMPDEST DUP2 EXTCODESIZE ISZERO PUSH2 0x2952 JUMPI DUP4 PUSH2 0x292D SWAP6 PUSH1 0x40 MLOAD SWAP7 DUP8 SWAP6 DUP7 SWAP5 DUP6 SWAP4 PUSH4 0x10AC2DDF PUSH1 0xE2 SHL DUP6 MSTORE ADDRESS PUSH1 0x4 DUP7 ADD PUSH2 0x2CD4 JUMP JUMPDEST SUB SWAP3 GAS CALL DUP1 ISZERO PUSH2 0x18B8 JUMPI PUSH2 0x2943 JUMPI POP PUSH1 0x1 DUP1 SSTORE DUP1 RETURN JUMPDEST PUSH2 0x294C SWAP1 PUSH2 0x2AAE JUMP JUMPDEST CODESIZE PUSH2 0x1B1A JUMP JUMPDEST DUP4 DUP1 REVERT JUMPDEST POP PUSH1 0x4 SLOAD DUP2 GT ISZERO PUSH2 0x28B8 JUMP JUMPDEST POP CALLVALUE PUSH2 0x503 JUMPI DUP1 PUSH1 0x3 NOT CALLDATASIZE ADD SLT PUSH2 0x503 JUMPI PUSH1 0x18 SLOAD PUSH1 0x40 MLOAD PUSH1 0x1 PUSH1 0x1 PUSH1 0xA0 SHL SUB SWAP1 SWAP2 AND DUP2 MSTORE PUSH1 0x20 SWAP1 RETURN JUMPDEST POP CALLVALUE PUSH2 0x503 JUMPI DUP1 PUSH1 0x3 NOT CALLDATASIZE ADD SLT PUSH2 0x503 JUMPI PUSH1 0x1B SLOAD PUSH1 0x40 MLOAD PUSH1 0x1 PUSH1 0x1 PUSH1 0xA0 SHL SUB SWAP1 SWAP2 AND DUP2 MSTORE PUSH1 0x20 SWAP1 RETURN JUMPDEST SWAP1 POP CALLVALUE PUSH2 0x10D9 JUMPI DUP2 PUSH1 0x3 NOT CALLDATASIZE ADD SLT PUSH2 0x10D9 JUMPI PUSH1 0x20 SWAP1 PUSH1 0x5 SLOAD DUP2 MSTORE RETURN JUMPDEST PUSH1 0x4 CALLDATALOAD SWAP1 PUSH1 0x1 PUSH1 0x1 PUSH1 0xA0 SHL SUB DUP3 AND DUP3 SUB PUSH2 0x4FE JUMPI JUMP JUMPDEST PUSH1 0x24 CALLDATALOAD SWAP1 PUSH1 0x1 PUSH1 0x1 PUSH1 0xA0 SHL SUB DUP3 AND DUP3 SUB PUSH2 0x4FE JUMPI JUMP JUMPDEST PUSH1 0x44 CALLDATALOAD SWAP1 PUSH1 0x1 PUSH1 0x1 PUSH1 0xA0 SHL SUB DUP3 AND DUP3 SUB PUSH2 0x4FE JUMPI JUMP JUMPDEST PUSH1 0x64 CALLDATALOAD SWAP1 PUSH1 0x1 PUSH1 0x1 PUSH1 0xA0 SHL SUB DUP3 AND DUP3 SUB PUSH2 0x4FE JUMPI JUMP JUMPDEST PUSH1 0x84 CALLDATALOAD SWAP1 PUSH1 0x1 PUSH1 0x1 PUSH1 0xA0 SHL SUB DUP3 AND DUP3 SUB PUSH2 0x4FE JUMPI JUMP JUMPDEST PUSH1 0xA4 CALLDATALOAD SWAP1 PUSH1 0x1 PUSH1 0x1 PUSH1 0xA0 SHL SUB DUP3 AND DUP3 SUB PUSH2 0x4FE JUMPI JUMP JUMPDEST PUSH1 0xC4 CALLDATALOAD SWAP1 PUSH1 0x1 PUSH1 0x1 PUSH1 0xA0 SHL SUB DUP3 AND DUP3 SUB PUSH2 0x4FE JUMPI JUMP JUMPDEST PUSH1 0xE4 CALLDATALOAD SWAP1 PUSH1 0x1 PUSH1 0x1 PUSH1 0xA0 SHL SUB DUP3 AND DUP3 SUB PUSH2 0x4FE JUMPI JUMP JUMPDEST PUSH2 0x104 CALLDATALOAD SWAP1 PUSH1 0x1 PUSH1 0x1 PUSH1 0xA0 SHL SUB DUP3 AND DUP3 SUB PUSH2 0x4FE JUMPI JUMP JUMPDEST PUSH2 0x124 CALLDATALOAD SWAP1 PUSH1 0x1 PUSH1 0x1 PUSH1 0xA0 SHL SUB DUP3 AND DUP3 SUB PUSH2 0x4FE JUMPI JUMP JUMPDEST PUSH1 0x1 PUSH1 0x1 PUSH1 0x40 SHL SUB DUP2 GT PUSH2 0xE2E JUMPI PUSH1 0x40 MSTORE JUMP JUMPDEST PUSH2 0x160 DUP2 ADD SWAP1 DUP2 LT PUSH1 0x1 PUSH1 0x1 PUSH1 0x40 SHL SUB DUP3 GT OR PUSH2 0xE2E JUMPI PUSH1 0x40 MSTORE JUMP JUMPDEST PUSH1 0x80 DUP2 ADD SWAP1 DUP2 LT PUSH1 0x1 PUSH1 0x1 PUSH1 0x40 SHL SUB DUP3 GT OR PUSH2 0xE2E JUMPI PUSH1 0x40 MSTORE JUMP JUMPDEST PUSH1 0x60 DUP2 ADD SWAP1 DUP2 LT PUSH1 0x1 PUSH1 0x1 PUSH1 0x40 SHL SUB DUP3 GT OR PUSH2 0xE2E JUMPI PUSH1 0x40 MSTORE JUMP JUMPDEST PUSH1 0x40 DUP2 ADD SWAP1 DUP2 LT PUSH1 0x1 PUSH1 0x1 PUSH1 0x40 SHL SUB DUP3 GT OR PUSH2 0xE2E JUMPI PUSH1 0x40 MSTORE JUMP JUMPDEST PUSH2 0x100 DUP2 ADD SWAP1 DUP2 LT PUSH1 0x1 PUSH1 0x1 PUSH1 0x40 SHL SUB DUP3 GT OR PUSH2 0xE2E JUMPI PUSH1 0x40 MSTORE JUMP JUMPDEST SWAP1 PUSH1 0x1F DUP1 NOT SWAP2 ADD AND DUP2 ADD SWAP1 DUP2 LT PUSH1 0x1 PUSH1 0x1 PUSH1 0x40 SHL SUB DUP3 GT OR PUSH2 0xE2E JUMPI PUSH1 0x40 MSTORE JUMP JUMPDEST PUSH1 0x1 PUSH1 0x1 PUSH1 0x40 SHL SUB DUP2 GT PUSH2 0xE2E JUMPI PUSH1 0x5 SHL PUSH1 0x20 ADD SWAP1 JUMP JUMPDEST DUP2 PUSH1 0x1F DUP3 ADD SLT ISZERO PUSH2 0x4FE JUMPI DUP1 CALLDATALOAD SWAP2 PUSH2 0x2B99 DUP4 PUSH2 0x2B6B JUMP JUMPDEST SWAP3 PUSH2 0x2BA7 PUSH1 0x40 MLOAD SWAP5 DUP6 PUSH2 0x2B4A JUMP JUMPDEST DUP1 DUP5 MSTORE PUSH1 0x20 SWAP3 DUP4 DUP1 DUP7 ADD SWAP3 PUSH1 0x5 SHL DUP3 ADD ADD SWAP3 DUP4 GT PUSH2 0x4FE JUMPI DUP4 ADD SWAP1 JUMPDEST DUP3 DUP3 LT PUSH2 0x2BD1 JUMPI POP POP POP POP SWAP1 JUMP JUMPDEST DUP2 CALLDATALOAD DUP2 MSTORE SWAP1 DUP4 ADD SWAP1 DUP4 ADD PUSH2 0x2BC3 JUMP JUMPDEST PUSH1 0x0 SLOAD PUSH1 0x1 PUSH1 0x1 PUSH1 0xA0 SHL SUB AND CALLER SUB PUSH2 0x2BF4 JUMPI JUMP JUMPDEST PUSH1 0x40 MLOAD PUSH4 0x118CDAA7 PUSH1 0xE0 SHL DUP2 MSTORE CALLER PUSH1 0x4 DUP3 ADD MSTORE PUSH1 0x24 SWAP1 REVERT JUMPDEST ISZERO PUSH2 0x2C13 JUMPI JUMP JUMPDEST PUSH1 0x40 MLOAD PUSH3 0x461BCD PUSH1 0xE5 SHL DUP2 MSTORE PUSH1 0x20 PUSH1 0x4 DUP3 ADD MSTORE PUSH1 0xE PUSH1 0x24 DUP3 ADD MSTORE PUSH14 0x125B9D985B1A5908185B5BDD5B9D PUSH1 0x92 SHL PUSH1 0x44 DUP3 ADD MSTORE PUSH1 0x64 SWAP1 REVERT JUMPDEST SWAP2 SWAP1 DUP3 ADD DUP1 SWAP3 GT PUSH2 0xA47 JUMPI JUMP JUMPDEST ISZERO PUSH2 0x2C5D JUMPI JUMP JUMPDEST PUSH1 0x40 MLOAD PUSH3 0x461BCD PUSH1 0xE5 SHL DUP2 MSTORE PUSH1 0x20 PUSH1 0x4 DUP3 ADD MSTORE PUSH1 0xF PUSH1 0x24 DUP3 ADD MSTORE PUSH15 0x436F6F6C646F776E20616374697665 PUSH1 0x88 SHL PUSH1 0x44 DUP3 ADD MSTORE PUSH1 0x64 SWAP1 REVERT JUMPDEST SWAP2 SWAP1 DUP3 MLOAD SWAP3 DUP4 DUP3 MSTORE PUSH1 0x0 JUMPDEST DUP5 DUP2 LT PUSH2 0x2CC0 JUMPI POP POP DUP3 PUSH1 0x0 PUSH1 0x20 DUP1 SWAP5 SWAP6 DUP5 ADD ADD MSTORE PUSH1 0x1F DUP1 NOT SWAP2 ADD AND ADD ADD SWAP1 JUMP JUMPDEST PUSH1 0x20 DUP2 DUP4 ADD DUP2 ADD MLOAD DUP5 DUP4 ADD DUP3 ADD MSTORE ADD PUSH2 0x2C9F JUMP JUMPDEST SWAP5 SWAP4 PUSH1 0x0 SWAP4 PUSH2 0x2D08 SWAP3 PUSH1 0x80 SWAP5 PUSH1 0x1 DUP1 PUSH1 0xA0 SHL SUB DUP1 SWAP3 AND DUP10 MSTORE AND PUSH1 0x20 DUP9 ADD MSTORE PUSH1 0x40 DUP8 ADD MSTORE PUSH1 0xA0 PUSH1 0x60 DUP8 ADD MSTORE PUSH1 0xA0 DUP7 ADD SWAP1 PUSH2 0x2C94 JUMP JUMPDEST SWAP4 ADD MSTORE JUMP JUMPDEST PUSH1 0xFF PUSH1 0x2 SLOAD AND PUSH2 0x2D19 JUMPI JUMP JUMPDEST PUSH1 0x40 MLOAD PUSH4 0xD93C0665 PUSH1 0xE0 SHL DUP2 MSTORE PUSH1 0x4 SWAP1 REVERT JUMPDEST PUSH1 0x2 PUSH1 0x1 SLOAD EQ PUSH2 0x2D3C JUMPI PUSH1 0x2 PUSH1 0x1 SSTORE JUMP JUMPDEST PUSH1 0x40 MLOAD PUSH4 0x3EE5AEB5 PUSH1 0xE0 SHL DUP2 MSTORE PUSH1 0x4 SWAP1 REVERT JUMPDEST DUP1 MLOAD ISZERO PUSH2 0x2D5B JUMPI PUSH1 0x20 ADD SWAP1 JUMP JUMPDEST PUSH4 0x4E487B71 PUSH1 0xE0 SHL PUSH1 0x0 MSTORE PUSH1 0x32 PUSH1 0x4 MSTORE PUSH1 0x24 PUSH1 0x0 REVERT JUMPDEST DUP2 DUP2 MUL SWAP3 SWAP2 DUP2 ISZERO SWAP2 DUP5 DIV EQ OR ISZERO PUSH2 0xA47 JUMPI JUMP JUMPDEST DUP2 ISZERO PUSH2 0x2D8E JUMPI DIV SWAP1 JUMP JUMPDEST PUSH4 0x4E487B71 PUSH1 0xE0 SHL PUSH1 0x0 MSTORE PUSH1 0x12 PUSH1 0x4 MSTORE PUSH1 0x24 PUSH1 0x0 REVERT JUMPDEST SWAP2 SWAP1 DUP3 SUB SWAP2 DUP3 GT PUSH2 0xA47 JUMPI JUMP JUMPDEST SWAP1 DUP2 PUSH1 0x20 SWAP2 SUB SLT PUSH2 0x4FE JUMPI MLOAD DUP1 ISZERO ISZERO DUP2 SUB PUSH2 0x4FE JUMPI SWAP1 JUMP JUMPDEST SWAP2 SWAP1 DUP3 PUSH1 0x80 SWAP2 SUB SLT PUSH2 0x4FE JUMPI DUP2 MLOAD SWAP2 PUSH1 0x20 DUP2 ADD MLOAD PUSH16 0xFFFFFFFFFFFFFFFFFFFFFFFFFFFFFFFF DUP2 AND DUP2 SUB PUSH2 0x4FE JUMPI SWAP2 PUSH1 0x60 PUSH1 0x40 DUP4 ADD MLOAD SWAP3 ADD MLOAD SWAP1 JUMP JUMPDEST SWAP2 SWAP1 SWAP2 PUSH2 0x160 DUP2 ADD SWAP3 PUSH1 0x1 DUP1 PUSH1 0xA0 SHL SUB DUP1 DUP3 MLOAD AND DUP4 MSTORE DUP1 PUSH1 0x20 DUP4 ADD MLOAD AND PUSH1 0x20 DUP5 ADD MSTORE PUSH3 0xFFFFFF PUSH1 0x40 DUP4 ADD MLOAD AND PUSH1 0x40 DUP5 ADD MSTORE PUSH1 0x60 DUP3 ADD MLOAD PUSH1 0x2 SIGNEXTEND PUSH1 0x60 DUP5 ADD MSTORE PUSH1 0x80 DUP3 ADD MLOAD PUSH1 0x2 SIGNEXTEND PUSH1 0x80 DUP5 ADD MSTORE PUSH1 0xA0 DUP3 ADD MLOAD PUSH1 0xA0 DUP5 ADD MSTORE PUSH1 0xC0 DUP3 ADD MLOAD PUSH1 0xC0 DUP5 ADD MSTORE PUSH1 0xE0 DUP3 ADD MLOAD PUSH1 0xE0 DUP5 ADD MSTORE PUSH2 0x100 DUP1 DUP4 ADD MLOAD SWAP1 DUP5 ADD MSTORE PUSH2 0x120 SWAP1 DUP2 DUP4 ADD MLOAD AND SWAP1 DUP4 ADD MSTORE PUSH2 0x140 DUP1 SWAP2 ADD MLOAD SWAP2 ADD MSTORE JUMP JUMPDEST SWAP1 PUSH1 0x0 PUSH1 0x20 SWAP2 DUP3 DUP2 MLOAD SWAP2 ADD DUP3 DUP6 GAS CALL ISZERO PUSH2 0xA3B JUMPI PUSH1 0x0 MLOAD RETURNDATASIZE PUSH2 0x2EE4 JUMPI POP PUSH1 0x1 PUSH1 0x1 PUSH1 0xA0 SHL SUB DUP2 AND EXTCODESIZE ISZERO JUMPDEST PUSH2 0x2EC2 JUMPI POP JUMP JUMPDEST PUSH1 0x40 MLOAD PUSH4 0x5274AFE7 PUSH1 0xE0 SHL DUP2 MSTORE PUSH1 0x1 PUSH1 0x1 PUSH1 0xA0 SHL SUB SWAP1 SWAP2 AND PUSH1 0x4 DUP3 ADD MSTORE PUSH1 0x24 SWAP1 REVERT JUMPDEST PUSH1 0x1 EQ ISZERO PUSH2 0x2EBB JUMP JUMPDEST ISZERO PUSH2 0x2EF4 JUMPI JUMP JUMPDEST PUSH1 0x40 MLOAD PUSH3 0x461BCD PUSH1 0xE5 SHL DUP2 MSTORE PUSH1 0x20 PUSH1 0x4 DUP3 ADD MSTORE PUSH1 0x9 PUSH1 0x24 DUP3 ADD MSTORE PUSH9 0x139BC81C1C9BD99A5D PUSH1 0xBA SHL PUSH1 0x44 DUP3 ADD MSTORE PUSH1 0x64 SWAP1 REVERT JUMPDEST ISZERO PUSH2 0x2F2C JUMPI JUMP JUMPDEST PUSH1 0x64 PUSH1 0x40 MLOAD PUSH3 0x461BCD PUSH1 0xE5 SHL DUP2 MSTORE PUSH1 0x20 PUSH1 0x4 DUP3 ADD MSTORE PUSH1 0x20 PUSH1 0x24 DUP3 ADD MSTORE PUSH32 0x496E73756666696369656E742066756E647320666F722072657061796D656E74 PUSH1 0x44 DUP3 ADD MSTORE REVERT JUMPDEST PUSH1 0x40 MLOAD PUSH4 0xA9059CBB PUSH1 0xE0 SHL PUSH1 0x20 DUP3 ADD MSTORE PUSH1 0x1 PUSH1 0x1 PUSH1 0xA0 SHL SUB SWAP3 SWAP1 SWAP3 AND PUSH1 0x24 DUP4 ADD MSTORE PUSH1 0x44 DUP1 DUP4 ADD SWAP4 SWAP1 SWAP4 MSTORE SWAP2 DUP2 MSTORE PUSH2 0x2FB1 SWAP2 PUSH2 0x2FAC PUSH1 0x64 DUP4 PUSH2 0x2B4A JUMP JUMPDEST PUSH2 0x2E91 JUMP JUMPDEST JUMP JUMPDEST SWAP1 PUSH1 0x1 DUP1 PUSH1 0xA0 SHL SUB PUSH2 0x2FCF DUP4 DUP3 PUSH1 0x8 SLOAD AND DUP4 PUSH1 0x7 SLOAD AND SWAP1 PUSH2 0x32AD JUMP JUMPDEST POP DUP1 PUSH1 0x7 SLOAD AND SWAP3 PUSH1 0x40 DUP1 MLOAD SWAP3 PUSH4 0x70A08231 PUSH1 0xE0 SHL DUP1 DUP6 MSTORE PUSH1 0x4 SWAP7 ADDRESS DUP9 DUP8 ADD MSTORE PUSH1 0x20 SWAP6 DUP7 DUP2 PUSH1 0x24 DUP2 DUP6 GAS STATICCALL SWAP1 DUP2 ISZERO PUSH2 0x3226 JUMPI PUSH1 0x0 SWAP2 PUSH2 0x3246 JUMPI JUMPDEST POP PUSH2 0x1EF DUP1 DUP3 MUL SWAP1 DUP3 DUP3 DIV EQ DUP3 ISZERO OR ISZERO PUSH2 0x3231 JUMPI PUSH2 0x303B SWAP3 SWAP2 PUSH2 0x3E8 PUSH2 0x302F SWAP3 DIV SWAP1 PUSH2 0x2DA4 JUMP JUMPDEST SWAP1 DUP5 PUSH1 0x8 SLOAD AND SWAP1 PUSH2 0x32AD JUMP JUMPDEST POP DUP2 PUSH1 0x7 SLOAD AND SWAP2 DUP4 MLOAD SWAP2 DUP1 DUP4 MSTORE ADDRESS DUP10 DUP5 ADD MSTORE DUP7 DUP4 PUSH1 0x24 DUP2 DUP8 GAS STATICCALL SWAP3 DUP4 ISZERO PUSH2 0x3226 JUMPI PUSH1 0x0 SWAP4 PUSH2 0x31F7 JUMPI JUMPDEST POP DUP2 PUSH1 0x8 SLOAD AND SWAP3 DUP6 MLOAD SWAP2 DUP3 MSTORE ADDRESS DUP11 DUP4 ADD MSTORE DUP8 DUP3 PUSH1 0x24 DUP2 DUP8 GAS STATICCALL SWAP2 DUP3 ISZERO PUSH2 0x31EC JUMPI PUSH1 0x0 SWAP3 PUSH2 0x31BD JUMPI JUMPDEST POP DUP3 PUSH1 0x1A SLOAD AND SWAP4 DUP1 DUP7 LT SWAP6 DUP7 PUSH1 0x0 EQ PUSH2 0x31B6 JUMPI DUP1 SWAP7 JUMPDEST ISZERO PUSH2 0x31AE JUMPI POP SWAP3 JUMPDEST PUSH2 0x12C TIMESTAMP ADD SWAP4 DUP5 TIMESTAMP GT PUSH2 0x3199 JUMPI SWAP2 DUP2 PUSH1 0x80 SWAP8 SWAP7 SWAP6 SWAP4 PUSH2 0x3134 SWAP14 SWAP6 SWAP4 DUP11 MLOAD SWAP9 PUSH2 0x30D1 DUP11 PUSH2 0x2AC1 JUMP JUMPDEST AND DUP9 MSTORE AND DUP11 DUP8 ADD MSTORE PUSH1 0x64 DUP9 DUP8 ADD MSTORE PUSH3 0xD89B3 NOT PUSH1 0x60 DUP8 ADD MSTORE PUSH3 0xD89B4 DUP8 DUP8 ADD MSTORE PUSH1 0xA0 DUP7 ADD MSTORE PUSH1 0xC0 DUP6 ADD MSTORE PUSH1 0x0 PUSH1 0xE0 DUP6 ADD MSTORE PUSH1 0x0 PUSH2 0x100 DUP6 ADD MSTORE PUSH2 0xDEAD PUSH2 0x120 DUP6 ADD MSTORE PUSH2 0x140 DUP5 ADD MSTORE PUSH1 0x0 DUP6 MLOAD DUP1 SWAP11 DUP2 SWAP6 DUP3 SWAP5 PUSH4 0x4418B22B PUSH1 0xE1 SHL DUP5 MSTORE DUP4 ADD PUSH2 0x2E04 JUMP JUMPDEST SUB SWAP3 GAS CALL SWAP5 DUP6 ISZERO PUSH2 0x318E JUMPI PUSH32 0xBB878BE59BBF318CAF3828B994EE9BBDB2D9B03C63EE4F98C6EAB2AC9DCDF05A SWAP5 SWAP6 PUSH2 0x316F JUMPI JUMPDEST POP MLOAD SWAP1 DUP2 MSTORE LOG1 JUMP JUMPDEST PUSH2 0x3186 SWAP1 PUSH1 0x80 RETURNDATASIZE DUP2 GT PUSH2 0x23F2 JUMPI PUSH2 0x23E2 DUP2 DUP4 PUSH2 0x2B4A JUMP JUMPDEST POP POP POP PUSH2 0x3167 JUMP JUMPDEST POP MLOAD RETURNDATASIZE PUSH1 0x0 DUP3 RETURNDATACOPY RETURNDATASIZE SWAP1 REVERT JUMPDEST PUSH1 0x11 DUP13 PUSH4 0x4E487B71 PUSH1 0xE0 SHL PUSH1 0x0 MSTORE MSTORE PUSH1 0x24 PUSH1 0x0 REVERT JUMPDEST SWAP1 POP SWAP3 PUSH2 0x30AA JUMP JUMPDEST DUP2 SWAP7 PUSH2 0x30A2 JUMP JUMPDEST SWAP1 SWAP2 DUP9 DUP3 DUP2 RETURNDATASIZE DUP4 GT PUSH2 0x31E5 JUMPI JUMPDEST PUSH2 0x31D4 DUP2 DUP4 PUSH2 0x2B4A JUMP JUMPDEST DUP2 ADD SUB SLT PUSH2 0x503 JUMPI POP MLOAD SWAP1 CODESIZE PUSH2 0x308C JUMP JUMPDEST POP RETURNDATASIZE PUSH2 0x31CA JUMP JUMPDEST DUP7 MLOAD RETURNDATASIZE PUSH1 0x0 DUP3 RETURNDATACOPY RETURNDATASIZE SWAP1 REVERT JUMPDEST SWAP1 SWAP3 DUP8 DUP3 DUP2 RETURNDATASIZE DUP4 GT PUSH2 0x321F JUMPI JUMPDEST PUSH2 0x320E DUP2 DUP4 PUSH2 0x2B4A JUMP JUMPDEST DUP2 ADD SUB SLT PUSH2 0x503 JUMPI POP MLOAD SWAP2 CODESIZE PUSH2 0x3064 JUMP JUMPDEST POP RETURNDATASIZE PUSH2 0x3204 JUMP JUMPDEST DUP6 MLOAD RETURNDATASIZE PUSH1 0x0 DUP3 RETURNDATACOPY RETURNDATASIZE SWAP1 REVERT JUMPDEST PUSH1 0x11 DUP11 PUSH4 0x4E487B71 PUSH1 0xE0 SHL PUSH1 0x0 MSTORE MSTORE PUSH1 0x24 PUSH1 0x0 REVERT JUMPDEST SWAP1 DUP8 DUP3 DUP2 RETURNDATASIZE DUP4 GT PUSH2 0x326C JUMPI JUMPDEST PUSH2 0x325C DUP2 DUP4 PUSH2 0x2B4A JUMP JUMPDEST DUP2 ADD SUB SLT PUSH2 0x503 JUMPI POP MLOAD CODESIZE PUSH2 0x3008 JUMP JUMPDEST POP RETURNDATASIZE PUSH2 0x3252 JUMP JUMPDEST PUSH1 0x8 SLOAD PUSH1 0xA SLOAD PUSH2 0x32AA SWAP3 PUSH1 0x1 SHR SWAP2 PUSH1 0x1 PUSH1 0x1 PUSH1 0xA0 SHL SUB SWAP2 PUSH2 0x329A SWAP2 DUP5 SWAP2 DUP5 AND SWAP1 DUP5 AND PUSH2 0x3463 JUMP JUMPDEST POP PUSH1 0xA SLOAD PUSH1 0x8 SLOAD DUP3 AND SWAP2 AND PUSH2 0x3463 JUMP JUMPDEST POP JUMP JUMPDEST SWAP1 PUSH2 0x32B9 DUP4 DUP3 DUP5 PUSH2 0x37CE JUMP JUMPDEST PUSH1 0x40 DUP1 MLOAD PUSH4 0x95EA7B3 PUSH1 0xE0 SHL DUP2 MSTORE PUSH1 0x1 PUSH1 0x1 PUSH1 0xA0 SHL SUB PUSH32 0x0 DUP2 AND PUSH1 0x4 DUP4 ADD MSTORE PUSH1 0x24 DUP3 ADD DUP8 SWAP1 MSTORE SWAP2 SWAP6 SWAP5 SWAP1 SWAP2 AND SWAP4 SWAP1 PUSH1 0x20 DUP2 PUSH1 0x44 DUP2 PUSH1 0x0 DUP10 GAS CALL DUP1 ISZERO PUSH2 0x31EC JUMPI PUSH2 0x3444 JUMPI JUMPDEST POP PUSH2 0x12C TIMESTAMP ADD DUP1 TIMESTAMP GT PUSH2 0xA47 JUMPI DUP6 MLOAD SWAP5 PUSH2 0x3335 DUP7 PUSH2 0x2B2E JUMP JUMPDEST DUP6 MSTORE PUSH1 0x1 PUSH1 0x1 PUSH1 0xA0 SHL SUB SWAP4 DUP5 AND PUSH1 0x20 DUP1 DUP8 ADD SWAP2 DUP3 MSTORE PUSH1 0x64 DUP9 DUP9 ADD DUP2 DUP2 MSTORE ADDRESS PUSH1 0x60 DUP11 ADD SWAP1 DUP2 MSTORE PUSH1 0x80 DUP11 ADD SWAP6 DUP7 MSTORE PUSH1 0xA0 DUP11 ADD SWAP7 DUP8 MSTORE PUSH1 0xC0 DUP11 ADD SWAP8 DUP9 MSTORE PUSH1 0x0 PUSH1 0xE0 DUP12 ADD DUP2 DUP2 MSTORE DUP13 MLOAD PUSH4 0x414BF389 PUSH1 0xE0 SHL DUP2 MSTORE SWAP12 MLOAD DUP12 AND PUSH1 0x4 DUP14 ADD MSTORE SWAP6 MLOAD DUP11 AND PUSH1 0x24 DUP13 ADD MSTORE SWAP2 MLOAD PUSH3 0xFFFFFF AND PUSH1 0x44 DUP12 ADD MSTORE MLOAD DUP9 AND SWAP2 DUP10 ADD SWAP2 SWAP1 SWAP2 MSTORE SWAP3 MLOAD PUSH1 0x84 DUP9 ADD MSTORE SWAP3 MLOAD PUSH1 0xA4 DUP8 ADD MSTORE SWAP3 MLOAD PUSH1 0xC4 DUP7 ADD MSTORE SWAP2 MLOAD DUP4 AND PUSH1 0xE4 DUP6 ADD MSTORE SWAP2 DUP4 SWAP2 PUSH2 0x104 SWAP2 DUP4 SWAP2 SWAP1 PUSH32 0x0 AND GAS CALL SWAP2 DUP3 ISZERO PUSH2 0x343A JUMPI POP PUSH1 0x0 SWAP2 PUSH2 0x340B JUMPI POP SWAP1 JUMP JUMPDEST SWAP1 POP PUSH1 0x20 DUP2 RETURNDATASIZE PUSH1 0x20 GT PUSH2 0x3432 JUMPI JUMPDEST DUP2 PUSH2 0x3426 PUSH1 0x20 SWAP4 DUP4 PUSH2 0x2B4A JUMP JUMPDEST DUP2 ADD SUB SLT PUSH2 0x4FE JUMPI MLOAD SWAP1 JUMP JUMPDEST RETURNDATASIZE SWAP2 POP PUSH2 0x3419 JUMP JUMPDEST MLOAD RETURNDATASIZE PUSH1 0x0 DUP3 RETURNDATACOPY RETURNDATASIZE SWAP1 REVERT JUMPDEST PUSH2 0x345C SWAP1 PUSH1 0x20 RETURNDATASIZE PUSH1 0x20 GT PUSH2 0xA85 JUMPI PUSH2 0xA76 DUP2 DUP4 PUSH2 0x2B4A JUMP JUMPDEST POP CODESIZE PUSH2 0x331C JUMP JUMPDEST SWAP1 PUSH2 0x346F DUP4 DUP3 DUP5 PUSH2 0x37CE JUMP JUMPDEST PUSH1 0x40 DUP1 MLOAD PUSH4 0x95EA7B3 PUSH1 0xE0 SHL DUP2 MSTORE PUSH1 0x1 PUSH1 0x1 PUSH1 0xA0 SHL SUB PUSH32 0x0 DUP2 AND PUSH1 0x4 DUP4 ADD MSTORE PUSH1 0x24 DUP3 ADD DUP8 SWAP1 MSTORE SWAP2 SWAP6 SWAP5 SWAP1 SWAP2 AND SWAP4 SWAP1 PUSH1 0x20 DUP2 PUSH1 0x44 DUP2 PUSH1 0x0 DUP10 GAS CALL DUP1 ISZERO PUSH2 0x31EC JUMPI PUSH2 0x35C0 JUMPI JUMPDEST POP PUSH2 0x12C TIMESTAMP ADD DUP1 TIMESTAMP GT PUSH2 0xA47 JUMPI DUP6 MLOAD SWAP5 PUSH2 0x34EB DUP7 PUSH2 0x2B2E JUMP JUMPDEST DUP6 MSTORE PUSH1 0x1 PUSH1 0x1 PUSH1 0xA0 SHL SUB SWAP4 DUP5 AND PUSH1 0x20 DUP1 DUP8 ADD SWAP2 DUP3 MSTORE PUSH2 0xBB8 DUP9 DUP9 ADD SWAP1 DUP2 MSTORE ADDRESS PUSH1 0x60 DUP10 ADD SWAP1 DUP2 MSTORE PUSH1 0x80 DUP10 ADD SWAP5 DUP6 MSTORE PUSH1 0xA0 DUP10 ADD SWAP6 DUP7 MSTORE PUSH1 0xC0 DUP10 ADD SWAP7 DUP8 MSTORE PUSH1 0x0 PUSH1 0xE0 DUP11 ADD DUP2 DUP2 MSTORE DUP12 MLOAD PUSH4 0x414BF389 PUSH1 0xE0 SHL DUP2 MSTORE SWAP11 MLOAD DUP11 AND PUSH1 0x4 DUP13 ADD MSTORE SWAP5 MLOAD DUP10 AND PUSH1 0x24 DUP12 ADD MSTORE SWAP2 MLOAD PUSH3 0xFFFFFF AND PUSH1 0x44 DUP11 ADD MSTORE MLOAD DUP8 AND PUSH1 0x64 DUP10 ADD MSTORE SWAP3 MLOAD PUSH1 0x84 DUP9 ADD MSTORE SWAP3 MLOAD PUSH1 0xA4 DUP8 ADD MSTORE SWAP3 MLOAD PUSH1 0xC4 DUP7 ADD MSTORE SWAP2 MLOAD DUP4 AND PUSH1 0xE4 DUP6 ADD MSTORE SWAP2 DUP4 SWAP2 PUSH2 0x104 SWAP2 DUP4 SWAP2 SWAP1 PUSH32 0x0 AND GAS CALL SWAP2 DUP3 ISZERO PUSH2 0x343A JUMPI POP PUSH1 0x0 SWAP2 PUSH2 0x340B JUMPI POP SWAP1 JUMP JUMPDEST PUSH2 0x35D8 SWAP1 PUSH1 0x20 RETURNDATASIZE PUSH1 0x20 GT PUSH2 0xA85 JUMPI PUSH2 0xA76 DUP2 DUP4 PUSH2 0x2B4A JUMP JUMPDEST POP CODESIZE PUSH2 0x34D2 JUMP JUMPDEST SWAP3 SWAP1 PUSH2 0x35EC DUP3 DUP3 DUP7 PUSH2 0x37CE JUMP JUMPDEST PUSH1 0x40 MLOAD PUSH4 0x95EA7B3 PUSH1 0xE0 SHL DUP2 MSTORE PUSH32 0x0 PUSH1 0x1 PUSH1 0x1 PUSH1 0xA0 SHL SUB AND PUSH1 0x4 DUP3 ADD MSTORE PUSH1 0x24 DUP2 ADD DUP5 SWAP1 MSTORE SWAP1 SWAP4 SWAP1 PUSH1 0x20 DUP2 DUP1 PUSH1 0x44 DUP2 ADD SUB DUP2 PUSH1 0x0 PUSH1 0x1 PUSH1 0x1 PUSH1 0xA0 SHL SUB DUP12 AND GAS CALL DUP1 ISZERO PUSH2 0xA3B JUMPI PUSH2 0x3752 JUMPI JUMPDEST POP PUSH2 0x12C TIMESTAMP ADD TIMESTAMP GT PUSH2 0xA47 JUMPI PUSH3 0xFFFFFF SWAP2 PUSH1 0x40 MLOAD SWAP6 PUSH2 0x3673 DUP8 PUSH2 0x2B2E JUMP JUMPDEST PUSH1 0x1 PUSH1 0x1 PUSH1 0xA0 SHL SUB SWAP1 DUP2 AND DUP8 MSTORE SWAP1 DUP2 AND PUSH1 0x20 DUP1 DUP9 ADD SWAP2 DUP3 MSTORE SWAP4 SWAP1 SWAP3 AND PUSH1 0x40 DUP1 DUP9 ADD SWAP2 DUP3 MSTORE ADDRESS PUSH1 0x60 DUP10 ADD SWAP1 DUP2 MSTORE TIMESTAMP PUSH2 0x12C ADD PUSH1 0x80 DUP11 ADD SWAP1 DUP2 MSTORE PUSH1 0xA0 DUP11 ADD SWAP8 DUP9 MSTORE PUSH1 0xC0 DUP11 ADD SWAP9 DUP10 MSTORE PUSH1 0x0 PUSH1 0xE0 DUP12 ADD DUP2 DUP2 MSTORE SWAP4 MLOAD PUSH4 0x414BF389 PUSH1 0xE0 SHL DUP2 MSTORE SWAP11 MLOAD DUP7 AND PUSH1 0x4 DUP13 ADD MSTORE SWAP6 MLOAD DUP6 AND PUSH1 0x24 DUP12 ADD MSTORE SWAP3 MLOAD PUSH3 0xFFFFFF AND PUSH1 0x44 DUP11 ADD MSTORE MLOAD DUP4 AND PUSH1 0x64 DUP10 ADD MSTORE SWAP1 MLOAD PUSH1 0x84 DUP9 ADD MSTORE SWAP4 MLOAD PUSH1 0xA4 DUP8 ADD MSTORE SWAP4 MLOAD PUSH1 0xC4 DUP7 ADD MSTORE SWAP2 MLOAD DUP4 AND PUSH1 0xE4 DUP6 ADD MSTORE SWAP2 DUP4 SWAP2 PUSH2 0x104 SWAP2 DUP4 SWAP2 SWAP1 PUSH32 0x0 AND GAS CALL SWAP1 DUP2 ISZERO PUSH2 0xA3B JUMPI PUSH1 0x0 SWAP2 PUSH2 0x340B JUMPI POP SWAP1 JUMP JUMPDEST PUSH2 0x376A SWAP1 PUSH1 0x20 RETURNDATASIZE PUSH1 0x20 GT PUSH2 0xA85 JUMPI PUSH2 0xA76 DUP2 DUP4 PUSH2 0x2B4A JUMP JUMPDEST POP CODESIZE PUSH2 0x3655 JUMP JUMPDEST MLOAD SWAP1 PUSH10 0xFFFFFFFFFFFFFFFFFFFF DUP3 AND DUP3 SUB PUSH2 0x4FE JUMPI JUMP JUMPDEST SWAP1 DUP2 PUSH1 0xA0 SWAP2 SUB SLT PUSH2 0x4FE JUMPI PUSH2 0x379C DUP2 PUSH2 0x3771 JUMP JUMPDEST SWAP2 PUSH1 0x20 DUP3 ADD MLOAD SWAP2 PUSH1 0x40 DUP2 ADD MLOAD SWAP2 PUSH2 0x37BA PUSH1 0x80 PUSH1 0x60 DUP5 ADD MLOAD SWAP4 ADD PUSH2 0x3771 JUMP JUMPDEST SWAP1 JUMP JUMPDEST PUSH1 0xFF AND PUSH1 0x4D DUP2 GT PUSH2 0xA47 JUMPI PUSH1 0xA EXP SWAP1 JUMP JUMPDEST PUSH2 0x37D7 DUP2 PUSH2 0x3A0A JUMP JUMPDEST SWAP3 PUSH2 0x37E1 DUP4 PUSH2 0x3A0A JUMP JUMPDEST PUSH1 0x1 PUSH1 0x1 PUSH1 0xA0 SHL SUB SWAP5 DUP6 AND SWAP3 SWAP1 SWAP2 SWAP1 DUP4 ISZERO DUP1 ISZERO PUSH2 0x3A00 JUMPI JUMPDEST PUSH2 0x39F5 JUMPI PUSH1 0x40 DUP1 MLOAD SWAP7 DUP8 SWAP6 DUP7 SWAP6 PUSH4 0x3FABE5A3 PUSH1 0xE2 SHL SWAP2 DUP3 DUP9 MSTORE PUSH1 0xA0 SWAP9 DUP10 SWAP2 PUSH1 0x4 SWAP13 DUP14 SWAP2 GAS STATICCALL SWAP2 DUP3 ISZERO PUSH2 0x39EA JUMPI SWAP1 DUP11 DUP10 SWAP3 PUSH1 0x0 SWAP10 DUP11 SWAP6 PUSH2 0x39C2 JUMPI JUMPDEST POP DUP7 MLOAD SWAP6 DUP7 SWAP4 DUP5 SWAP3 DUP4 MSTORE AND GAS STATICCALL SWAP2 DUP3 ISZERO PUSH2 0x39B7 JUMPI PUSH1 0x0 SWAP8 DUP9 SWAP4 PUSH2 0x397E JUMPI JUMPDEST POP POP PUSH1 0x0 DUP7 SGT DUP1 PUSH2 0x3974 JUMPI JUMPDEST ISZERO PUSH2 0x3939 JUMPI PUSH2 0xE0F NOT TIMESTAMP ADD SWAP1 TIMESTAMP DUP3 GT PUSH2 0x3231 JUMPI DUP2 GT ISZERO SWAP2 DUP3 PUSH2 0x392E JUMPI JUMPDEST POP POP ISZERO PUSH2 0x38F6 JUMPI POP PUSH2 0x38C5 SWAP5 SWAP4 PUSH2 0x38B4 PUSH2 0x38BF SWAP5 PUSH2 0x38AF PUSH2 0x38A4 SWAP6 PUSH2 0x38A9 PUSH2 0x38A4 PUSH2 0x38B9 SWAP8 PUSH2 0x3B1E JUMP JUMPDEST PUSH2 0x37BD JUMP JUMPDEST SWAP1 PUSH2 0x2D71 JUMP JUMPDEST PUSH2 0x2D71 JUMP JUMPDEST PUSH2 0x2D84 JUMP JUMPDEST SWAP3 PUSH2 0x3B1E JUMP JUMPDEST SWAP1 PUSH2 0x2D84 JUMP JUMPDEST SWAP1 PUSH1 0x63 DUP3 MUL SWAP2 DUP1 DUP4 DIV PUSH1 0x63 EQ SWAP1 ISZERO OR ISZERO PUSH2 0x38E1 JUMPI POP PUSH1 0x64 SWAP1 DIV SWAP1 JUMP JUMPDEST PUSH1 0x11 SWAP1 PUSH4 0x4E487B71 PUSH1 0xE0 SHL PUSH1 0x0 MSTORE MSTORE PUSH1 0x24 PUSH1 0x0 REVERT JUMPDEST MLOAD PUSH3 0x461BCD PUSH1 0xE5 SHL DUP2 MSTORE PUSH1 0x20 DUP2 DUP9 ADD MSTORE PUSH1 0x13 PUSH1 0x24 DUP3 ADD MSTORE PUSH19 0x5374616C65206F7261636C6520707269636573 PUSH1 0x68 SHL PUSH1 0x44 DUP3 ADD MSTORE PUSH1 0x64 SWAP1 REVERT JUMPDEST LT ISZERO SWAP1 POP CODESIZE DUP1 PUSH2 0x387A JUMP JUMPDEST DUP3 MLOAD PUSH3 0x461BCD PUSH1 0xE5 SHL DUP2 MSTORE PUSH1 0x20 DUP2 DUP12 ADD MSTORE PUSH1 0x15 PUSH1 0x24 DUP3 ADD MSTORE PUSH21 0x496E76616C6964206F7261636C6520707269636573 PUSH1 0x58 SHL PUSH1 0x44 DUP3 ADD MSTORE PUSH1 0x64 SWAP1 REVERT JUMPDEST POP PUSH1 0x0 DUP8 SGT PUSH2 0x385D JUMP JUMPDEST DUP1 SWAP2 SWAP3 SWAP9 POP PUSH2 0x39A2 SWAP4 POP SWAP1 RETURNDATASIZE LT PUSH2 0x39B0 JUMPI JUMPDEST PUSH2 0x399A DUP2 DUP4 PUSH2 0x2B4A JUMP JUMPDEST DUP2 ADD SWAP1 PUSH2 0x3788 JUMP JUMPDEST POP SWAP8 SWAP3 POP POP SWAP6 SWAP1 CODESIZE DUP1 PUSH2 0x3851 JUMP JUMPDEST POP RETURNDATASIZE PUSH2 0x3990 JUMP JUMPDEST DUP4 MLOAD RETURNDATASIZE PUSH1 0x0 DUP3 RETURNDATACOPY RETURNDATASIZE SWAP1 REVERT JUMPDEST SWAP1 SWAP5 POP PUSH2 0x39DD SWAP2 SWAP10 POP DUP4 RETURNDATASIZE DUP6 GT PUSH2 0x39B0 JUMPI PUSH2 0x399A DUP2 DUP4 PUSH2 0x2B4A JUMP JUMPDEST POP SWAP11 SWAP3 POP POP SWAP9 SWAP4 CODESIZE PUSH2 0x3833 JUMP JUMPDEST DUP5 MLOAD RETURNDATASIZE PUSH1 0x0 DUP3 RETURNDATACOPY RETURNDATASIZE SWAP1 REVERT JUMPDEST POP POP POP POP POP POP PUSH1 0x0 SWAP1 JUMP JUMPDEST POP DUP6 DUP4 AND ISZERO PUSH2 0x37F9 JUMP JUMPDEST PUSH1 0x7 SLOAD PUSH1 0x1 PUSH1 0x1 PUSH1 0xA0 SHL SUB SWAP2 DUP3 AND SWAP1 DUP3 AND DUP2 EQ PUSH2 0x3B16 JUMPI DUP2 PUSH1 0x9 SLOAD AND DUP2 EQ PUSH2 0x3B0E JUMPI DUP2 PUSH1 0xA SLOAD AND DUP2 EQ PUSH2 0x3B06 JUMPI DUP2 PUSH1 0x10 SLOAD AND DUP2 EQ PUSH2 0x3AFE JUMPI DUP2 PUSH1 0x11 SLOAD AND DUP2 EQ PUSH2 0x3AF6 JUMPI DUP2 PUSH1 0x12 SLOAD AND DUP2 EQ PUSH2 0x3AEE JUMPI DUP2 PUSH1 0x13 SLOAD AND DUP2 EQ PUSH2 0x3AE6 JUMPI DUP2 PUSH1 0x14 SLOAD AND DUP2 EQ PUSH2 0x3ADE JUMPI DUP2 PUSH1 0x15 SLOAD AND DUP2 EQ PUSH2 0x3AD6 JUMPI DUP2 PUSH1 0x16 SLOAD AND DUP2 EQ PUSH2 0x3ACE JUMPI DUP2 PUSH1 0x17 SLOAD AND EQ PUSH2 0x3AC7 JUMPI PUSH1 0x40 MLOAD PUSH3 0x461BCD PUSH1 0xE5 SHL DUP2 MSTORE PUSH1 0x20 PUSH1 0x4 DUP3 ADD MSTORE PUSH1 0x11 PUSH1 0x24 DUP3 ADD MSTORE PUSH17 0x2AB739BAB83837B93A32B2103A37B5B2B7 PUSH1 0x79 SHL PUSH1 0x44 DUP3 ADD MSTORE PUSH1 0x64 SWAP1 REVERT JUMPDEST PUSH1 0x25 SLOAD AND SWAP1 JUMP JUMPDEST POP PUSH1 0x24 SLOAD AND SWAP1 JUMP JUMPDEST POP PUSH1 0x23 SLOAD AND SWAP1 JUMP JUMPDEST POP PUSH1 0x22 SLOAD AND SWAP1 JUMP JUMPDEST POP PUSH1 0x21 SLOAD AND SWAP1 JUMP JUMPDEST POP PUSH1 0x20 SLOAD AND SWAP1 JUMP JUMPDEST POP PUSH1 0x1F SLOAD AND SWAP1 JUMP JUMPDEST POP PUSH1 0x1E SLOAD AND SWAP1 JUMP JUMPDEST POP PUSH1 0x1D SLOAD AND SWAP1 JUMP JUMPDEST POP PUSH1 0x1C SLOAD AND SWAP1 JUMP JUMPDEST POP PUSH1 0x1B SLOAD AND SWAP1 JUMP JUMPDEST PUSH1 0x8 SLOAD PUSH1 0x1 PUSH1 0x1 PUSH1 0xA0 SHL SUB SWAP2 DUP3 AND SWAP2 SWAP1 DUP2 AND DUP3 EQ DUP1 ISZERO PUSH2 0x3C3B JUMPI JUMPDEST PUSH2 0x3C34 JUMPI DUP1 PUSH1 0x9 SLOAD AND DUP3 EQ PUSH2 0x3C2D JUMPI DUP1 PUSH1 0xA SLOAD AND DUP3 EQ DUP1 ISZERO PUSH2 0x3C20 JUMPI JUMPDEST DUP1 ISZERO PUSH2 0x3C13 JUMPI JUMPDEST DUP1 ISZERO PUSH2 0x3C06 JUMPI JUMPDEST DUP1 ISZERO PUSH2 0x3BF9 JUMPI JUMPDEST DUP1 ISZERO PUSH2 0x3BEC JUMPI JUMPDEST DUP1 ISZERO PUSH2 0x3BDF JUMPI JUMPDEST DUP1 ISZERO PUSH2 0x3BD2 JUMPI JUMPDEST PUSH2 0x3BCB JUMPI PUSH1 0x17 SLOAD AND EQ PUSH2 0x3BC6 JUMPI PUSH1 0x40 MLOAD PUSH3 0x461BCD PUSH1 0xE5 SHL DUP2 MSTORE PUSH1 0x20 PUSH1 0x4 DUP3 ADD MSTORE PUSH1 0x11 PUSH1 0x24 DUP3 ADD MSTORE PUSH17 0x2AB739BAB83837B93A32B2103A37B5B2B7 PUSH1 0x79 SHL PUSH1 0x44 DUP3 ADD MSTORE PUSH1 0x64 SWAP1 REVERT JUMPDEST PUSH1 0x5 SWAP1 JUMP JUMPDEST POP POP PUSH1 0x12 SWAP1 JUMP JUMPDEST POP DUP1 PUSH1 0x16 SLOAD AND DUP3 EQ PUSH2 0x3B80 JUMP JUMPDEST POP DUP1 PUSH1 0x15 SLOAD AND DUP3 EQ PUSH2 0x3B79 JUMP JUMPDEST POP DUP1 PUSH1 0x14 SLOAD AND DUP3 EQ PUSH2 0x3B72 JUMP JUMPDEST POP DUP1 PUSH1 0x13 SLOAD AND DUP3 EQ PUSH2 0x3B6B JUMP JUMPDEST POP DUP1 PUSH1 0x12 SLOAD AND DUP3 EQ PUSH2 0x3B64 JUMP JUMPDEST POP DUP1 PUSH1 0x11 SLOAD AND DUP3 EQ PUSH2 0x3B5D JUMP JUMPDEST POP DUP1 PUSH1 0x10 SLOAD AND DUP3 EQ PUSH2 0x3B56 JUMP JUMPDEST POP POP PUSH1 0x8 SWAP1 JUMP JUMPDEST POP POP PUSH1 0x6 SWAP1 JUMP JUMPDEST POP DUP1 PUSH1 0x7 SLOAD AND DUP3 EQ PUSH2 0x3B39 JUMP INVALID LOG2 PUSH5 0x6970667358 0x22 SLT KECCAK256 0xD5 0x2C PUSH24 0x2BC330228D66E380396CBB1BFBFBA8D6014C83C3307C09BD CODECOPY SWAP11 0xB7 MUL LOG0 PUSH5 0x736F6C6343 STOP ADDMOD EQ STOP CALLER "},"methodIdentifiers":{"AAVE_POOL()":"08a01675","AAVE_TOKEN()":"e71e6bcb","ARB()":"64a285fd","BALANCER_VAULT()":"bc163846","BONK()":"bfbba317","CRV()":"945c9142","GMX()":"438dbd32","GRAIL()":"7a266038","LDO()":"d88bba11","LINK()":"1b6b6d23","MAGIC()":"5e41813d","PENDLE()":"7cf738d2","PEPE()":"e4fbaecb","POSITION_MANAGER()":"1bea83fe","RDNT()":"787739cf","SKIM_ROUTER()":"4b083bb6","UNI()":"541bcb76","USDC()":"89a30271","USDT()":"c54e44eb","WBTC()":"4dede3de","WETH()":"ad5c4648","aaveOracle()":"6372b281","addGaugeBribe(address,uint256)":"9557bcea","arbOracle()":"2e56802c","autoCompoundFarm(address)":"9da55967","basisTradeLoop(uint256)":"580cb3b4","bonkOracle()":"ebb92cba","bootstrapBalancer(uint256)":"a84e5850","bootstrapEmpire(uint256)":"13c89efe","bootstrapPair(address,address,uint256)":"3ad396b2","btcLiquidArb(uint256)":"20c0a630","cexDexPegArb(uint256)":"8e475184","cooldownPeriod()":"04646a49","crossDexCurveArb(uint256)":"4d321338","crvOracle()":"b8165813","devFeeBP()":"3175e026","emergencyWithdraw(address)":"6ff1c9bc","executeFlashLoan(address,uint256,bytes)":"f3df1253","lastTradeTime()":"d5eee8b6","ldoOracle()":"32e0ebb2","linkOracle()":"7e26edb1","maxTradeSize()":"10fa79e2","owner()":"8da5cb5b","paused()":"5c975abb","pepeOracle()":"193ef709","quadArb(uint256)":"2b2d1534","receiveFlashLoan(address[],uint256[],uint256[],bytes)":"f04f2707","renounceOwnership()":"715018a6","rwaPegArb(uint256)":"77300223","setCooldownPeriod(uint256)":"80ea3de1","setDevFee(uint256)":"1c75b6b2","setMaxTradeSize(uint256)":"4b3f3378","setOracles(address,address,address,address,address,address,address,address,address,address)":"91c63e12","setProtocolAddresses(address,address,address)":"1056305e","setTokenAddresses(address,address,address,address,address,address,address,address,address,address,address,address,address,address,address,address,address)":"f7baa67d","startInfinitePrint(uint256)":"08a5d1fc","transferOwnership(address)":"f2fde38b","treasury()":"61d027b3","triangularStableArb(uint256)":"6ecd1551","uniOracle()":"db9dc578","usdtOracle()":"07a79fc7","wbtcOracle()":"09eaed95","wethOracle()":"552672b4"}}}}}