{"contracts/SkimRouter.sol":{"SkimRouter":{"abi":[{"inputs":[{"internalType":"address","name":"_treasury","type":"address"}],"stateMutability":"nonpayable","type":"constructor"},{"inputs":[{"internalType":"address","name":"owner","type":"address"}],"name":"OwnableInvalidOwner","type":"error"},{"inputs":[{"internalType":"address","name":"account","type":"address"}],"name":"OwnableUnauthorizedAccount","type":"error"},{"inputs":[{"internalType":"address","name":"token","type":"address"}],"name":"SafeERC20FailedOperation","type":"error"},{"anonymous":false,"inputs":[{"indexed":true,"internalType":"address","name":"previousOwner","type":"address"},{"indexed":true,"internalType":"address","name":"newOwner","type":"address"}],"name":"OwnershipTransferred","type":"event"},{"inputs":[],"name":"OFFICIAL_ROUTER","outputs":[{"internalType":"contract ISwapRouter","name":"","type":"address"}],"stateMutability":"view","type":"function"},{"inputs":[],"name":"devFeeBP","outputs":[{"internalType":"uint256","name":"","type":"uint256"}],"stateMutability":"view","type":"function"},{"inputs":[],"name":"owner","outputs":[{"internalType":"address","name":"","type":"address"}],"stateMutability":"view","type":"function"},{"inputs":[],"name":"renounceOwnership","outputs":[],"stateMutability":"nonpayable","type":"function"},{"inputs":[{"internalType":"address","name":"token","type":"address"}],"name":"rescue","outputs":[],"stateMutability":"nonpayable","type":"function"},{"inputs":[{"internalType":"uint256","name":"newFeeBP","type":"uint256"}],"name":"setDevFee","outputs":[],"stateMutability":"nonpayable","type":"function"},{"inputs":[{"internalType":"address","name":"tokenIn","type":"address"},{"internalType":"address","name":"tokenOut","type":"address"},{"internalType":"uint24","name":"poolFee","type":"uint24"},{"internalType":"uint256","name":"amountIn","type":"uint256"},{"internalType":"uint256","name":"amountOutMinimum","type":"uint256"},{"internalType":"address","name":"recipient","type":"address"}],"name":"swapExactInputSingle","outputs":[{"internalType":"uint256","name":"amountOut","type":"uint256"}],"stateMutability":"nonpayable","type":"function"},{"inputs":[{"internalType":"address","name":"newOwner","type":"address"}],"name":"transferOwnership","outputs":[],"stateMutability":"nonpayable","type":"function"},{"inputs":[],"name":"treasury","outputs":[{"internalType":"address","name":"","type":"address"}],"stateMutability":"view","type":"function"},{"stateMutability":"payable","type":"receive"}],"evm":{"bytecode":{"linkReferences":{},"object":"6080346100cb57601f61085738819003918201601f19168301916001600160401b038311848410176100d0578084926020946040528339810103126100cb57516001600160a01b0390818116908190036100cb5733156100b25760005460018060a01b0319903382821617600055604051933391167f8be0079c531659141344cd1fd0a4f28419497f9722a3daafe3b4186f6b6457e0600080a36005600255600154161760015561077090816100e78239f35b604051631e4fbdf760e01b815260006004820152602490fd5b600080fd5b634e487b7160e01b600052604160045260246000fdfe604060808152600436101561001d575b50361561001b57600080fd5b005b60003560e01c80631c75b6b2146105b45780632a30877f146105855780633175e0261461056657806361d027b31461053d5780636471a9eb14610241578063715018a6146101e8578063839006f2146101405780638da5cb5b146101175763f2fde38b0361000f57346101125760203660031901126101125761009e61060f565b6100a6610625565b6001600160a01b039081169182156100fb5750600054826bffffffffffffffffffffffff60a01b821617600055167f8be0079c531659141344cd1fd0a4f28419497f9722a3daafe3b4186f6b6457e0600080a3005b51631e4fbdf760e01b815260006004820152602490fd5b600080fd5b50346101125760003660031901126101125760005490516001600160a01b039091168152602090f35b50346101125760203660031901126101125761015a61060f565b90610163610625565b60005481516370a0823160e01b8152306004820152926001600160a01b039182169116602084602481845afa9283156101de57506000926101a9575b61001b9350610680565b91506020833d82116101d6575b816101c36020938361065e565b810103126101125761001b92519161019f565b3d91506101b6565b513d6000823e3d90fd5b3461011257600036600319011261011257610201610625565b600080546001600160a01b0319811682556001600160a01b03167f8be0079c531659141344cd1fd0a4f28419497f9722a3daafe3b4186f6b6457e08280a3005b50346101125760c03660031901126101125761025b61060f565b906024356001600160a01b038116908190036101125760443562ffffff81168091036101125760a4356001600160a01b03811681036101125783516323b872dd60e01b60208201523360248201523060448201526064803581830152815260a081019067ffffffffffffffff8211818310176104a9579085526102e7906001600160a01b0387166106d2565b600254606435808202939181159185041417156104bf576127108304610518575b6103186127108404606435610651565b855163095ea7b360e01b8152733fc91a3afd70395cd496e5b6f698ebf5e87d07946004820152602481019190915260208160448160006001600160a01b038c165af1801561050d576104d5575b5061012c4201928342116104bf576127106103839104606435610651565b93855196610100880188811067ffffffffffffffff8211176104a95787526001600160a01b0390811688526020808901928352888801938452938116606089019081526080890195865260a089019687526084803560c08b01908152600060e08c018181528b5163414bf38960e01b81529c51861660048e01529551851660248d0152955162ffffff1660448c01529151831660648b0152955195890195909552945160a4880152925160c4870152915190921660e48501528390610104908290733fc91a3afd70395cd496e5b6f698ebf5e87d07945af19081156101de57600091610474575b6020925051908152f35b90506020823d6020116104a1575b8161048f6020938361065e565b8101031261011257602091519061046a565b3d9150610482565b634e487b7160e01b600052604160045260246000fd5b634e487b7160e01b600052601160045260246000fd5b6020813d602011610505575b816104ee6020938361065e565b810103126101125751801515036101125738610365565b3d91506104e1565b86513d6000823e3d90fd5b600154610538906127108504906001600160a01b03908116908916610680565b610308565b50346101125760003660031901126101125760015490516001600160a01b039091168152602090f35b5034610112576000366003190112610112576020906002549051908152f35b50346101125760003660031901126101125760209051733fc91a3afd70395cd496e5b6f698ebf5e87d07948152f35b503461011257602036600319011261011257600435906105d2610625565b601482116105e05750600255005b5162461bcd60e51b81526020600482015260096024820152686d617820302e32302560b81b6044820152606490fd5b600435906001600160a01b038216820361011257565b6000546001600160a01b0316330361063957565b60405163118cdaa760e01b8152336004820152602490fd5b919082039182116104bf57565b90601f8019910116810190811067ffffffffffffffff8211176104a957604052565b60405163a9059cbb60e01b60208201526001600160a01b039092166024830152604480830193909352918152608081019167ffffffffffffffff8311828410176104a9576106d0926040526106d2565b565b906000602091828151910182855af11561072e576000513d61072557506001600160a01b0381163b155b6107035750565b604051635274afe760e01b81526001600160a01b039091166004820152602490fd5b600114156106fc565b6040513d6000823e3d90fdfea2646970667358221220a99709249e9e86f2391f100c4912dc4c58916492e1830a68cfb69e72ec7ae6ad64736f6c63430008140033","opcodes":"PUSH1 0x80 CALLVALUE PUSH2 0xCB JUMPI PUSH1 0x1F PUSH2 0x857 CODESIZE DUP2 SWAP1 SUB SWAP2 DUP3 ADD PUSH1 0x1F NOT AND DUP4 ADD SWAP2 PUSH1 0x1 PUSH1 0x1 PUSH1 0x40 SHL SUB DUP4 GT DUP5 DUP5 LT OR PUSH2 0xD0 JUMPI DUP1 DUP5 SWAP3 PUSH1 0x20 SWAP5 PUSH1 0x40 MSTORE DUP4 CODECOPY DUP2 ADD SUB SLT PUSH2 0xCB JUMPI MLOAD PUSH1 0x1 PUSH1 0x1 PUSH1 0xA0 SHL SUB SWAP1 DUP2 DUP2 AND SWAP1 DUP2 SWAP1 SUB PUSH2 0xCB JUMPI CALLER ISZERO PUSH2 0xB2 JUMPI PUSH1 0x0 SLOAD PUSH1 0x1 DUP1 PUSH1 0xA0 SHL SUB NOT SWAP1 CALLER DUP3 DUP3 AND OR PUSH1 0x0 SSTORE PUSH1 0x40 MLOAD SWAP4 CALLER SWAP2 AND PUSH32 0x8BE0079C531659141344CD1FD0A4F28419497F9722A3DAAFE3B4186F6B6457E0 PUSH1 0x0 DUP1 LOG3 PUSH1 0x5 PUSH1 0x2 SSTORE PUSH1 0x1 SLOAD AND OR PUSH1 0x1 SSTORE PUSH2 0x770 SWAP1 DUP2 PUSH2 0xE7 DUP3 CODECOPY RETURN JUMPDEST PUSH1 0x40 MLOAD PUSH4 0x1E4FBDF7 PUSH1 0xE0 SHL DUP2 MSTORE PUSH1 0x0 PUSH1 0x4 DUP3 ADD MSTORE PUSH1 0x24 SWAP1 REVERT JUMPDEST PUSH1 0x0 DUP1 REVERT JUMPDEST PUSH4 0x4E487B71 PUSH1 0xE0 SHL PUSH1 0x0 MSTORE PUSH1 0x41 PUSH1 0x4 MSTORE PUSH1 0x24 PUSH1 0x0 REVERT INVALID PUSH1 0x40 PUSH1 0x80 DUP2 MSTORE PUSH1 0x4 CALLDATASIZE LT ISZERO PUSH2 0x1D JUMPI JUMPDEST POP CALLDATASIZE ISZERO PUSH2 0x1B JUMPI PUSH1 0x0 DUP1 REVERT JUMPDEST STOP JUMPDEST PUSH1 0x0 CALLDATALOAD PUSH1 0xE0 SHR DUP1 PUSH4 0x1C75B6B2 EQ PUSH2 0x5B4 JUMPI DUP1 PUSH4 0x2A30877F EQ PUSH2 0x585 JUMPI DUP1 PUSH4 0x3175E026 EQ PUSH2 0x566 JUMPI DUP1 PUSH4 0x61D027B3 EQ PUSH2 0x53D JUMPI DUP1 PUSH4 0x6471A9EB EQ PUSH2 0x241 JUMPI DUP1 PUSH4 0x715018A6 EQ PUSH2 0x1E8 JUMPI DUP1 PUSH4 0x839006F2 EQ PUSH2 0x140 JUMPI DUP1 PUSH4 0x8DA5CB5B EQ PUSH2 0x117 JUMPI PUSH4 0xF2FDE38B SUB PUSH2 0xF JUMPI CALLVALUE PUSH2 0x112 JUMPI PUSH1 0x20 CALLDATASIZE PUSH1 0x3 NOT ADD SLT PUSH2 0x112 JUMPI PUSH2 0x9E PUSH2 0x60F JUMP JUMPDEST PUSH2 0xA6 PUSH2 0x625 JUMP JUMPDEST PUSH1 0x1 PUSH1 0x1 PUSH1 0xA0 SHL SUB SWAP1 DUP2 AND SWAP2 DUP3 ISZERO PUSH2 0xFB JUMPI POP PUSH1 0x0 SLOAD DUP3 PUSH12 0xFFFFFFFFFFFFFFFFFFFFFFFF PUSH1 0xA0 SHL DUP3 AND OR PUSH1 0x0 SSTORE AND PUSH32 0x8BE0079C531659141344CD1FD0A4F28419497F9722A3DAAFE3B4186F6B6457E0 PUSH1 0x0 DUP1 LOG3 STOP JUMPDEST MLOAD PUSH4 0x1E4FBDF7 PUSH1 0xE0 SHL DUP2 MSTORE PUSH1 0x0 PUSH1 0x4 DUP3 ADD MSTORE PUSH1 0x24 SWAP1 REVERT JUMPDEST PUSH1 0x0 DUP1 REVERT JUMPDEST POP CALLVALUE PUSH2 0x112 JUMPI PUSH1 0x0 CALLDATASIZE PUSH1 0x3 NOT ADD SLT PUSH2 0x112 JUMPI PUSH1 0x0 SLOAD SWAP1 MLOAD PUSH1 0x1 PUSH1 0x1 PUSH1 0xA0 SHL SUB SWAP1 SWAP2 AND DUP2 MSTORE PUSH1 0x20 SWAP1 RETURN JUMPDEST POP CALLVALUE PUSH2 0x112 JUMPI PUSH1 0x20 CALLDATASIZE PUSH1 0x3 NOT ADD SLT PUSH2 0x112 JUMPI PUSH2 0x15A PUSH2 0x60F JUMP JUMPDEST SWAP1 PUSH2 0x163 PUSH2 0x625 JUMP JUMPDEST PUSH1 0x0 SLOAD DUP2 MLOAD PUSH4 0x70A08231 PUSH1 0xE0 SHL DUP2 MSTORE ADDRESS PUSH1 0x4 DUP3 ADD MSTORE SWAP3 PUSH1 0x1 PUSH1 0x1 PUSH1 0xA0 SHL SUB SWAP2 DUP3 AND SWAP2 AND PUSH1 0x20 DUP5 PUSH1 0x24 DUP2 DUP5 GAS STATICCALL SWAP3 DUP4 ISZERO PUSH2 0x1DE JUMPI POP PUSH1 0x0 SWAP3 PUSH2 0x1A9 JUMPI JUMPDEST PUSH2 0x1B SWAP4 POP PUSH2 0x680 JUMP JUMPDEST SWAP2 POP PUSH1 0x20 DUP4 RETURNDATASIZE DUP3 GT PUSH2 0x1D6 JUMPI JUMPDEST DUP2 PUSH2 0x1C3 PUSH1 0x20 SWAP4 DUP4 PUSH2 0x65E JUMP JUMPDEST DUP2 ADD SUB SLT PUSH2 0x112 JUMPI PUSH2 0x1B SWAP3 MLOAD SWAP2 PUSH2 0x19F JUMP JUMPDEST RETURNDATASIZE SWAP2 POP PUSH2 0x1B6 JUMP JUMPDEST MLOAD RETURNDATASIZE PUSH1 0x0 DUP3 RETURNDATACOPY RETURNDATASIZE SWAP1 REVERT JUMPDEST CALLVALUE PUSH2 0x112 JUMPI PUSH1 0x0 CALLDATASIZE PUSH1 0x3 NOT ADD SLT PUSH2 0x112 JUMPI PUSH2 0x201 PUSH2 0x625 JUMP JUMPDEST PUSH1 0x0 DUP1 SLOAD PUSH1 0x1 PUSH1 0x1 PUSH1 0xA0 SHL SUB NOT DUP2 AND DUP3 SSTORE PUSH1 0x1 PUSH1 0x1 PUSH1 0xA0 SHL SUB AND PUSH32 0x8BE0079C531659141344CD1FD0A4F28419497F9722A3DAAFE3B4186F6B6457E0 DUP3 DUP1 LOG3 STOP JUMPDEST POP CALLVALUE PUSH2 0x112 JUMPI PUSH1 0xC0 CALLDATASIZE PUSH1 0x3 NOT ADD SLT PUSH2 0x112 JUMPI PUSH2 0x25B PUSH2 0x60F JUMP JUMPDEST SWAP1 PUSH1 0x24 CALLDATALOAD PUSH1 0x1 PUSH1 0x1 PUSH1 0xA0 SHL SUB DUP2 AND SWAP1 DUP2 SWAP1 SUB PUSH2 0x112 JUMPI PUSH1 0x44 CALLDATALOAD PUSH3 0xFFFFFF DUP2 AND DUP1 SWAP2 SUB PUSH2 0x112 JUMPI PUSH1 0xA4 CALLDATALOAD PUSH1 0x1 PUSH1 0x1 PUSH1 0xA0 SHL SUB DUP2 AND DUP2 SUB PUSH2 0x112 JUMPI DUP4 MLOAD PUSH4 0x23B872DD PUSH1 0xE0 SHL PUSH1 0x20 DUP3 ADD MSTORE CALLER PUSH1 0x24 DUP3 ADD MSTORE ADDRESS PUSH1 0x44 DUP3 ADD MSTORE PUSH1 0x64 DUP1 CALLDATALOAD DUP2 DUP4 ADD MSTORE DUP2 MSTORE PUSH1 0xA0 DUP2 ADD SWAP1 PUSH8 0xFFFFFFFFFFFFFFFF DUP3 GT DUP2 DUP4 LT OR PUSH2 0x4A9 JUMPI SWAP1 DUP6 MSTORE PUSH2 0x2E7 SWAP1 PUSH1 0x1 PUSH1 0x1 PUSH1 0xA0 SHL SUB DUP8 AND PUSH2 0x6D2 JUMP JUMPDEST PUSH1 0x2 SLOAD PUSH1 0x64 CALLDATALOAD DUP1 DUP3 MUL SWAP4 SWAP2 DUP2 ISZERO SWAP2 DUP6 DIV EQ OR ISZERO PUSH2 0x4BF JUMPI PUSH2 0x2710 DUP4 DIV PUSH2 0x518 JUMPI JUMPDEST PUSH2 0x318 PUSH2 0x2710 DUP5 DIV PUSH1 0x64 CALLDATALOAD PUSH2 0x651 JUMP JUMPDEST DUP6 MLOAD PUSH4 0x95EA7B3 PUSH1 0xE0 SHL DUP2 MSTORE PUSH20 0x3FC91A3AFD70395CD496E5B6F698EBF5E87D0794 PUSH1 0x4 DUP3 ADD MSTORE PUSH1 0x24 DUP2 ADD SWAP2 SWAP1 SWAP2 MSTORE PUSH1 0x20 DUP2 PUSH1 0x44 DUP2 PUSH1 0x0 PUSH1 0x1 PUSH1 0x1 PUSH1 0xA0 SHL SUB DUP13 AND GAS CALL DUP1 ISZERO PUSH2 0x50D JUMPI PUSH2 0x4D5 JUMPI JUMPDEST POP PUSH2 0x12C TIMESTAMP ADD SWAP3 DUP4 TIMESTAMP GT PUSH2 0x4BF JUMPI PUSH2 0x2710 PUSH2 0x383 SWAP2 DIV PUSH1 0x64 CALLDATALOAD PUSH2 0x651 JUMP JUMPDEST SWAP4 DUP6 MLOAD SWAP7 PUSH2 0x100 DUP9 ADD DUP9 DUP2 LT PUSH8 0xFFFFFFFFFFFFFFFF DUP3 GT OR PUSH2 0x4A9 JUMPI DUP8 MSTORE PUSH1 0x1 PUSH1 0x1 PUSH1 0xA0 SHL SUB SWAP1 DUP2 AND DUP9 MSTORE PUSH1 0x20 DUP1 DUP10 ADD SWAP3 DUP4 MSTORE DUP9 DUP9 ADD SWAP4 DUP5 MSTORE SWAP4 DUP2 AND PUSH1 0x60 DUP10 ADD SWAP1 DUP2 MSTORE PUSH1 0x80 DUP10 ADD SWAP6 DUP7 MSTORE PUSH1 0xA0 DUP10 ADD SWAP7 DUP8 MSTORE PUSH1 0x84 DUP1 CALLDATALOAD PUSH1 0xC0 DUP12 ADD SWAP1 DUP2 MSTORE PUSH1 0x0 PUSH1 0xE0 DUP13 ADD DUP2 DUP2 MSTORE DUP12 MLOAD PUSH4 0x414BF389 PUSH1 0xE0 SHL DUP2 MSTORE SWAP13 MLOAD DUP7 AND PUSH1 0x4 DUP15 ADD MSTORE SWAP6 MLOAD DUP6 AND PUSH1 0x24 DUP14 ADD MSTORE SWAP6 MLOAD PUSH3 0xFFFFFF AND PUSH1 0x44 DUP13 ADD MSTORE SWAP2 MLOAD DUP4 AND PUSH1 0x64 DUP12 ADD MSTORE SWAP6 MLOAD SWAP6 DUP10 ADD SWAP6 SWAP1 SWAP6 MSTORE SWAP5 MLOAD PUSH1 0xA4 DUP9 ADD MSTORE SWAP3 MLOAD PUSH1 0xC4 DUP8 ADD MSTORE SWAP2 MLOAD SWAP1 SWAP3 AND PUSH1 0xE4 DUP6 ADD MSTORE DUP4 SWAP1 PUSH2 0x104 SWAP1 DUP3 SWAP1 PUSH20 0x3FC91A3AFD70395CD496E5B6F698EBF5E87D0794 GAS CALL SWAP1 DUP2 ISZERO PUSH2 0x1DE JUMPI PUSH1 0x0 SWAP2 PUSH2 0x474 JUMPI JUMPDEST PUSH1 0x20 SWAP3 POP MLOAD SWAP1 DUP2 MSTORE RETURN JUMPDEST SWAP1 POP PUSH1 0x20 DUP3 RETURNDATASIZE PUSH1 0x20 GT PUSH2 0x4A1 JUMPI JUMPDEST DUP2 PUSH2 0x48F PUSH1 0x20 SWAP4 DUP4 PUSH2 0x65E JUMP JUMPDEST DUP2 ADD SUB SLT PUSH2 0x112 JUMPI PUSH1 0x20 SWAP2 MLOAD SWAP1 PUSH2 0x46A JUMP JUMPDEST RETURNDATASIZE SWAP2 POP PUSH2 0x482 JUMP JUMPDEST PUSH4 0x4E487B71 PUSH1 0xE0 SHL PUSH1 0x0 MSTORE PUSH1 0x41 PUSH1 0x4 MSTORE PUSH1 0x24 PUSH1 0x0 REVERT JUMPDEST PUSH4 0x4E487B71 PUSH1 0xE0 SHL PUSH1 0x0 MSTORE PUSH1 0x11 PUSH1 0x4 MSTORE PUSH1 0x24 PUSH1 0x0 REVERT JUMPDEST PUSH1 0x20 DUP2 RETURNDATASIZE PUSH1 0x20 GT PUSH2 0x505 JUMPI JUMPDEST DUP2 PUSH2 0x4EE PUSH1 0x20 SWAP4 DUP4 PUSH2 0x65E JUMP JUMPDEST DUP2 ADD SUB SLT PUSH2 0x112 JUMPI MLOAD DUP1 ISZERO ISZERO SUB PUSH2 0x112 JUMPI CODESIZE PUSH2 0x365 JUMP JUMPDEST RETURNDATASIZE SWAP2 POP PUSH2 0x4E1 JUMP JUMPDEST DUP7 MLOAD RETURNDATASIZE PUSH1 0x0 DUP3 RETURNDATACOPY RETURNDATASIZE SWAP1 REVERT JUMPDEST PUSH1 0x1 SLOAD PUSH2 0x538 SWAP1 PUSH2 0x2710 DUP6 DIV SWAP1 PUSH1 0x1 PUSH1 0x1 PUSH1 0xA0 SHL SUB SWAP1 DUP2 AND SWAP1 DUP10 AND PUSH2 0x680 JUMP JUMPDEST PUSH2 0x308 JUMP JUMPDEST POP CALLVALUE PUSH2 0x112 JUMPI PUSH1 0x0 CALLDATASIZE PUSH1 0x3 NOT ADD SLT PUSH2 0x112 JUMPI PUSH1 0x1 SLOAD SWAP1 MLOAD PUSH1 0x1 PUSH1 0x1 PUSH1 0xA0 SHL SUB SWAP1 SWAP2 AND DUP2 MSTORE PUSH1 0x20 SWAP1 RETURN JUMPDEST POP CALLVALUE PUSH2 0x112 JUMPI PUSH1 0x0 CALLDATASIZE PUSH1 0x3 NOT ADD SLT PUSH2 0x112 JUMPI PUSH1 0x20 SWAP1 PUSH1 0x2 SLOAD SWAP1 MLOAD SWAP1 DUP2 MSTORE RETURN JUMPDEST POP CALLVALUE PUSH2 0x112 JUMPI PUSH1 0x0 CALLDATASIZE PUSH1 0x3 NOT ADD SLT PUSH2 0x112 JUMPI PUSH1 0x20 SWAP1 MLOAD PUSH20 0x3FC91A3AFD70395CD496E5B6F698EBF5E87D0794 DUP2 MSTORE RETURN JUMPDEST POP CALLVALUE PUSH2 0x112 JUMPI PUSH1 0x20 CALLDATASIZE PUSH1 0x3 NOT ADD SLT PUSH2 0x112 JUMPI PUSH1 0x4 CALLDATALOAD SWAP1 PUSH2 0x5D2 PUSH2 0x625 JUMP JUMPDEST PUSH1 0x14 DUP3 GT PUSH2 0x5E0 JUMPI POP PUSH1 0x2 SSTORE STOP JUMPDEST MLOAD PUSH3 0x461BCD PUSH1 0xE5 SHL DUP2 MSTORE PUSH1 0x20 PUSH1 0x4 DUP3 ADD MSTORE PUSH1 0x9 PUSH1 0x24 DUP3 ADD MSTORE PUSH9 0x6D617820302E323025 PUSH1 0xB8 SHL PUSH1 0x44 DUP3 ADD MSTORE PUSH1 0x64 SWAP1 REVERT JUMPDEST PUSH1 0x4 CALLDATALOAD SWAP1 PUSH1 0x1 PUSH1 0x1 PUSH1 0xA0 SHL SUB DUP3 AND DUP3 SUB PUSH2 0x112 JUMPI JUMP JUMPDEST PUSH1 0x0 SLOAD PUSH1 0x1 PUSH1 0x1 PUSH1 0xA0 SHL SUB AND CALLER SUB PUSH2 0x639 JUMPI JUMP JUMPDEST PUSH1 0x40 MLOAD PUSH4 0x118CDAA7 PUSH1 0xE0 SHL DUP2 MSTORE CALLER PUSH1 0x4 DUP3 ADD MSTORE PUSH1 0x24 SWAP1 REVERT JUMPDEST SWAP2 SWAP1 DUP3 SUB SWAP2 DUP3 GT PUSH2 0x4BF JUMPI JUMP JUMPDEST SWAP1 PUSH1 0x1F DUP1 NOT SWAP2 ADD AND DUP2 ADD SWAP1 DUP2 LT PUSH8 0xFFFFFFFFFFFFFFFF DUP3 GT OR PUSH2 0x4A9 JUMPI PUSH1 0x40 MSTORE JUMP JUMPDEST PUSH1 0x40 MLOAD PUSH4 0xA9059CBB PUSH1 0xE0 SHL PUSH1 0x20 DUP3 ADD MSTORE PUSH1 0x1 PUSH1 0x1 PUSH1 0xA0 SHL SUB SWAP1 SWAP3 AND PUSH1 0x24 DUP4 ADD MSTORE PUSH1 0x44 DUP1 DUP4 ADD SWAP4 SWAP1 SWAP4 MSTORE SWAP2 DUP2 MSTORE PUSH1 0x80 DUP2 ADD SWAP2 PUSH8 0xFFFFFFFFFFFFFFFF DUP4 GT DUP3 DUP5 LT OR PUSH2 0x4A9 JUMPI PUSH2 0x6D0 SWAP3 PUSH1 0x40 MSTORE PUSH2 0x6D2 JUMP JUMPDEST JUMP JUMPDEST SWAP1 PUSH1 0x0 PUSH1 0x20 SWAP2 DUP3 DUP2 MLOAD SWAP2 ADD DUP3 DUP6 GAS CALL ISZERO PUSH2 0x72E JUMPI PUSH1 0x0 MLOAD RETURNDATASIZE PUSH2 0x725 JUMPI POP PUSH1 0x1 PUSH1 0x1 PUSH1 0xA0 SHL SUB DUP2 AND EXTCODESIZE ISZERO JUMPDEST PUSH2 0x703 JUMPI POP JUMP JUMPDEST PUSH1 0x40 MLOAD PUSH4 0x5274AFE7 PUSH1 0xE0 SHL DUP2 MSTORE PUSH1 0x1 PUSH1 0x1 PUSH1 0xA0 SHL SUB SWAP1 SWAP2 AND PUSH1 0x4 DUP3 ADD MSTORE PUSH1 0x24 SWAP1 REVERT JUMPDEST PUSH1 0x1 EQ ISZERO PUSH2 0x6FC JUMP JUMPDEST PUSH1 0x40 MLOAD RETURNDATASIZE PUSH1 0x0 DUP3 RETURNDATACOPY RETURNDATASIZE SWAP1 REVERT INVALID LOG2 PUSH5 0x6970667358 0x22 SLT KECCAK256 0xA9 SWAP8 MULMOD 0x24 SWAP15 SWAP15 DUP7 CALLCODE CODECOPY 0x1F LT 0xC 0x49 SLT 0xDC 0x4C PC SWAP2 PUSH5 0x92E1830A68 0xCF 0xB6 SWAP15 PUSH19 0xEC7AE6AD64736F6C6343000814003300000000 "},"methodIdentifiers":{"OFFICIAL_ROUTER()":"2a30877f","devFeeBP()":"3175e026","owner()":"8da5cb5b","renounceOwnership()":"715018a6","rescue(address)":"839006f2","setDevFee(uint256)":"1c75b6b2","swapExactInputSingle(address,address,uint24,uint256,uint256,address)":"6471a9eb","transferOwnership(address)":"f2fde38b","treasury()":"61d027b3"}}}}}