{
  "_format": "hh-sol-artifact-1",
  "contractName": "GodModeEmpire",
  "sourceName": "contracts/GodModeEmpire.sol",
  "abi": [
    {
      "inputs": [
        {
          "internalType": "address",
          "name": "_skimRouter",
          "type": "address"
        },
        {
          "internalType": "address",
          "name": "_treasury",
          "type": "address"
        }
      ],
      "stateMutability": "nonpayable",
      "type": "constructor"
    },
    {
      "inputs": [],
      "name": "EnforcedPause",
      "type": "error"
    },
    {
      "inputs": [],
      "name": "ExpectedPause",
      "type": "error"
    },
    {
      "inputs": [
        {
          "internalType": "address",
          "name": "owner",
          "type": "address"
        }
      ],
      "name": "OwnableInvalidOwner",
      "type": "error"
    },
    {
      "inputs": [
        {
          "internalType": "address",
          "name": "account",
          "type": "address"
        }
      ],
      "name": "OwnableUnauthorizedAccount",
      "type": "error"
    },
    {
      "inputs": [],
      "name": "ReentrancyGuardReentrantCall",
      "type": "error"
    },
    {
      "inputs": [
        {
          "internalType": "address",
          "name": "token",
          "type": "address"
        }
      ],
      "name": "SafeERC20FailedOperation",
      "type": "error"
    },
    {
      "anonymous": false,
      "inputs": [
        {
          "indexed": false,
          "internalType": "uint8",
          "name": "mode",
          "type": "uint8"
        },
        {
          "indexed": false,
          "internalType": "uint256",
          "name": "amount",
          "type": "uint256"
        },
        {
          "indexed": false,
          "internalType": "uint256",
          "name": "profit",
          "type": "uint256"
        }
      ],
      "name": "ArbExecuted",
      "type": "event"
    },
    {
      "anonymous": false,
      "inputs": [
        {
          "indexed": false,
          "internalType": "uint256",
          "name": "amount",
          "type": "uint256"
        }
      ],
      "name": "Bootstrapped",
      "type": "event"
    },
    {
      "anonymous": false,
      "inputs": [
        {
          "indexed": false,
          "internalType": "uint256",
          "name": "newOwnerFeeBP",
          "type": "uint256"
        }
      ],
      "name": "OwnerFeeUpdated",
      "type": "event"
    },
    {
      "anonymous": false,
      "inputs": [
        {
          "indexed": true,
          "internalType": "address",
          "name": "previousOwner",
          "type": "address"
        },
        {
          "indexed": true,
          "internalType": "address",
          "name": "newOwner",
          "type": "address"
        }
      ],
      "name": "OwnershipTransferred",
      "type": "event"
    },
    {
      "anonymous": false,
      "inputs": [
        {
          "indexed": false,
          "internalType": "address",
          "name": "account",
          "type": "address"
        }
      ],
      "name": "Paused",
      "type": "event"
    },
    {
      "anonymous": false,
      "inputs": [
        {
          "indexed": false,
          "internalType": "uint256",
          "name": "newMaxTradeSize",
          "type": "uint256"
        }
      ],
      "name": "TradeSizeUpdated",
      "type": "event"
    },
    {
      "anonymous": false,
      "inputs": [
        {
          "indexed": false,
          "internalType": "address",
          "name": "account",
          "type": "address"
        }
      ],
      "name": "Unpaused",
      "type": "event"
    },
    {
      "inputs": [],
      "name": "AAVE_POOL",
      "outputs": [
        {
          "internalType": "address",
          "name": "",
          "type": "address"
        }
      ],
      "stateMutability": "view",
      "type": "function"
    },
    {
      "inputs": [],
      "name": "AAVE_TOKEN",
      "outputs": [
        {
          "internalType": "address",
          "name": "",
          "type": "address"
        }
      ],
      "stateMutability": "view",
      "type": "function"
    },
    {
      "inputs": [],
      "name": "ARB",
      "outputs": [
        {
          "internalType": "address",
          "name": "",
          "type": "address"
        }
      ],
      "stateMutability": "view",
      "type": "function"
    },
    {
      "inputs": [],
      "name": "BALANCER_VAULT",
      "outputs": [
        {
          "internalType": "address",
          "name": "",
          "type": "address"
        }
      ],
      "stateMutability": "view",
      "type": "function"
    },
    {
      "inputs": [],
      "name": "BONK",
      "outputs": [
        {
          "internalType": "address",
          "name": "",
          "type": "address"
        }
      ],
      "stateMutability": "view",
      "type": "function"
    },
    {
      "inputs": [],
      "name": "CRV",
      "outputs": [
        {
          "internalType": "address",
          "name": "",
          "type": "address"
        }
      ],
      "stateMutability": "view",
      "type": "function"
    },
    {
      "inputs": [],
      "name": "DAI",
      "outputs": [
        {
          "internalType": "address",
          "name": "",
          "type": "address"
        }
      ],
      "stateMutability": "view",
      "type": "function"
    },
    {
      "inputs": [],
      "name": "GMX",
      "outputs": [
        {
          "internalType": "address",
          "name": "",
          "type": "address"
        }
      ],
      "stateMutability": "view",
      "type": "function"
    },
    {
      "inputs": [],
      "name": "GRAIL",
      "outputs": [
        {
          "internalType": "address",
          "name": "",
          "type": "address"
        }
      ],
      "stateMutability": "view",
      "type": "function"
    },
    {
      "inputs": [],
      "name": "LDO",
      "outputs": [
        {
          "internalType": "address",
          "name": "",
          "type": "address"
        }
      ],
      "stateMutability": "view",
      "type": "function"
    },
    {
      "inputs": [],
      "name": "LINK",
      "outputs": [
        {
          "internalType": "address",
          "name": "",
          "type": "address"
        }
      ],
      "stateMutability": "view",
      "type": "function"
    },
    {
      "inputs": [],
      "name": "MAGIC",
      "outputs": [
        {
          "internalType": "address",
          "name": "",
          "type": "address"
        }
      ],
      "stateMutability": "view",
      "type": "function"
    },
    {
      "inputs": [],
      "name": "MCP_DISTRIBUTOR_ADDRESS",
      "outputs": [
        {
          "internalType": "address",
          "name": "",
          "type": "address"
        }
      ],
      "stateMutability": "view",
      "type": "function"
    },
    {
      "inputs": [],
      "name": "PENDLE",
      "outputs": [
        {
          "internalType": "address",
          "name": "",
          "type": "address"
        }
      ],
      "stateMutability": "view",
      "type": "function"
    },
    {
      "inputs": [],
      "name": "PEPE",
      "outputs": [
        {
          "internalType": "address",
          "name": "",
          "type": "address"
        }
      ],
      "stateMutability": "view",
      "type": "function"
    },
    {
      "inputs": [],
      "name": "POSITION_MANAGER",
      "outputs": [
        {
          "internalType": "address",
          "name": "",
          "type": "address"
        }
      ],
      "stateMutability": "view",
      "type": "function"
    },
    {
      "inputs": [],
      "name": "QUOTER_V3",
      "outputs": [
        {
          "internalType": "address",
          "name": "",
          "type": "address"
        }
      ],
      "stateMutability": "view",
      "type": "function"
    },
    {
      "inputs": [],
      "name": "RDNT",
      "outputs": [
        {
          "internalType": "address",
          "name": "",
          "type": "address"
        }
      ],
      "stateMutability": "view",
      "type": "function"
    },
    {
      "inputs": [],
      "name": "SKIM_ROUTER",
      "outputs": [
        {
          "internalType": "contract ISwapRouter",
          "name": "",
          "type": "address"
        }
      ],
      "stateMutability": "view",
      "type": "function"
    },
    {
      "inputs": [],
      "name": "SXAU",
      "outputs": [
        {
          "internalType": "address",
          "name": "",
          "type": "address"
        }
      ],
      "stateMutability": "view",
      "type": "function"
    },
    {
      "inputs": [],
      "name": "UNI",
      "outputs": [
        {
          "internalType": "address",
          "name": "",
          "type": "address"
        }
      ],
      "stateMutability": "view",
      "type": "function"
    },
    {
      "inputs": [],
      "name": "USDC",
      "outputs": [
        {
          "internalType": "address",
          "name": "",
          "type": "address"
        }
      ],
      "stateMutability": "view",
      "type": "function"
    },
    {
      "inputs": [],
      "name": "USDC_WETH_POOL",
      "outputs": [
        {
          "internalType": "address",
          "name": "",
          "type": "address"
        }
      ],
      "stateMutability": "view",
      "type": "function"
    },
    {
      "inputs": [],
      "name": "USDT",
      "outputs": [
        {
          "internalType": "address",
          "name": "",
          "type": "address"
        }
      ],
      "stateMutability": "view",
      "type": "function"
    },
    {
      "inputs": [],
      "name": "USDT_WETH_POOL",
      "outputs": [
        {
          "internalType": "address",
          "name": "",
          "type": "address"
        }
      ],
      "stateMutability": "view",
      "type": "function"
    },
    {
      "inputs": [],
      "name": "WBTC",
      "outputs": [
        {
          "internalType": "address",
          "name": "",
          "type": "address"
        }
      ],
      "stateMutability": "view",
      "type": "function"
    },
    {
      "inputs": [],
      "name": "WETH",
      "outputs": [
        {
          "internalType": "address",
          "name": "",
          "type": "address"
        }
      ],
      "stateMutability": "view",
      "type": "function"
    },
    {
      "inputs": [],
      "name": "aaveOracle",
      "outputs": [
        {
          "internalType": "contract AggregatorV3Interface",
          "name": "",
          "type": "address"
        }
      ],
      "stateMutability": "view",
      "type": "function"
    },
    {
      "inputs": [
        {
          "internalType": "address",
          "name": "pool",
          "type": "address"
        },
        {
          "internalType": "uint256",
          "name": "amount",
          "type": "uint256"
        }
      ],
      "name": "addGaugeBribe",
      "outputs": [],
      "stateMutability": "nonpayable",
      "type": "function"
    },
    {
      "inputs": [],
      "name": "arbOracle",
      "outputs": [
        {
          "internalType": "contract AggregatorV3Interface",
          "name": "",
          "type": "address"
        }
      ],
      "stateMutability": "view",
      "type": "function"
    },
    {
      "inputs": [
        {
          "internalType": "address",
          "name": "pool",
          "type": "address"
        }
      ],
      "name": "autoCompoundFarm",
      "outputs": [],
      "stateMutability": "nonpayable",
      "type": "function"
    },
    {
      "inputs": [
        {
          "internalType": "uint256",
          "name": "amount",
          "type": "uint256"
        }
      ],
      "name": "basisTradeLoop",
      "outputs": [],
      "stateMutability": "nonpayable",
      "type": "function"
    },
    {
      "inputs": [],
      "name": "bonkOracle",
      "outputs": [
        {
          "internalType": "contract AggregatorV3Interface",
          "name": "",
          "type": "address"
        }
      ],
      "stateMutability": "view",
      "type": "function"
    },
    {
      "inputs": [
        {
          "internalType": "uint256",
          "name": "amount",
          "type": "uint256"
        }
      ],
      "name": "bootstrapBalancer",
      "outputs": [],
      "stateMutability": "nonpayable",
      "type": "function"
    },
    {
      "inputs": [
        {
          "internalType": "uint256",
          "name": "amount",
          "type": "uint256"
        }
      ],
      "name": "bootstrapEmpire",
      "outputs": [],
      "stateMutability": "nonpayable",
      "type": "function"
    },
    {
      "inputs": [
        {
          "internalType": "address",
          "name": "tokenA",
          "type": "address"
        },
        {
          "internalType": "address",
          "name": "tokenB",
          "type": "address"
        },
        {
          "internalType": "uint256",
          "name": "amount",
          "type": "uint256"
        }
      ],
      "name": "bootstrapPair",
      "outputs": [],
      "stateMutability": "nonpayable",
      "type": "function"
    },
    {
      "inputs": [
        {
          "internalType": "address",
          "name": "pool",
          "type": "address"
        },
        {
          "internalType": "uint256",
          "name": "amount0",
          "type": "uint256"
        },
        {
          "internalType": "uint256",
          "name": "amount1",
          "type": "uint256"
        }
      ],
      "name": "bootstrapUniswapV3",
      "outputs": [],
      "stateMutability": "nonpayable",
      "type": "function"
    },
    {
      "inputs": [
        {
          "internalType": "uint256",
          "name": "amount",
          "type": "uint256"
        }
      ],
      "name": "btcLiquidArb",
      "outputs": [],
      "stateMutability": "nonpayable",
      "type": "function"
    },
    {
      "inputs": [
        {
          "internalType": "uint256",
          "name": "amount",
          "type": "uint256"
        }
      ],
      "name": "cexDexPegArb",
      "outputs": [],
      "stateMutability": "nonpayable",
      "type": "function"
    },
    {
      "inputs": [],
      "name": "cooldownPeriod",
      "outputs": [
        {
          "internalType": "uint256",
          "name": "",
          "type": "uint256"
        }
      ],
      "stateMutability": "view",
      "type": "function"
    },
    {
      "inputs": [
        {
          "internalType": "uint256",
          "name": "amount",
          "type": "uint256"
        }
      ],
      "name": "crossDexCurveArb",
      "outputs": [],
      "stateMutability": "nonpayable",
      "type": "function"
    },
    {
      "inputs": [],
      "name": "crvOracle",
      "outputs": [
        {
          "internalType": "contract AggregatorV3Interface",
          "name": "",
          "type": "address"
        }
      ],
      "stateMutability": "view",
      "type": "function"
    },
    {
      "inputs": [],
      "name": "daiOracle",
      "outputs": [
        {
          "internalType": "contract AggregatorV3Interface",
          "name": "",
          "type": "address"
        }
      ],
      "stateMutability": "view",
      "type": "function"
    },
    {
      "inputs": [
        {
          "internalType": "address",
          "name": "token",
          "type": "address"
        }
      ],
      "name": "emergencyWithdraw",
      "outputs": [],
      "stateMutability": "nonpayable",
      "type": "function"
    },
    {
      "inputs": [
        {
          "internalType": "address",
          "name": "asset",
          "type": "address"
        },
        {
          "internalType": "uint256",
          "name": "amount",
          "type": "uint256"
        },
        {
          "internalType": "bytes",
          "name": "params",
          "type": "bytes"
        }
      ],
      "name": "executeFlashLoan",
      "outputs": [],
      "stateMutability": "nonpayable",
      "type": "function"
    },
    {
      "inputs": [
        {
          "internalType": "address[]",
          "name": "_assets",
          "type": "address[]"
        },
        {
          "internalType": "uint256[]",
          "name": "amounts",
          "type": "uint256[]"
        },
        {
          "internalType": "uint256[]",
          "name": "premiums",
          "type": "uint256[]"
        },
        {
          "internalType": "address",
          "name": "_initiator",
          "type": "address"
        },
        {
          "internalType": "bytes",
          "name": "params",
          "type": "bytes"
        }
      ],
      "name": "executeOperation",
      "outputs": [
        {
          "internalType": "bool",
          "name": "",
          "type": "bool"
        }
      ],
      "stateMutability": "nonpayable",
      "type": "function"
    },
    {
      "inputs": [],
      "name": "lastTradeTime",
      "outputs": [
        {
          "internalType": "uint256",
          "name": "",
          "type": "uint256"
        }
      ],
      "stateMutability": "view",
      "type": "function"
    },
    {
      "inputs": [],
      "name": "ldoOracle",
      "outputs": [
        {
          "internalType": "contract AggregatorV3Interface",
          "name": "",
          "type": "address"
        }
      ],
      "stateMutability": "view",
      "type": "function"
    },
    {
      "inputs": [],
      "name": "linkOracle",
      "outputs": [
        {
          "internalType": "contract AggregatorV3Interface",
          "name": "",
          "type": "address"
        }
      ],
      "stateMutability": "view",
      "type": "function"
    },
    {
      "inputs": [],
      "name": "maxTradeSize",
      "outputs": [
        {
          "internalType": "uint256",
          "name": "",
          "type": "uint256"
        }
      ],
      "stateMutability": "view",
      "type": "function"
    },
    {
      "inputs": [],
      "name": "owner",
      "outputs": [
        {
          "internalType": "address",
          "name": "",
          "type": "address"
        }
      ],
      "stateMutability": "view",
      "type": "function"
    },
    {
      "inputs": [],
      "name": "ownerFeeBP",
      "outputs": [
        {
          "internalType": "uint256",
          "name": "",
          "type": "uint256"
        }
      ],
      "stateMutability": "view",
      "type": "function"
    },
    {
      "inputs": [
        {
          "internalType": "bytes32",
          "name": "",
          "type": "bytes32"
        }
      ],
      "name": "pairToPool",
      "outputs": [
        {
          "internalType": "address",
          "name": "",
          "type": "address"
        }
      ],
      "stateMutability": "view",
      "type": "function"
    },
    {
      "inputs": [],
      "name": "paused",
      "outputs": [
        {
          "internalType": "bool",
          "name": "",
          "type": "bool"
        }
      ],
      "stateMutability": "view",
      "type": "function"
    },
    {
      "inputs": [],
      "name": "pepeOracle",
      "outputs": [
        {
          "internalType": "contract AggregatorV3Interface",
          "name": "",
          "type": "address"
        }
      ],
      "stateMutability": "view",
      "type": "function"
    },
    {
      "inputs": [
        {
          "internalType": "uint256",
          "name": "amount",
          "type": "uint256"
        }
      ],
      "name": "quadArb",
      "outputs": [],
      "stateMutability": "nonpayable",
      "type": "function"
    },
    {
      "inputs": [
        {
          "internalType": "address[]",
          "name": "tokens",
          "type": "address[]"
        },
        {
          "internalType": "uint256[]",
          "name": "amounts",
          "type": "uint256[]"
        },
        {
          "internalType": "uint256[]",
          "name": "feeAmounts",
          "type": "uint256[]"
        },
        {
          "internalType": "bytes",
          "name": "userData",
          "type": "bytes"
        }
      ],
      "name": "receiveFlashLoan",
      "outputs": [],
      "stateMutability": "nonpayable",
      "type": "function"
    },
    {
      "inputs": [],
      "name": "renounceOwnership",
      "outputs": [],
      "stateMutability": "nonpayable",
      "type": "function"
    },
    {
      "inputs": [
        {
          "internalType": "uint256",
          "name": "amount",
          "type": "uint256"
        }
      ],
      "name": "rwaPegArb",
      "outputs": [],
      "stateMutability": "nonpayable",
      "type": "function"
    },
    {
      "inputs": [
        {
          "internalType": "uint256",
          "name": "_cooldownPeriod",
          "type": "uint256"
        }
      ],
      "name": "setCooldownPeriod",
      "outputs": [],
      "stateMutability": "nonpayable",
      "type": "function"
    },
    {
      "inputs": [
        {
          "internalType": "address",
          "name": "_mcpDistributor",
          "type": "address"
        }
      ],
      "name": "setMCPDistributorAddress",
      "outputs": [],
      "stateMutability": "nonpayable",
      "type": "function"
    },
    {
      "inputs": [
        {
          "internalType": "uint256",
          "name": "_maxTradeSize",
          "type": "uint256"
        }
      ],
      "name": "setMaxTradeSize",
      "outputs": [],
      "stateMutability": "nonpayable",
      "type": "function"
    },
    {
      "inputs": [
        {
          "internalType": "address",
          "name": "_usdcOracle",
          "type": "address"
        },
        {
          "internalType": "address",
          "name": "_usdtOracle",
          "type": "address"
        },
        {
          "internalType": "address",
          "name": "_daiOracle",
          "type": "address"
        },
        {
          "internalType": "address",
          "name": "_wbtcOracle",
          "type": "address"
        },
        {
          "internalType": "address",
          "name": "_wethOracle",
          "type": "address"
        },
        {
          "internalType": "address",
          "name": "_linkOracle",
          "type": "address"
        },
        {
          "internalType": "address",
          "name": "_uniOracle",
          "type": "address"
        },
        {
          "internalType": "address",
          "name": "_aaveOracle",
          "type": "address"
        },
        {
          "internalType": "address",
          "name": "_arbOracle",
          "type": "address"
        },
        {
          "internalType": "address",
          "name": "_ldoOracle",
          "type": "address"
        },
        {
          "internalType": "address",
          "name": "_crvOracle",
          "type": "address"
        },
        {
          "internalType": "address",
          "name": "_sxauOracle",
          "type": "address"
        }
      ],
      "name": "setOracles",
      "outputs": [],
      "stateMutability": "nonpayable",
      "type": "function"
    },
    {
      "inputs": [
        {
          "internalType": "uint256",
          "name": "_ownerFeeBP",
          "type": "uint256"
        }
      ],
      "name": "setOwnerFee",
      "outputs": [],
      "stateMutability": "nonpayable",
      "type": "function"
    },
    {
      "inputs": [
        {
          "internalType": "address",
          "name": "_aavePool",
          "type": "address"
        },
        {
          "internalType": "address",
          "name": "_balancerVault",
          "type": "address"
        },
        {
          "internalType": "address",
          "name": "_positionManager",
          "type": "address"
        }
      ],
      "name": "setProtocolAddresses",
      "outputs": [],
      "stateMutability": "nonpayable",
      "type": "function"
    },
    {
      "inputs": [
        {
          "internalType": "address",
          "name": "_usdt",
          "type": "address"
        },
        {
          "internalType": "address",
          "name": "_usdc",
          "type": "address"
        },
        {
          "internalType": "address",
          "name": "_dai",
          "type": "address"
        },
        {
          "internalType": "address",
          "name": "_wbtc",
          "type": "address"
        },
        {
          "internalType": "address",
          "name": "_weth",
          "type": "address"
        },
        {
          "internalType": "address",
          "name": "_steth",
          "type": "address"
        },
        {
          "internalType": "address",
          "name": "_gmx",
          "type": "address"
        },
        {
          "internalType": "address",
          "name": "_magic",
          "type": "address"
        },
        {
          "internalType": "address",
          "name": "_grail",
          "type": "address"
        },
        {
          "internalType": "address",
          "name": "_rdnt",
          "type": "address"
        },
        {
          "internalType": "address",
          "name": "_pendle",
          "type": "address"
        },
        {
          "internalType": "address",
          "name": "_link",
          "type": "address"
        },
        {
          "internalType": "address",
          "name": "_uni",
          "type": "address"
        },
        {
          "internalType": "address",
          "name": "_aave",
          "type": "address"
        },
        {
          "internalType": "address",
          "name": "_arb",
          "type": "address"
        },
        {
          "internalType": "address",
          "name": "_ldo",
          "type": "address"
        },
        {
          "internalType": "address",
          "name": "_crv",
          "type": "address"
        },
        {
          "internalType": "address",
          "name": "_sxau",
          "type": "address"
        },
        {
          "internalType": "address",
          "name": "_pepe",
          "type": "address"
        },
        {
          "internalType": "address",
          "name": "_bonk",
          "type": "address"
        }
      ],
      "name": "setTokenAddresses",
      "outputs": [],
      "stateMutability": "nonpayable",
      "type": "function"
    },
    {
      "inputs": [],
      "name": "stETH",
      "outputs": [
        {
          "internalType": "address",
          "name": "",
          "type": "address"
        }
      ],
      "stateMutability": "view",
      "type": "function"
    },
    {
      "inputs": [
        {
          "internalType": "uint256",
          "name": "amount",
          "type": "uint256"
        }
      ],
      "name": "startInfinitePrint",
      "outputs": [],
      "stateMutability": "nonpayable",
      "type": "function"
    },
    {
      "inputs": [],
      "name": "sxauOracle",
      "outputs": [
        {
          "internalType": "contract AggregatorV3Interface",
          "name": "",
          "type": "address"
        }
      ],
      "stateMutability": "view",
      "type": "function"
    },
    {
      "inputs": [
        {
          "internalType": "address",
          "name": "newOwner",
          "type": "address"
        }
      ],
      "name": "transferOwnership",
      "outputs": [],
      "stateMutability": "nonpayable",
      "type": "function"
    },
    {
      "inputs": [],
      "name": "treasury",
      "outputs": [
        {
          "internalType": "address",
          "name": "",
          "type": "address"
        }
      ],
      "stateMutability": "view",
      "type": "function"
    },
    {
      "inputs": [
        {
          "internalType": "uint256",
          "name": "amount",
          "type": "uint256"
        }
      ],
      "name": "triangularStableArb",
      "outputs": [],
      "stateMutability": "nonpayable",
      "type": "function"
    },
    {
      "inputs": [
        {
          "internalType": "address",
          "name": "tokenIn",
          "type": "address"
        },
        {
          "internalType": "address",
          "name": "tokenOut",
          "type": "address"
        },
        {
          "internalType": "uint256",
          "name": "amount",
          "type": "uint256"
        }
      ],
      "name": "triggerSkewArb",
      "outputs": [],
      "stateMutability": "nonpayable",
      "type": "function"
    },
    {
      "inputs": [],
      "name": "uniOracle",
      "outputs": [
        {
          "internalType": "contract AggregatorV3Interface",
          "name": "",
          "type": "address"
        }
      ],
      "stateMutability": "view",
      "type": "function"
    },
    {
      "inputs": [
        {
          "internalType": "uint256",
          "name": "fee0",
          "type": "uint256"
        },
        {
          "internalType": "uint256",
          "name": "fee1",
          "type": "uint256"
        },
        {
          "internalType": "bytes",
          "name": "data",
          "type": "bytes"
        }
      ],
      "name": "uniswapV3FlashCallback",
      "outputs": [],
      "stateMutability": "nonpayable",
      "type": "function"
    },
    {
      "inputs": [],
      "name": "usdtOracle",
      "outputs": [
        {
          "internalType": "contract AggregatorV3Interface",
          "name": "",
          "type": "address"
        }
      ],
      "stateMutability": "view",
      "type": "function"
    },
    {
      "inputs": [],
      "name": "wbtcOracle",
      "outputs": [
        {
          "internalType": "contract AggregatorV3Interface",
          "name": "",
          "type": "address"
        }
      ],
      "stateMutability": "view",
      "type": "function"
    },
    {
      "inputs": [],
      "name": "wethOracle",
      "outputs": [
        {
          "internalType": "contract AggregatorV3Interface",
          "name": "",
          "type": "address"
        }
      ],
      "stateMutability": "view",
      "type": "function"
    },
    {
      "stateMutability": "payable",
      "type": "receive"
    }
  ],
  "bytecode": "0x60a0604090808252346200082b57818162005c33803803809162000024828562000830565b8339810103126200082b576200003a816200086a565b906200004a60208092016200086a565b33156200081357600091825460018060a01b0319943386831617855586519360018060a01b0392833391167f8be0079c531659141344cd1fd0a4f28419497f9722a3daafe3b4186f6b6457e08880a3600180556103e8600355640ba43b74006004558560055573fd086bc7cd5c481dcc9c85ebe478a1c0b69fcbb987600754161760075573ff970a61a04b1ca14834a43f5de4533ebddb5cc887600854161760085573da10009cbd5d07dd0cecc66161fc93d7c9000da1876009541617600955732f2a2543b76a4166549f7aab2e75bef0aefc5b0f87600a541617600a5582600b927382af49447d8a07e3bd95bd0d56f35241523fbab189855416178455735979d7b546e38e414f7e9822514be443a480052989600c541617600c5573fc5a1a6eb076a2c7ad06ed22c90d7e710e35ad0a89600d541617600d5573539bde0d7dbd336b79148aa742883198bbf6034289600e541617600e55733d9907f9a368ad0a51be60f7da3b97cf940982d889600f541617600f55733082cc23568ea640225c2467653db90e9250aaa0896010541617601055730c880f6761f1af8d9aa9c466984b80dab9a8c9e889601154161760115573f97f4df75117a78c1a5a0dbb814af92458539fb4896012541617601255736fd9d7ad17242c41f7131d257212c54a1121392389601354161760135573ba5ddd1f9d7f570dc94a51479a000e3bce96719689601454161760145573912ce59144191c1204e64559fe8253a0e49e65488960155416176015557313ad51ed4f1b7e9dc168d8a00cb3f4ddd85efa608960165416176016557311cdb42b0eb46d95f990bedd4695a6e3fa0349788960175416176017557325d887ce7a35172c62febfd67a1856f20faebb008960185416176018557309199d9a5f4448d0848e4395d065e1a1c5a5263f896019541617601955739d5f8c42f21d0234eff8274de832c6e123c2b46a89601a541617601a5573794a61358d6845594f94dc1db02a252b5b4814ad89601b541617601b5573ba12222222228d8ba445958a75a0704d566bf2c889601c541617601c5573c36442b4a4522e871399cd717abdd847ab11fe8889601d541617601d55733f3f5df88dc9f13eac63df89ec16ef6e7e25dde789875416178655736ce185860a4963106506c203335a2910413708e989602154161760215573c5c8e77b397e531b8ec06bfb0048328b30e9ecf989602254161760225573639fe6ab55c921f74e7fac1ee960c0b6293ba6128960235416176023557386e53cf1b870786351165d955b07ed0f7f4c3d2b896024541617602455739c917083fdb403ab5adbec26ee294f6ecada272089602554161760255573ad1d5344aade45f43e596773bcc4c423eabdd03489602654161760265573b2a824043730fe05f3da2efafa1cbbe83fa548d689602754161760275573a43a34030088e6510eecf95376b516fce9b74b5789602854161760285573aebda2c976cfd1ee1977eac079b4382acb849325896029541617602955738f383361a85268365259f3a8824c3f1d9bc4f9a089602a541617602a5588602b5416602b5588602c5416602c551660805260025490610100600160a81b039060081b1690610100600160a81b03191617600255828401937fff970a61a04b1ca14834a43f5de4533ebddb5cc800000000000000000000000085527f82af49447d8a07e3bd95bd0d56f35241523fbab1000000000000000000000000603482015260288152606081019481861060018060401b03871117620007ff57620007a26200064d73be3ad6a5669dc0b8b12febc03608860c31e2eef698969488969462000795948d9a8b52815190208952601f978888528c7303f73225f2a68e94f23752f8384d9e5a1e5a1a988c8c2091825416179055620005ee876007541692620005db898654166080830195869060289260018060601b0319809260601b16835260601b1660148201520190565b03607f1981018352605f19018262000830565b519020885286865288882080548c1673641c00a8200d91c0a314643478b8981ffc4eb066179055600a5481548a51918716606090811b6001600160601b0319908116848b0190815292891690911b166014820152909283906028830190565b039262000663601f199485810183528262000830565b519020885286865288882080548c16732f5e87c9312fa29aed5c179e456625d79015299c17905560125481548a51918716606090811b6001600160601b0319908116848b0190815292891690911b16601482015290620006ce81602884010385810183528262000830565b519020885286865288882080548c16734a5a2a152e985078e1a4aa9c3362c7b8ae3d1a5f179055600d5490548951918616606090811b6001600160601b0319908116848a0190815292881690911b166014820152906200073981602884010384810183528262000830565b51902087528585528787207380a9ae39310abf666a87c743d6ebbd0e8c42158e8b82541617905583600954169360085416885193849187830196879060289260018060601b0319809260601b16835260601b1660148201520190565b0390810183528262000830565b5190208352522091825416179055516153b3908162000880823960805181818161076f0152818161087c0152818161326e0152818161499801528181614a9d01528181614b4e01528181614c5201528181614cc20152614de50152f35b634e487b7160e01b87526041600452602487fd5b8351631e4fbdf760e01b815260006004820152602490fd5b600080fd5b601f909101601f19168101906001600160401b038211908210176200085457604052565b634e487b7160e01b600052604160045260246000fd5b51906001600160a01b03821682036200082b5756fe60a080604052600436101561001d575b50361561001b57600080fd5b005b600090813560e01c90816304646a4914613f125750806307a79fc714613eeb57806308a0167514613ec257806308a5d1fc14613de657806309eaed9514613dbd5780630e340e5b14613d945780631056305e14613d2b57806310fa79e214613d0d57806313c89efe14613c8157806315a3dd6714613b805780631672af0814613a3e578063193ef70914613a155780631b6b6d23146139ec5780631bea83fe146139c35780631e8919421461388357806320c0a630146138155780632b2d1534146137a75780632e56802c1461377e57806330a0523d1461373e57806332e0ebb2146137155780633ad396b2146132c6578063438dbd321461329d5780634b083bb6146132585780634b3f3378146132355780634d321338146131c75780634dede3de1461319e578063541bcb7614613175578063552672b41461314c578063580cb3b4146130de5780635c975abb146130bb5780635e41813d1461309257806361d027b3146130655780636372b2811461303c57806364a285fd146130135780636ecd155114612fa55780636ff1c9bc14612f0a57806370b3b80314612ee1578063715018a614612e875780637730022314612e19578063787739cf14612df05780637a26603814612dc75780637cf738d214612d9e5780637d188e1a14612d755780637dc3866414612d465780637e26edb114612d1d57806380ea3de114612cfa57806389a3027114612cd15780638da5cb5b14612caa5780638e089c1e14612a2e5780638e47518414612969578063920f5c84146125f7578063945c9142146125ce5780639557bcea146125b457806398fdaed0146125815780639d84f64e146125635780639da559671461253d578063a84e585014612379578063ad5c464814612350578063b816581314612327578063bc163846146122fe578063bd92ef86146122cf578063bfbba317146122a6578063c1fe3e481461227d578063c54e44eb14612254578063c6d672db1461222b578063d5eee8b61461220d578063d88bba11146121e4578063db9dc578146121bb578063e0bab4c414612192578063e4fbaecb14612169578063e71e6bcb14612140578063e9cbafb014611462578063ebb92cba14611439578063f04f27071461104f578063f08b0b0714611020578063f2fde38b14610f95578063f3df1253146104095763fbf0ade10361000f57346104065760203660031901126104065760043561039c61422d565b6107d081116103d7576020817f5d366c044b06faba913c60796eaeecb48b0ecfe9f5834c86a239955a90054abb92600355604051908152a180f35b60405162461bcd60e51b81526020600482015260076024820152664d61782032302560c81b6044820152606490fd5b80fd5b503461040657606036600319011261040657610423613f2e565b6001600160401b039190604435838111610f915761044760209136906004016140b3565b90809291610453614378565b61046860018060a01b03601b54163314614550565b81010312610f915761047990614587565b6040516370a0823160e01b815230600482015290936020826024816001600160a01b0387165afa918215610f86578492610f52575b5060ff8516600181036106f35750509091926104cb60243561467a565b6040516370a0823160e01b8152306004820152916020836024816001600160a01b0388165afa9283156106e85785936106b2575b508061051061051692851015614595565b836143f1565b6127109283610527600354846143be565b049081610692575b60243594600986028681046009148715171561067e579161056361056a926105919594049361055e858a614296565b614296565b11156145cd565b601b546001600160a01b0316906105819086614296565b906001600160a01b038716614618565b6040516370a0823160e01b81523060048201526020816024816001600160a01b0389165afa90811561067357869161062c575b509060008051602061535e83398151915294826106029361060c575b50506040519384938460409194939260ff606083019616825260208201520152565b0390a16001805580f35b601e54610625926001600160a01b039182169116614618565b38806105e0565b9190506020823d60201161066b575b8161064860209383614197565b8101031261066657905160008051602061535e8339815191526105c4565b600080fd5b3d915061063b565b6040513d88823e3d90fd5b634e487b7160e01b89526011600452602489fd5b86546106ad9083906001600160a01b03908116908916614618565b61052f565b9092506020813d6020116106e0575b816106ce60209383614197565b810103126106665751916105166104ff565b3d91506106c1565b6040513d87823e3d90fd5b6002810361095f575050825b62030d405a1180610955575b1561094b57600880546007805490916107379160243560011c916001600160a01b039182169116614974565b505490546001600160a01b03918216911661075860243560011c8284614e95565b60405163095ea7b360e01b81526001600160a01b037f00000000000000000000000000000000000000000000000000000000000000001660048201526024803560011c908201526020816044816000885af180156108fa5761091c575b5061012c4201421161090657604051926107ce84614160565b835260208084019283526101f4604080860191825230606087019081524261012c01608088019081526024803560011c60a08a0190815260c08a01978852600060e08b01818152955163414bf38960e01b81529a516001600160a01b0390811660048d015299518a16928b0192909252945162ffffff1660448a0152915187166064890152516084880152915160a4870152925160c48601529151831660e4850152918391610104918391907f0000000000000000000000000000000000000000000000000000000000000000165af180156108fa576108cf575b5060001981146108bb576001016106ff565b634e487b7160e01b84526011600452602484fd5b602090813d83116108f3575b6108e58183614197565b8101031261066657386108a9565b503d6108db565b6040513d6000823e3d90fd5b634e487b7160e01b600052601160045260246000fd5b61093d9060203d602011610944575b6109358183614197565b8101906143fe565b50386107b5565b503d61092b565b509091925b6104cb565b506064811061070b565b6003819693949596146000146109b95750506008546007546109b39160243560011c9161099a9183916001600160a01b039081169116614974565b506007546008546001600160a01b039081169116614974565b506104cb565b60048103610cfe57506040519060c0820190811182821017610ce857806040526109e28161410f565b6008546001600160a01b03908116808352600754821660e0850152600a5490911661010084015261012083018190526040519091610a1f8261412a565b60648252610bb89182602082015282604082015260405191610a4083614145565b82526020820152835260405191610a568361410f565b8083526012546001600160a01b039081166020850152600b541660408085018290526060850183905251909390610a8c8161412a565b83815283602082015283604082015260405191610aa883614145565b825260208201526020850152604051610ac08161410f565b8181526013546001600160a01b0316602082015260408082018590526060820183905251610aed8161412a565b83815283602082015283604082015260405191610b0983614145565b825260208201526040850152604051610b218161410f565b8181526014546001600160a01b0316602082015260408082018590526060820183905251610b4e8161412a565b83815283602082015283604082015260405191610b6a83614145565b825260208201526060850152604051610b828161410f565b8181526015546001600160a01b0316602082015260408082018590526060820183905251610baf8161412a565b83815283602082015283604082015260405191610bcb83614145565b82526020820152608085015260405192610be48461410f565b81845260018060a01b036017541660208501526040840152606083015260405190610c0e8261412a565b808252806020830152604082015260405191610c2983614145565b8252602082015260a0820152600642066006811015610cd45760051b0151805180516020918201519183018051516109b3949362ffffff93610cac92610c839260243592918716916001600160a01b039182169116614ca6565b84516020808201516040909201518551909101518616916001600160a01b039182169116614ca6565b925160408082015160609092015192510151909216916001600160a01b039182169116614ca6565b634e487b7160e01b86526032600452602486fd5b634e487b7160e01b600052604160045260246000fd5b905060058103610d14575061095060243561493a565b60068103610d3d57506008546007546109b391602435916001600160a01b039081169116614974565b60078103610d51575061095060243561493a565b60088103610d9c5750600a54600b546109b39160243560011c91610d839183916001600160a01b039081169116614b2a565b50600b54600a546001600160a01b039081169116614b2a565b60090361095057600854600754610dc391602435916001600160a01b039081169116614974565b506007546040516370a0823160e01b8152306004820152906001600160a01b0316602082602481845afa908115610673578691610f1c575b600b54610e1293506001600160a01b031690614b2a565b50600b546040516370a0823160e01b8152306004820152906001600160a01b0316602082602481845afa908115610673578691610ee6575b600a54610e6193506001600160a01b031690614b2a565b50600a546040516370a0823160e01b8152306004820152906001600160a01b0316602082602481845afa908115610673578691610eb0575b6008546109b393506001600160a01b031690614b2a565b90506020823d602011610ede575b81610ecb60209383614197565b81010312610666576109b3915190610e99565b3d9150610ebe565b90506020823d602011610f14575b81610f0160209383614197565b8101031261066657610e61915190610e4a565b3d9150610ef4565b90506020823d602011610f4a575b81610f3760209383614197565b8101031261066657610e12915190610dfb565b3d9150610f2a565b9091506020813d602011610f7e575b81610f6e60209383614197565b81010312610666575190386104ae565b3d9150610f61565b6040513d86823e3d90fd5b8280fd5b503461040657602036600319011261040657610faf613f2e565b610fb761422d565b6001600160a01b0390811690811561100757600054826001600160601b0360a01b821617600055167f8be0079c531659141344cd1fd0a4f28419497f9722a3daafe3b4186f6b6457e0600080a380f35b604051631e4fbdf760e01b815260048101849052602490fd5b503461040657806003193601126104065760206040517303f73225f2a68e94f23752f8384d9e5a1e5a1a988152f35b5034610406576080366003190112610406576001600160401b03600435818111610f915736602382011215610f915780600401359061108d826141b8565b9161109b6040519384614197565b8083526024602084019160051b830101913683116113cd57602401905b8282106114215750505060243582811161141d576110da9036906004016141cf565b916044358181116113d1576110f39036906004016141cf565b906064358181116113cd57366023820112156113cd57806004013591821161140957856040519161112e6020601f19601f8701160184614197565b83835260208301933660248284010111610f915780602460209301863783010152611157614378565b601c546001600160a01b031633036113d5578060209151810103126113d157519060ff8216928383036113cd576111a2906001600160a01b039061119a9061439b565b51169461439b565b5192604051916370a0823160e01b918284523060048501526020846024818a5afa93841561137f578894611398575b5060011461138a575b604051928284523060048501526020846024818a5afa93841561137f578894611347575b509061124961121c8361121661127195881015614595565b866143f1565b9461056361271061122f600354896143be565b048061132b575b61055e6112428661439b565b518b614296565b601c546001600160a01b03169061126a906112639061439b565b5187614296565b9087614618565b604051908152306004820152602081602481885afa9081156106735786916112e9575b509060008051602061535e8339815191529482610602936112d15750506040519384938460409194939260ff606083019616825260208201520152565b601e54610625926001600160a01b0390911690614618565b9190506020823d602011611323575b8161130560209383614197565b8101031261066657905160008051602061535e833981519152611294565b3d91506112f8565b8b546113429082906001600160a01b03168d614618565b611236565b919093506020823d602011611377575b8161136460209383614197565b81010312610666579051926112496111fe565b3d9150611357565b6040513d8a823e3d90fd5b6113938561467a565b6111da565b9093506020813d6020116113c5575b816113b460209383614197565b8101031261066657519260016111d1565b3d91506113a7565b8580fd5b8480fd5b60405162461bcd60e51b815260206004820152600c60248201526b2737ba102130b630b731b2b960a11b6044820152606490fd5b634e487b7160e01b86526041600452602486fd5b8380fd5b6020809161142e8461403a565b8152019101906110b8565b5034610406578060031936011261040657602c546040516001600160a01b039091168152602090f35b5034610406576060366003190112610406576044356001600160401b038111611ac5576114939036906004016140b3565b819081010360208112610f9157608090600a60ff6114b085614587565b1603611ac95712611ac5576114c481614587565b6001600160a01b036114d86020840161403a565b1690813303611a9557604051630dfe168160e01b815292602084600481865afa9384156106e8578594611a74575b5060405163d21220a760e01b8152602081600481875afa908115610673578691611a45575b506040516370a0823160e01b8152306004820152946020866024816001600160a01b0385165afa958615611a3a578796611a06575b506040516370a0823160e01b8152306004820152946020866024816001600160a01b0387165afa95861561137f5788966119d2575b506040840135156119c5576115ad604085013561467a565b6040516370a0823160e01b8152306004820152966020886024816001600160a01b0387165afa97881561183b578998611991575b506040516370a0823160e01b8152306004820152906020826024816001600160a01b0389165afa918215611986578a92611950575b506116378161163e928b101580611946575b61163190614595565b8a6143f1565b97826143f1565b600354909861168361271061165f81611657868e6143be565b04948d6143be565b04928c8180611925575b508480611904575b505061055e60043560408b0135614296565b116118bf5761169c9061055e6024356060890135614296565b1161187a576116e8906116c86116b86004356040880135614296565b826001600160a01b038616614618565b6116d86024356060870135614296565b906001600160a01b038516614618565b6040516370a0823160e01b8152306004820152906020826024816001600160a01b0385165afa91821561137f578892611846575b506040516370a0823160e01b8152306004820152916020836024816001600160a01b0388165afa92831561183b5789936117fb575b50936117959360008051602061535e833981519152989361178f93876117b5986117db575b5050806117bb575b505060406060820135910135614296565b94614296565b6040519384938460409194939260ff606083019616825260208201520152565b0390a180f35b601e546117d4926001600160a01b039182169116614618565b388061177e565b601e546117f4926001600160a01b039182169116614618565b3880611776565b9193979250936020823d602011611833575b8161181a60209383614197565b8101031261066657905191969093909290611795611751565b3d915061180d565b6040513d8b823e3d90fd5b9091506020813d602011611872575b8161186260209383614197565b810103126106665751903861171c565b3d9150611855565b60405162461bcd60e51b815260206004820152601760248201527f496e73756666696369656e7420666f7220746f6b656e310000000000000000006044820152606490fd5b60405162461bcd60e51b815260206004820152601760248201527f496e73756666696369656e7420666f7220746f6b656e300000000000000000006044820152606490fd5b905461191e91906001600160a01b03908116908b16614618565b8c84611671565b905461193f91906001600160a01b03908116908a16614618565b8c81611669565b5089841015611628565b9091506020813d60201161197e575b8161196c60209383614197565b81010312610666575190611637611616565b3d915061195f565b6040513d8c823e3d90fd5b9097506020813d6020116119bd575b816119ad60209383614197565b81010312610666575196386115e1565b3d91506119a0565b6115ad606085013561467a565b9095506020813d6020116119fe575b816119ee60209383614197565b8101031261066657519438611595565b3d91506119e1565b9095506020813d602011611a32575b81611a2260209383614197565b8101031261066657519438611560565b3d9150611a15565b6040513d89823e3d90fd5b611a67915060203d602011611a6d575b611a5f8183614197565b81019061465b565b3861152b565b503d611a55565b611a8e91945060203d602011611a6d57611a5f8183614197565b9238611506565b60405162461bcd60e51b8152602060048201526008602482015267139bdd081c1bdbdb60c21b6044820152606490fd5b5080fd5b12611ac557611ad781614587565b50611ae46020820161403a565b611af06040830161403a565b6040516bffffffffffffffffffffffff19606084811b82166020840190815293901b166034820152611b2f81604881015b03601f198101835282614197565b5190208352601f60205260408320546001600160a01b03163381900361210c576040516370a0823160e01b8152306004820152926020846024816001600160a01b0387165afa9384156106e85785946120d8575b50604051630dfe168160e01b8152602081600481865afa9081156106735786916120b9575b5060405163d21220a760e01b8152602081600481875afa908115611a3a57879161209a575b506001600160a01b03858116908316036120905760608301356101ef90808281020482148115171561067e576103e89102045b6001600160a01b0386811690841603612058576060840135915b601d5460405163095ea7b360e01b81526001600160a01b03909116600482015260248101839052602081806044810103818d6001600160a01b038a165af1801561198657612039575b50601d5460405163095ea7b360e01b81526001600160a01b03909116600482015260248101849052602081806044810103818d6001600160a01b0387165af180156119865761201a575b5061012c4201421161067e5792608092611d54928a97969560405193611cd2856140f3565b60018060a01b0316845260018060a01b031660208401526101f46040840152620d89e7196060840152620d89e88584015260a083015260c08201528560e0820152856101008201523061012082015261012c420161014082015260018060a01b03601d541690604051968780948193634418b22b60e11b835260048301614451565b03925af1928315610673578693611fe4575b506060013591600f8302838104600f1484151715611fd05760405163a9059cbb60e01b81523060048201526103e890910460248201528691602082604481866001600160a01b038b165af1918215611fc557604092611fa6575b50601d548251630852cd8d60e31b815260048101929092529092839160249183916001600160a01b03165af1801561067357611f78575b50604051630dfe168160e01b815290602082600481845afa91821561067357611e7293602093611e44928991611f5b575b506001600160a01b03878116911603611f525760043590614296565b60405163095ea7b360e01b81526001600160a01b039092166004830152602482015291829081906044820190565b0381876001600160a01b0387165af18015610f8657611f33575b506040516370a0823160e01b81523060048201526020816024816001600160a01b0386165afa908115610f86578491611f01575b50828111611ecf575b50505080f35b611eea611ef99360018060a01b0360025460081c16926143f1565b916001600160a01b0316614618565b388080611ec9565b90506020813d602011611f2b575b81611f1c60209383614197565b81010312610666575138611ec0565b3d9150611f0f565b611f4b9060203d602011610944576109358183614197565b5038611e8c565b60243590614296565b611f729150853d8711611a6d57611a5f8183614197565b38611e28565b611f999060403d604011611f9f575b611f918183614197565b8101906144de565b50611df7565b503d611f87565b611fbe9060203d602011610944576109358183614197565b5038611dc0565b6040513d85823e3d90fd5b634e487b7160e01b87526011600452602487fd5b60609193506120099060803d8111612013575b6120018183614197565b810190614416565b5050509290611d66565b503d611ff7565b6120329060203d602011610944576109358183614197565b5038611cad565b6120519060203d602011610944576109358183614197565b5038611c63565b60608401356101ef90808281020482148115171561207c576103e891020491611c1a565b634e487b7160e01b8a52601160045260248afd5b6060830135611c00565b6120b3915060203d602011611a6d57611a5f8183614197565b38611bcd565b6120d2915060203d602011611a6d57611a5f8183614197565b38611ba8565b9093506020813d602011612104575b816120f460209383614197565b8101031261066657519238611b83565b3d91506120e7565b60405162461bcd60e51b815260206004820152600c60248201526b1253959053125117d413d3d360a21b6044820152606490fd5b50346104065780600319360112610406576014546040516001600160a01b039091168152602090f35b50346104065780600319360112610406576018546040516001600160a01b039091168152602090f35b50346104065780600319360112610406576009546040516001600160a01b039091168152602090f35b50346104065780600319360112610406576025546040516001600160a01b039091168152602090f35b50346104065780600319360112610406576016546040516001600160a01b039091168152602090f35b50346104065780600319360112610406576020600654604051908152f35b50346104065780600319360112610406576022546040516001600160a01b039091168152602090f35b50346104065780600319360112610406576007546040516001600160a01b039091168152602090f35b5034610406578060031936011261040657600c546040516001600160a01b039091168152602090f35b50346104065780600319360112610406576019546040516001600160a01b039091168152602090f35b5034610406578060031936011261040657602060405173641c00a8200d91c0a314643478b8981ffc4eb0668152f35b5034610406578060031936011261040657601c546040516001600160a01b039091168152602090f35b50346104065780600319360112610406576029546040516001600160a01b039091168152602090f35b5034610406578060031936011261040657600b546040516001600160a01b039091168152602090f35b50346104065760206003198181360112610f91576004359161239961422d565b6123a1614378565b82151580612531575b6123b390614259565b6123cd6123c560065460055490614296565b4210156142a3565b42600655604051926123de84614145565b60019384815282810193833686376008546001600160a01b03959086166124048461439b565b526040519461241286614145565b87865280860194813687376124268761439b565b5286601c54169560405194898387015282865261244286614145565b873b1561252d579695949392908a9860405198632e1c224f60e11b8a5260848a01903060048c0152608060248c01525180915260a48a0193918b905b8d83831061251257505050505087820384016044890152518082529082019491885b8a8382106124fd57505050505085856124c885839795839795848097030160648501526142e1565b03925af180156124f2576124de575b5050805580f35b6124e7906140e0565b611ac55781386124d7565b6040513d84823e3d90fd5b845188528c9a509682019693820193016124a0565b8451821687528f9d509587019593870193919091019061247e565b8a80fd5b506004548311156123aa565b503461040657602036600319011261040657612557613f2e565b5061256061422d565b80f35b50346104065780600319360112610406576020600354604051908152f35b5034610406576020366003190112610406576020906004358152601f8252604060018060a01b0391205416604051908152f35b503461040657604036600319011261040657612557613f2e565b50346104065780600319360112610406576017546040516001600160a01b039091168152602090f35b50346104065760a0366003190112610406576001600160401b0390600435828111611ac55761262a903690600401614083565b5050602435828111611ac557612644903690600401614083565b9190604435848111610f915761265e903690600401614083565b929093612669613f70565b50608435958611611ac5576126856060959636906004016140b3565b9080969161269e60018060a01b03601b54163314614550565b81010312611ac5576126af85614587565b956001600160a01b036126c46020880161403a565b1693604051916370a0823160e01b8352306004840152602083602481895afa9283156106e8578593612935575b50600160ff8a1614612923575b6040516370a0823160e01b8152306004820152926020846024818a5afa9384156106735786946128ed575b508061273a61274092861015614595565b846143f1565b966127106127506003548a6143be565b0494856128d1575b15610cd457156128bd576127799161277291359035614296565b9283614296565b1161288357601b5461279591906001600160a01b031684614618565b6040516370a0823160e01b8152306004820152602081602481865afa918215612877579161282f575b509160008051602061535e83398151915294612802928460409695612810575b505084519485940135908460409194939260ff606083019616825260208201520152565b0390a1602060405160018152f35b601e54612828926001600160a01b0390911690614618565b38806127de565b91939290506020823d60201161286f575b8161284d60209383614197565b810103126106665790519192909160008051602061535e8339815191526127be565b3d9150612840565b604051903d90823e3d90fd5b60405162461bcd60e51b8152602060048201526012602482015271496e73756666696369656e742066756e647360701b6044820152606490fd5b634e487b7160e01b85526032600452602485fd5b86546128e89087906001600160a01b03168a614618565b612758565b9093506020813d60201161291b575b8161290960209383614197565b81010312610666575192612740612729565b3d91506128fc565b612930604089013561467a565b6126fe565b9092506020813d602011612961575b8161295160209383614197565b81010312610666575191386126f1565b3d9150612944565b5034610406576020366003190112610406578060043561298761422d565b61298f614378565b80151580612a22575b6129a190614259565b60018060a01b0380601b54169060085416906040519060036020830152602082526129cb82614145565b803b156113d1576129f793858094604051968795869485936310ac2ddf60e21b85523060048601614321565b03925af180156124f257612a0e575b506001805580f35b612a17906140e0565b610406578038612a06565b50600454811115612998565b50346104065761028036600319011261040657612a49613f2e565b612a51613f44565b612a59613f5a565b612a61613f70565b612a69613f86565b612a71613f9c565b612a79613fb2565b612a81613fc8565b612a89613fde565b90612a92613ff5565b92612a9b61400c565b94612aa4614023565b61018435989097906001600160a01b038a168a03610666576101a4359a6001600160a01b038c168c03610666576101c4359c6001600160a01b038e168e9003610666576101e4359e8f60018060a01b03811603610666576102043560808190526001600160a01b0381160361066657610224356001600160a01b038116900361066657610244356001600160a01b038116900361066657610264356001600160a01b038116900361066657612b5761422d565b600780546001600160a01b03199081166001600160a01b03938416179091556008805482169383169390931790925560098054831693821693909317909255600a8054821693831693909317909255600b8054831693821693909317909255600c8054821693831693909317909255600d8054831693821693909317909255600e8054821693831693909317909255600f805483169382169390931790925560108054821693831693909317909255601180548316938216939093179092556012805482169383169390931790925560138054831693821693909317909255601480548216938316939093179092556015805483169382169390931790925560168054821693831693909317909255608051601780548416918316919091179055601a80548316610224358316179055601880548316610244358316179055601980549092166102643590911617905580f35b5034610406578060031936011261040657546040516001600160a01b039091168152602090f35b50346104065780600319360112610406576008546040516001600160a01b039091168152602090f35b503461040657602036600319011261040657612d1461422d565b60043560055580f35b50346104065780600319360112610406576024546040516001600160a01b039091168152602090f35b5034610406578060031936011261040657602060405173b27308f9f90d607463bb33ea1bebb41c27ce5ab68152f35b5034610406578060031936011261040657602a546040516001600160a01b039091168152602090f35b50346104065780600319360112610406576011546040516001600160a01b039091168152602090f35b5034610406578060031936011261040657600f546040516001600160a01b039091168152602090f35b50346104065780600319360112610406576010546040516001600160a01b039091168152602090f35b50346104065760203660031901126104065780600435612e3761422d565b612e3f614378565b80151580612e7b575b612e5190614259565b60018060a01b0380601b54169060085416906040519060066020830152602082526129cb82614145565b50600454811115612e48565b5034610406578060031936011261040657612ea061422d565b600080546001600160a01b0319811682556001600160a01b03167f8be0079c531659141344cd1fd0a4f28419497f9722a3daafe3b4186f6b6457e08280a380f35b5034610406578060031936011261040657601e546040516001600160a01b039091168152602090f35b503461040657602036600319011261040657612f24613f2e565b612f2c61422d565b81546040516370a0823160e01b8152306004820152916001600160a01b039081169116602083602481855afa918215610f86578492612f70575b6125609350614618565b91506020833d8211612f9d575b81612f8a60209383614197565b8101031261066657612560925191612f66565b3d9150612f7d565b50346104065760203660031901126104065780600435612fc361422d565b612fcb614378565b80151580613007575b612fdd90614259565b60018060a01b0380601b54169060085416906040519060046020830152602082526129cb82614145565b50600454811115612fd4565b50346104065780600319360112610406576015546040516001600160a01b039091168152602090f35b50346104065780600319360112610406576026546040516001600160a01b039091168152602090f35b503461040657806003193601126104065760025460405160089190911c6001600160a01b03168152602090f35b5034610406578060031936011261040657600e546040516001600160a01b039091168152602090f35b5034610406578060031936011261040657602060ff600254166040519015158152f35b503461040657602036600319011261040657806004356130fc61422d565b613104614378565b80151580613140575b61311690614259565b60018060a01b0380601b54169060085416906040519060076020830152602082526129cb82614145565b5060045481111561310d565b50346104065780600319360112610406576023546040516001600160a01b039091168152602090f35b50346104065780600319360112610406576013546040516001600160a01b039091168152602090f35b5034610406578060031936011261040657600a546040516001600160a01b039091168152602090f35b503461040657602036600319011261040657806004356131e561422d565b6131ed614378565b80151580613229575b6131ff90614259565b60018060a01b0380601b54169060085416906040519060056020830152602082526129cb82614145565b506004548111156131f6565b50346104065760203660031901126104065761324f61422d565b60043560045580f35b50346104065780600319360112610406576040517f00000000000000000000000000000000000000000000000000000000000000006001600160a01b03168152602090f35b5034610406578060031936011261040657600d546040516001600160a01b039091168152602090f35b5034610406576132d53661404e565b6132e19392919361422d565b6132e9614378565b6132f161435a565b80151580613709575b61330390614259565b6133156123c560065460055490614296565b4260065560018060a01b039384831690604051916020946323b872dd60e01b8685015261336260249433868201523060448201528660648201526064815261335c8161417c565b836144f4565b61336d858483614974565b506040516370a0823160e01b808252306004830152848a1694909188818881895afa908115611986578a916136dc575b506101ef8082029082820414821517156136c9576133ca916103e86133c39204906143f1565b8483614974565b506040519482865230600487015288868881885afa958615611986578a9661369a575b5060405192835230600484015288838881845afa92831561198657908b92918b94613667575b5085109384156136605780945b156136585750925b169283149384156136515780945b1561364a57505b601d5460405163095ea7b360e01b808252918b166001600160a01b031660048201526024810186905290929088816044818d895af180156119865783928a928d9261362d575b50601d546040519687528d166001600160a01b0316600487015260248601939093529091169290816044818c875af1801561183b57613610575b5088601d54169361012c4201928342116135fd579360809361354c938b9c97938c9997604051946134ed866140f3565b85528c85015260646040850152620d89b3196060850152620d89b48785015260a084015260c08301528760e08301528761010083015230610120830152610140820152604051968780948193634418b22b60e11b835260048301614451565b03925af19182156106735760409387936135da575b50601d54169183519687938492630852cd8d60e31b845260048401525af1928315610f86577fbb878be59bbf318caf3828b994ee9bbdb2d9b03c63ee4f98c6eab2ac9dcdf05a936135bc575b50604051908152a16001805580f35b6135d49060403d604011611f9f57611f918183614197565b506135ad565b6135f391935060803d8111612013576120018183614197565b5050509138613561565b634e487b7160e01b8a526011600452868afd5b61362690883d8a11610944576109358183614197565b50386134bd565b61364390843d8611610944576109358183614197565b5038613483565b905061343d565b8194613436565b905092613428565b8194613420565b8a809295508194503d8311613693575b6136818183614197565b81010312610666578a91519238613413565b503d613677565b9095508881813d83116136c2575b6136b28183614197565b81010312610666575194386133ed565b503d6136a8565b634e487b7160e01b8b526011600452878bfd5b90508881813d8311613702575b6136f38183614197565b8101031261066657513861339d565b503d6136e9565b506004548111156132fa565b50346104065780600319360112610406576028546040516001600160a01b039091168152602090f35b503461040657602036600319011261040657613758613f2e565b61376061422d565b60018060a01b03166001600160601b0360a01b601e541617601e5580f35b50346104065780600319360112610406576027546040516001600160a01b039091168152602090f35b503461040657602036600319011261040657806004356137c561422d565b6137cd614378565b80151580613809575b6137df90614259565b60018060a01b0380601b54169060085416906040519060096020830152602082526129cb82614145565b506004548111156137d6565b5034610406576020366003190112610406578060043561383361422d565b61383b614378565b80151580613877575b61384d90614259565b60018060a01b0380601b541690600a5416906040519060086020830152602082526129cb82614145565b50600454811115613844565b5034610406576138923661404e565b61389d92919261422d565b604051606083811b6bffffffffffffffffffffffff19908116602084019081529186901b166034830152906138d58160488101611b21565b5190208452601f60205260408420546001600160a01b039081169290831561398d5785948160405193600b6020860152166040840152166060820152816080820152608081526139248161417c565b823b1561398857613967928492836040518096819582946312439b2f60e21b845230600485015260248401528360448401526080606484015260848301906142e1565b03925af180156124f2576139785750f35b613981906140e0565b6104065780f35b505050fd5b60405162461bcd60e51b815260206004820152600e60248201526d1413d3d317d393d517d193d5539160921b6044820152606490fd5b5034610406578060031936011261040657601d546040516001600160a01b039091168152602090f35b50346104065780600319360112610406576012546040516001600160a01b039091168152602090f35b5034610406578060031936011261040657602b546040516001600160a01b039091168152602090f35b50346104065761018036600319011261040657613a59613f2e565b50613a62613f44565b613a6a613f5a565b613a72613f70565b613a7a613f86565b613a82613f9c565b613a8a613fb2565b613a92613fc8565b91613a9b613fde565b93613aa4613ff5565b95613aad61400c565b97613ab6614023565b99613abf61422d565b602080546001600160a01b03199081166001600160a01b0393841617909155602280548216938316939093179092556021805483169382169390931790925560238054821693831693909317909255602480548316938216939093179092556025805482169383169390931790925560268054831693821693909317909255602780548216938316939093179092556028805483169382169390931790925560298054821693831693909317909255602a8054909216921691909117905580f35b50346104065760603660031901126104065780613b9b613f2e565b60243560443591613baa61422d565b613bb2614378565b613bba61435a565b8115801590613c78575b80613c5e575b613bd390614259565b613be56123c560065460055490614296565b4260065560018060a01b031660405190600a602083015280604083015282606083015283608083015260808252613c1b8261417c565b803b156113d1576129f793858094604051968795869485936312439b2f60e21b8552306004860152602485015260448401526080606484015260848301906142e1565b50613bd3613c6c8484614296565b60045410159050613bca565b50821515613bc4565b50346104065760203660031901126104065780600435613c9f61422d565b613ca7614378565b613caf61435a565b80151580613d01575b613cc190614259565b613cd36123c560065460055490614296565b4260065560018060a01b0380601b54169060085416906040519060016020830152602082526129cb82614145565b50600454811115613cb8565b50346104065780600319360112610406576020600454604051908152f35b503461040657606036600319011261040657613d45613f2e565b613d4d613f44565b613d55613f5a565b613d5d61422d565b60018060a01b038092816001600160601b0360a01b951685601b541617601b551683601c541617601c551690601d541617601d5580f35b5034610406578060031936011261040657601a546040516001600160a01b039091168152602090f35b50346104065780600319360112610406576021546040516001600160a01b039091168152602090f35b503461040657602036600319011261040657600435613e0361422d565b613e0b614378565b613e1361435a565b80151580613eb6575b613e2590614259565b613e376123c560065460055490614296565b426006558160018060a01b039182601b5416926008541692604051916002602084015260208352613e6783614145565b813b1561141d5783613e9195604051968795869485936310ac2ddf60e21b85523060048601614321565b03925af180156124f257613ea757506001805580f35b613eb0906140e0565b38612a06565b50600454811115613e1c565b5034610406578060031936011261040657601b546040516001600160a01b039091168152602090f35b5034610406578060031936011261040657602080546040516001600160a01b039091168152f35b905034611ac55781600319360112611ac5576020906005548152f35b600435906001600160a01b038216820361066657565b602435906001600160a01b038216820361066657565b604435906001600160a01b038216820361066657565b606435906001600160a01b038216820361066657565b608435906001600160a01b038216820361066657565b60a435906001600160a01b038216820361066657565b60c435906001600160a01b038216820361066657565b60e435906001600160a01b038216820361066657565b61010435906001600160a01b038216820361066657565b61012435906001600160a01b038216820361066657565b61014435906001600160a01b038216820361066657565b61016435906001600160a01b038216820361066657565b35906001600160a01b038216820361066657565b6060906003190112610666576001600160a01b0390600435828116810361066657916024359081168103610666579060443590565b9181601f84011215610666578235916001600160401b038311610666576020808501948460051b01011161066657565b9181601f84011215610666578235916001600160401b038311610666576020838186019501011161066657565b6001600160401b038111610ce857604052565b61016081019081106001600160401b03821117610ce857604052565b608081019081106001600160401b03821117610ce857604052565b606081019081106001600160401b03821117610ce857604052565b604081019081106001600160401b03821117610ce857604052565b61010081019081106001600160401b03821117610ce857604052565b60a081019081106001600160401b03821117610ce857604052565b90601f801991011681019081106001600160401b03821117610ce857604052565b6001600160401b038111610ce85760051b60200190565b81601f82011215610666578035916141e6836141b8565b926141f46040519485614197565b808452602092838086019260051b820101928311610666578301905b82821061421e575050505090565b81358152908301908301614210565b6000546001600160a01b0316330361424157565b60405163118cdaa760e01b8152336004820152602490fd5b1561426057565b60405162461bcd60e51b815260206004820152600e60248201526d125b9d985b1a5908185b5bdd5b9d60921b6044820152606490fd5b9190820180921161090657565b156142aa57565b60405162461bcd60e51b815260206004820152600f60248201526e436f6f6c646f776e2061637469766560881b6044820152606490fd5b919082519283825260005b84811061430d575050826000602080949584010152601f8019910116010190565b6020818301810151848301820152016142ec565b94936000936143559260809460018060a01b038092168952166020880152604087015260a0606087015260a08601906142e1565b930152565b60ff6002541661436657565b60405163d93c066560e01b8152600490fd5b600260015414614389576002600155565b604051633ee5aeb560e01b8152600490fd5b8051156143a85760200190565b634e487b7160e01b600052603260045260246000fd5b8181029291811591840414171561090657565b81156143db570490565b634e487b7160e01b600052601260045260246000fd5b9190820391821161090657565b90816020910312610666575180151581036106665790565b91908260809103126106665781519160208101516fffffffffffffffffffffffffffffffff8116810361066657916060604083015192015190565b91909161016081019260018060a01b0380825116835280602083015116602084015262ffffff6040830151166040840152606082015160020b6060840152608082015160020b608084015260a082015160a084015260c082015160c084015260e082015160e084015261010080830151908401526101209081830151169083015261014080910151910152565b9190826040910312610666576020825192015190565b906000602091828151910182855af1156108fa576000513d61454757506001600160a01b0381163b155b6145255750565b604051635274afe760e01b81526001600160a01b039091166004820152602490fd5b6001141561451e565b1561455757565b60405162461bcd60e51b81526020600482015260086024820152674e6f74204161766560c01b6044820152606490fd5b359060ff8216820361066657565b1561459c57565b60405162461bcd60e51b8152602060048201526009602482015268139bc81c1c9bd99a5d60ba1b6044820152606490fd5b156145d457565b606460405162461bcd60e51b815260206004820152602060248201527f496e73756666696369656e742066756e647320666f722072657061796d656e746044820152fd5b60405163a9059cbb60e01b60208201526001600160a01b0392909216602483015260448083019390935291815261465991614654606483614197565b6144f4565b565b9081602091031261066657516001600160a01b03811681036106665790565b9060018060a01b03614696838260085416836007541690614974565b5080600754169260408051926370a0823160e01b80855260049630888701526020958681602481855afa9081156148ed5760009161490d575b506101ef8082029082820414821517156148f85761470292916103e86146f69204906143f1565b90846008541690614974565b5081600754169183519180835230898401528683602481875afa9283156148ed576000936148be575b508160085416928551918252308a8301528782602481875afa9182156148b357600092614884575b5082601d541693808610958660001461487d5780965b156148755750925b61012c4201938442116148605791816080979695936147fb9d95938a51986147988a6140f3565b168852168a870152606488870152620d89b3196060870152620d89b48787015260a086015260c0850152600060e0850152600061010085015261dead61012085015261014084015260008551809a81958294634418b22b60e11b84528301614451565b03925af1948515614855577fbb878be59bbf318caf3828b994ee9bbdb2d9b03c63ee4f98c6eab2ac9dcdf05a9495614836575b5051908152a1565b61484d9060803d8111612013576120018183614197565b50505061482e565b50513d6000823e3d90fd5b60118c634e487b7160e01b6000525260246000fd5b905092614771565b8196614769565b90918882813d83116148ac575b61489b8183614197565b810103126104065750519038614753565b503d614891565b86513d6000823e3d90fd5b90928782813d83116148e6575b6148d58183614197565b81010312610406575051913861472b565b503d6148cb565b85513d6000823e3d90fd5b60118a634e487b7160e01b6000525260246000fd5b908782813d8311614933575b6149238183614197565b81010312610406575051386146cf565b503d614919565b600854600b546149719260011c916001600160a01b03916149619184918416908416614b2a565b50600b5460085482169116614b2a565b50565b90614980838284614e95565b6040805163095ea7b360e01b81526001600160a01b037f0000000000000000000000000000000000000000000000000000000000000000811660048301526024820187905291959490911693906020816044816000895af180156148b357614b0b575b5061012c4201804211610906578551946149fc86614160565b85526001600160a01b03938416602080870191825260648888018181523060608a0190815260808a0195865260a08a0196875260c08a01978852600060e08b018181528c5163414bf38960e01b81529b518b1660048d015295518a1660248c0152915162ffffff1660448b01525188169189019190915292516084880152925160a4870152925160c48601529151831660e4850152918391610104918391907f0000000000000000000000000000000000000000000000000000000000000000165af1918215614b015750600091614ad2575090565b90506020813d602011614af9575b81614aed60209383614197565b81010312610666575190565b3d9150614ae0565b513d6000823e3d90fd5b614b239060203d602011610944576109358183614197565b50386149e3565b90614b36838284614e95565b6040805163095ea7b360e01b81526001600160a01b037f0000000000000000000000000000000000000000000000000000000000000000811660048301526024820187905291959490911693906020816044816000895af180156148b357614c87575b5061012c420180421161090657855194614bb286614160565b85526001600160a01b039384166020808701918252610bb888880190815230606089019081526080890194855260a0890195865260c08901968752600060e08a018181528b5163414bf38960e01b81529a518a1660048c01529451891660248b0152915162ffffff1660448a0152518716606489015292516084880152925160a4870152925160c48601529151831660e4850152918391610104918391907f0000000000000000000000000000000000000000000000000000000000000000165af1918215614b015750600091614ad2575090565b614c9f9060203d602011610944576109358183614197565b5038614b99565b9290614cb3828286614e95565b60405163095ea7b360e01b81527f00000000000000000000000000000000000000000000000000000000000000006001600160a01b03166004820152602481018490529093906020818060448101038160006001600160a01b038b165af180156108fa57614e19575b5061012c420142116109065762ffffff9160405195614d3a87614160565b6001600160a01b039081168752908116602080880191825293909216604080880191825230606089019081524261012c0160808a0190815260a08a0197885260c08a01988952600060e08b01818152935163414bf38960e01b81529a51861660048c01529551851660248b0152925162ffffff1660448a0152518316606489015290516084880152935160a4870152935160c48601529151831660e4850152918391610104918391907f0000000000000000000000000000000000000000000000000000000000000000165af19081156108fa57600091614ad2575090565b614e319060203d602011610944576109358183614197565b5038614d1c565b519069ffffffffffffffffffff8216820361066657565b908160a091031261066657614e6381614e38565b91602082015191604081015191614e81608060608401519301614e38565b90565b60ff16604d811161090657600a0a90565b614e9e816150d1565b92614ea8836150d1565b6001600160a01b0394851692909190831580156150c7575b6150bc57604080519687958695633fabe5a360e21b9182885260a098899160049c8d915afa9182156150b157908a89926000998a95615089575b50865195869384928352165afa91821561507e576000978893615045575b5050600086138061503b575b1561500057610e0f194201904282116148f8578111159182614ff5575b505015614fbd5750614f8c9493614f7b614f8694614f76614f6b95614f70614f6b614f809761520b565b614e84565b906143be565b6143be565b6143d1565b9261520b565b906143d1565b90606382029180830460631490151715614fa857506064900490565b601190634e487b7160e01b6000525260246000fd5b5162461bcd60e51b815260208188015260136024820152725374616c65206f7261636c652070726963657360681b6044820152606490fd5b101590503880614f41565b825162461bcd60e51b81526020818b01526015602482015274496e76616c6964206f7261636c652070726963657360581b6044820152606490fd5b5060008713614f24565b80919298506150699350903d10615077575b6150618183614197565b810190614e4f565b509792505095903880614f18565b503d615057565b83513d6000823e3d90fd5b9094506150a4919950833d8511615077576150618183614197565b509a925050989338614efa565b84513d6000823e3d90fd5b505050505050600090565b5085831615614ec0565b6007546001600160a01b03918216908216811461520357816009541681146151fb5781600a541681146151f35781600b541681146151eb57816012541681146151e357816013541681146151db57816014541681146151d357816015541681146151cb57816016541681146151c357816017541681146151bb5781601a541681146151b357816018541681146151ab578160195416146151a45760405162461bcd60e51b81526020600482015260116024820152702ab739bab83837b93a32b2103a37b5b2b760791b6044820152606490fd5b602c541690565b50602b541690565b50602a541690565b506029541690565b506028541690565b506027541690565b506026541690565b506025541690565b506024541690565b506023541690565b506021541690565b506022541690565b506020541690565b6008546001600160a01b039182169190811682148015615350575b6153495780600a5416821461534257806009541682148015615335575b8015615328575b801561531b575b801561530e575b8015615301575b80156152f4575b80156152e7575b80156152da575b80156152cd575b6152c65760195416146152c15760405162461bcd60e51b81526020600482015260116024820152702ab739bab83837b93a32b2103a37b5b2b760791b6044820152606490fd5b600590565b5050601290565b508060185416821461527b565b5080601a54168214615274565b508060175416821461526d565b5080601654168214615266565b508060155416821461525f565b5080601454168214615258565b5080601354168214615251565b508060125416821461524a565b5080600b54168214615243565b5050600890565b5050600690565b508060075416821461522656fee353aaf2b0009460952086ead25cb12a74b4e9e1d8bc70b75ad07701d36c2531a2646970667358221220a27c00c17c558a1519ba16ba9398aebc28a41f9a6ca70e4db8d60621ee0ae4cc64736f6c63430008140033",
  "linkReferences": {},
  "deployedLinkReferences": {}
}